:020000040800F2
:10000000C004002001010008DF190008C91400081D
:10001000DD1900082B0B0008911B000800000000F0
:10002000000000000000000000000000E3190008CC
:100030002D0B000800000000E1190008E519000878
:100040001B0100081B0100081B0100081B01000820
:100050001B0100081B0100081B0100081B01000810
:100060001B0100081B0100081B0100081B01000800
:100070001B0100081B0100081B0100081B010008F0
:100080001B0100081B0100081B0100081B010008E0
:100090001B0100081B0100081B0100081B010008D0
:1000A0001B0100081B0100081B0100081B010008C0
:1000B0001B0100081B010008000000001B010008D4
:1000C0001B01000800000000000000001B010008E8
:1000D000000000001B0100081B01000800000000D8
:1000E0001B0100081B0100081B010008DFF80CD0F1
:1000F00000F0B8FC0048004741270008C004002079
:100100000648804706480047FEE7FEE7FEE7FEE7B1
:10011000FEE7FEE7FEE7FEE7FEE7FEE74F1A000810
:10012000ED0000082DE9F0410024061B254671F181
:10013000000605DA01240027D0EB070067EB010178
:10014000161E73F1000605DA0027D2EB070201251F
:1001500067EB030300F040FB86460E4617469C46BD
:10016000AC4204D00025D0EB050E65EB010624B1AE
:100170000020D2EB000760EB030C704631463A4694
:100180006346BDE8F081202A04DB203A21FA02F020
:100190000021704721FA02F3D040C2F120029140C1
:1001A000084319467047D2B201E000F8012B491EFE
:1001B000FBD270470022F6E710B513460A46044604
:1001C0001946FFF7F0FF204610BD30B50446002069
:1001D000034600E05B1C934203D2E05CCD5C401B15
:1001E000F8D030BDF0B480EA0102D40F4200B2EB87
:1001F000410F02D20246084611464A0042D0C30DC2
:10020000DDB2C1F3C752AD1A202D35DAC1F31601A4
:1002100041F4000204B15242C5F1200602FA06F18F
:100220002A411044B3EBD05F23D0C4B1012DA0EB21
:10023000C35009DCF0BC4FF0004202EAC352DBB20B
:1002400000F5000000F023BB400000F1807000EBDF
:10025000C350A0F1807040EAD170490009E049081C
:1002600041EAC071A0EBC35000F50000400800EB6C
:10027000C350F0BC00F002BB6142012202EB41011D
:10028000001BF6E7F0BC704781F00041AAE780F060
:100290000040A7E780EA010210B502F000434000E9
:1002A00022D04A001FD0010E01EB1261C0F35600AC
:1002B000C2F3560240F4000042F40002A0FB022008
:1002C00000047F39140400D0401C50EA124001D4CD
:1002D0004000491EC2B20C0604EBD010401C40087E
:1002E000802A02D003E0002010BD20F00100002988
:1002F00000DA0020184310BD30B480EA010202F099
:10030000004530F0004221F0004013D090B1C30D01
:10031000D40DC2F31601C0F31600E41A41F4000133
:1003200040F400027D34914201D3641C00E0490096
:10033000002C02DA30BC002070474FF4000000238C
:10034000914201D3891A034340084FEA4101F7D192
:1003500051B1914202D14FF0004105E002D24FF07D
:10036000010101E06FF0010103EBC450284430BCEF
:1003700000F084BA2DE9FE4F804681EA0300C00FE9
:100380000C46009021F0004123F00045B8EB02003C
:10039000A94105D24046214690461C460B460246DE
:1003A00023F00040104347D0270DC7F30A00C3F3E2
:1003B0000A510290401A019040286BDAC3F31300EF
:1003C00040F4801B0098924620B10023D2EB030A30
:1003D00063EB0B0B01985946C0F14002504600F008
:1003E0002CFA06460D4650465946019A00F034FA5A
:1003F00010EB08006141002487EA115284EAE77398
:100400001A4340D0009A62B3019A012A4FEA075278
:1004100015DC001B61EB02014FF0004202EA0752BB
:10042000CDE90042001C41F5801132462B4600F018
:100430006BFA03B0BDE8F08F40462146F9E7001B98
:1004400061EB0201001C41F5801300185B4120188C
:10045000A2F5001747EB030140EAD570B6196D41CC
:1004600011E06D084FEA360645EAC0754FEA0752BB
:10047000001B61EB0201001C41F5801149084FEAA5
:1004800030000019514132462B4603B0BDE8F04F11
:1004900000F02BBA0098012240000023D0EB0202AA
:1004A00063EBE073009821464FEAE074B8EB00007C
:1004B00061EB0401E9E783F000435BE781F0004171
:1004C00058E72DE9FE4F81EA030404F0004421F0CF
:1004D000004100944FF0000B23F0004350EA010468
:1004E0005ED052EA03045BD0C3F30A54C1F30A5549
:1004F0002C44A4F2F3340194A0FB0254C1F3130181
:1005000041F48011C3F3130343F4801301FB02444D
:1005100000FB034E840A970A44EA815447EA835752
:10052000A4FB076802958D0A05FB07854FEA932C0B
:1005300004FB0C542705029D4FEA065847EA16377C
:10054000B5EB08056EEB070C870E920E47EA811794
:1005500042EA8312A7FB0201B6EB0B0164EB000435
:100560002B0D43EA0C335E1844EB1C50DA4651461F
:10057000E7FB0201C5F313044FEA0B3343EA1453BC
:100580004FEA0432019C43EA0603A4F10C040294EE
:10059000009CCDE900B400F0B7F903B0BDE8F08FDE
:1005A00000200146F9E72DE9F04D81EA030404F04B
:1005B000004B21F0004514464FF0000A23F00041A3
:1005C00050EA050220D054EA01021DD0C5F30A57B3
:1005D0000246C5F31303C1F31300C1F30A5640F4F6
:1005E000801543F48013A7EB0608101BD64608F2CB
:1005F000FD3873EB050002D308F1010801E0921801
:100600005B41B8F1000F03DA00200146BDE8F08D30
:1006100000204FF48011064684460EE0171B73EB52
:10062000050705D3121B63EB050306434CEA010CD7
:1006300049084FEA300092185B4150EA0107EDD1BA
:1006400052EA030012D082EA040083EA050108435B
:1006500005D0101BAB4106D20122002306E0002288
:100660004FF0004302E06FF0010253101AEB060056
:100670004CEB085110EB0A0041EB0B01BDE8F04DCB
:1006800000F033B9002801DBC0F10040002901DB94
:10069000C1F10041814201D801207047002070471C
:1006A000002801DBC0F10040002901DBC1F100415D
:1006B000814201D20120704700207047002801DBF1
:1006C000C0F10040002901DBC1F10041814201D1AC
:1006D0000120704700207047C10F80EAE070084495
:1006E000CA079623002100F0D2B8962300221146B3
:1006F00000F0CDB800F0004220F00040C10DC0F382
:10070000160040F400007F2901DA00207047962986
:1007100003DCC1F19601C84001E096398840002A07
:10072000F4D04042704720F00040C10DC0F31600E5
:1007300040F400007F2901DA00207047962903DC8D
:10074000C1F19601C840704796398840704700F063
:10075000004230F000400AD0C10D01F56071C0F3D5
:10076000160042EA0151C2084007114370470020B9
:100770000146704701F0004330B421F0004150EAD7
:10078000010206D00A0DA2F56072C1F31301002A1E
:1007900002DC30BC00207047440F44EAC104C100B1
:1007A000E01830BC00EBC25000F068B830B50B4622
:1007B000014600202022012409E021FA02F59D4291
:1007C00005D303FA02F5491B04FA02F52844151E65
:1007D000A2F10102F1DC30BD2DE9F05F05460020F9
:1007E00092469B4688460646814640241BE02846A2
:1007F000414647462246FFF7C6FC53465A46C01AB2
:10080000914110D311461846224600F016F82D1AD1
:1008100067EB01084F4622460120002100F00DF849
:1008200017EB00094E41201EA4F10104DFDC48460D
:1008300031462A464346BDE8F09F202A04DB203A91
:1008400000FA02F1002070479140C2F1200320FA23
:1008500003F3194390407047202A06DBCB17203A58
:1008600041FA02F043EAE07306E041FA02F3D040B5
:10087000C2F1200291400843194670470029A8BFE1
:100880007047401C490008BF20F00100704710B4B9
:10089000B0FA80FC00FA0CF050EA010404BF10BC6E
:1008A000704749B1CCF1200421FA04F411FA0CF19B
:1008B00018BF012121430843A3EB0C01CB1D4FEAD4
:1008C00000614FEA102042BF002010BC704700EBCF
:1008D000C35010440029A4BF10BC7047401C4900FD
:1008E00008BF20F0010010BC704710B5141E73F152
:1008F000000408DA401C41F1000192185B411A43E0
:1009000001D120F0010010BD2DE9F04D92469B462B
:1009100011B1B1FA81F202E0B0FA80F220329046D1
:10092000FFF78BFF04460F4640EA0A0041EA0B013D
:1009300053465A46084313D0114653EA010019D0D2
:10094000C8F140025046FFF71EFC05460E465046D1
:1009500059464246FFF771FF084305D0012004E0E5
:1009600020463946BDE8F08D0020054346EAE07692
:100970002C4337430A986305E40AA0EB08000022E1
:10098000FD0A44EA47540A3002D500200146E9E74F
:10099000010510196941DDE9084500196941BDE803
:1009A000F04DA2E770B521F0004303430CD0C1F332
:1009B0000A550024D5EB040564EB0403D617AD1AE1
:1009C000B34102DB0020014670BD201841EB02510B
:1009D00070BDC1F30A52C1F3130140F2FF3341F479
:1009E00080119A4202DA00200146704740F23343F8
:1009F0009A42A2F2334202DC5242FFF7C4BBFFF735
:100A00001CBF000030B5041E71F1000404DB4FF080
:100A10000044404264EB0101141E73F1000405DB45
:100A20001C464FF00043524263EB04038B4208BF65
:100A3000824230BD30B5041E71F1000404DB4FF07A
:100A40000044404264EB0101141E73F1000405DB15
:100A50001C464FF00043524263EB0403994208BF27
:100A6000904230BD064C074D06E0E06840F00103BF
:100A700094E8070098471034AC42F6D3FFF73AFBEE
:100A80008C560008AC5600082DE9F04D00231A469C
:100A90001B1A8A4103DB00200146BDE8F08DC1F33B
:100AA0000A52C1F3130141F480154FF0000BD10736
:100AB00002D100186D41521E0027044640F2FF117A
:100AC000384601EB620A3E468046024600204FF45B
:100AD0008011FFF758FBC2197141BB1846EB0100AA
:100AE000B4EB030C75EB000C04D3E41A65EB0005C2
:100AF00017460E46241908F101006D41804634283E
:100B0000E3DDF91946EB0600091BA84103D24FF0BB
:100B1000FF32134601E0002213461BEB070046EBB1
:100B20000A51BDE8F04DFFF7E0BEFEE77047EFF376
:100B3000108072B6FEE70000B0B5044600F0F2F88F
:100B400005469548611C007818BF044400F0EAF897
:100B5000401BA042FAD3B0BD2DE9FC4F5D4A5E4F69
:100B600003234FF0000A4FF001084FF00F0E4FF033
:100B700000090025904208BF022300930A6832FA58
:100B800005F308BFBDE8FC8F08FA05FC12EA0C0F5C
:100B900000F09C804A68032A16D9112A26D0122A0E
:100BA00028D04F4B9A4213D04E4B9A4210D04E4B06
:100BB0009A420DD04D4B9A420AD04D4B9A4207D0E3
:100BC0004C4B9A4204D022E0DFE802F002181B1FCF
:100BD0008A6842B1012A14BFC0F814C0C0F810C01E
:100BE0004FF0080913E04FF0040910E0CA6802F161
:100BF00004090CE0CA6802F10C0908E0D1F80C9075
:100C000005E0CA6802F1080901E04FF00009524608
:100C10000446082D28BF203A28BF043426680EFA5F
:100C200002F309FA02F226EA03031A432260CA79A0
:100C3000D2064BD5674AA7F57E761346126842F076
:100C400001021A601A6802F0010201920AF00C0215
:100C5000019C0EFA02F3BE46AC0856F8247027EA4F
:100C6000030B254B984205D0244B9842009B08BFAC
:100C7000012300E0002303FA02F277464FF00F0E43
:100C800042EA0B0246F82420144E4A68D302BB689D
:100C900054BF23EA0C0343EA0C03BB60930233689E
:100CA00054BF23EA0C0343EA0C03336093037B68CD
:100CB00054BF23EA0C0343EA0C037B60D2033A6877
:100CC00054BF22EA0C0242EA0C023A600AF1040A1A
:100CD000013553E700100140000401400C040140BD
:100CE000000011100000121000002110000022105E
:100CF000000031100000321000080140000C0140DB
:100D00008068084018BF01207047C26802EA0103EA
:100D1000914341EA034101617047002A08BF090479
:100D20000161704705480068704700BF1A480349D1
:100D300000780A6810440860704700BFBC000020BB
:100D400080B58948016841F010010160032000F07E
:100D500063F80F2000F004F800F020F8002080BDB8
:100D600070B50D4E04464FF47A713078B1FBF0F057
:100D70008A490968B1FBF0F000F0D2FA01250F2C86
:100D800008D838B94FF0FF3021460022002500F086
:100D900025F87460284670BD0800002082B00D4818
:100DA0000222016841F001010160016801F00101C6
:100DB00001910199416841F080514160406800F023
:100DC0008050009000980448016862F31A61016045
:100DD00002B07047181002400400014080B5144B67
:100DE0001B68C3F3022CBCF1030E8CF007034FF019
:100DF000FF3C38BF4FF0000E042B28BF04230CFA31
:100E000003F399430CFA0EF301FA0EF19A431143DE
:100E1000BDE8804000F0BEBE05494FF6FF030A68FA
:100E20001A4060F30A22034810430860704700BF6D
:100E30000CED00E00000FA052DE9F843002800F071
:100E40008E80884648490446086800F007004045FF
:100E50000AD2086820F0070040EA08000860086825
:100E600000F0070040457AD120685C4B8946810735
:100E700011D5410742BF196841F4E06119600107CB
:100E800042BF196841F4605119601968A26821F0E5
:100E9000F00111431960C0072AD06068012804D10D
:100EA00053F8041C890309D459E053F8041C0228A0
:100EB00002D1890102D452E0890750D519681D4634
:100EC00021F0030108431860FFF72CFF064641F2AA
:100ED0008837286861682B4600F00C00B0EB810F62
:100EE00006D0FFF71FFF801BB842F2D9032037E07E
:100EF000D9F8000000F0070040450DD9D9F80000EE
:100F000020F0070040EA0800C9F80000D9F8000006
:100F100000F00700404522D12068410705D5196837
:100F2000E26821F4E06111431960000706D51868F2
:100F3000216920F4605040EAC10018601C4600F0AE
:100F400031F82168094AC1F30311515CC840F249E4
:100F5000086007480068FFF703FF002000E0012059
:100F600001B0BDE8F08300BF002002402E4A000817
:100F70000C000020E8481949094A00680968C1F3D3
:100F80000221515CC8407047E3481449044A006894
:100F90000968C1F3C221515CC840704710000020AD
:100FA0003E4A000810B50D4C0D48226802F00C03B3
:100FB000082B18BF10BDC2F383430AA1CB5CD10339
:100FC00002D40D48584310BD21680AA25843C1F30A
:100FD0004041515CB0FBF1F010BD00BF0410024075
:100FE00000127A0002030405060708090A0B0C0D1B
:100FF0000E0F10100102000000093D002DE9FC4118
:10100000002800F0408104460078C14EC0074AD055
:10101000706800F00C00042817D0706800F00C0015
:10102000082802D17068C0030FD4606898B1B0F589
:10103000803F06D03168B0F5A02F21D141F4802047
:101040003060306840F4803020E0306880032AD57A
:10105000606840BB17E1306820F480303060306851
:1010600020F480203060FFF75DFE05463068800385
:1010700019D5FFF757FE411B03206429F6D903E178
:1010800021F480303060306820F480203060FFF739
:1010900049FE05463068800305D4FFF743FE401B38
:1010A0006428F7D9D1E0207880072BD5706810F03C
:1010B0000C0F07D0706800F00C00082809D1706888
:1010C000C00306D43068800715D52069012812D0E6
:1010D000D9E021698F4800297CD001210160FFF708
:1010E00021FE05463068800705D4FFF71BFE401B34
:1010F0000228F7D9A9E03068616920F0F80040EAD9
:10110000C1003060207800072ED5A06978B18148F1
:101110000121C0F88014FFF705FE0546706A8007BC
:1011200015D4FFF7FFFD401B0228F7D98DE0794861
:101130000021C0F88014FFF7F5FD0546706A8007AE
:1011400012D5FFF7EFFD401B0228F7D97DE072486A
:101150004FF4FA510068B0FBF1F0019000BF019824
:10116000411E00280191F9D12078400776D5F06919
:10117000C0000BD4F0694FF0010840F08050F061DE
:10118000F06900F080500090009801E04FF00008F6
:10119000624F3868C0050FD4386840F480703860FA
:1011A000FFF7C0FD05463868C00505D4FFF7BAFD56
:1011B000401B6428F7D948E0E068D8B1012805D081
:1011C000316A05282DD141F004003062306A40F0C8
:1011D00001002CE000210160FFF7A4FD0546306806
:1011E00080077FF58FAFFFF79DFD411B032002298C
:1011F000F5D949E0306A20F001003062306A20F011
:1012000004003062FFF78EFD054641F28837306AF0
:1012100080071CD5FFF786FD411B0320B942F6D994
:1012200032E021F001003062306A20F004003062C8
:10123000FFF778FD054641F28837306A800706D40B
:10124000FFF770FD401BB842F7D903201CE0B8F14E
:10125000000F1EBFF06920F08050F061E769002F99
:1012600053D0706800F00C00082810D1012F0AD06C
:101270007068216A00F480328A4204D1616A00F405
:101280007010884241D0012002B0BDE8F0812149B0
:10129000002088460866FFF745FD0546022F0AD163
:1012A00047463068800110D5FFF73CFD411B032005
:1012B0000229F6D9E8E73068800126D5FFF732FD2C
:1012C000411B03200229F6D9DEE7206AB0F5803FF2
:1012D00005D17168A26821F4003111437160716811
:1012E000626A104321F4741108437060012038666B
:1012F000FFF718FD04463068800106D4FFF712FDA1
:10130000011B03200229F6D9BEE70020BCE700BF7D
:101310000010024000004242100000200070004017
:10132000411E0020B0EB116F1CBF01207047044A22
:10133000F023516003490B700721906011607047E2
:1013400010E000E023ED00E058B310B5044690F83B
:10135000410028B9002084F84000204600F024F81D
:10136000242084F841002068C16821F40051C16044
:10137000204600F095FB2068016921F4904101614D
:10138000416921F02A014161C16841F40051C16005
:1013900000202021606484F8411084F842106063CA
:1013A00010BD01207047000070B586B000261A4CB1
:1013B000CDE90466CDE90266006804F54051884233
:1013C00027D15C4802AD016841F4804101600168A9
:1013D00001F4804101910199016841F0040101602B
:1013E0002946006800F00400019001980320059050
:1013F000022003904FF4007002902046FFF7ACFBF0
:101400004FF48060CDE90366294602902046FFF73D
:10141000A3FB06B070BD00BF000801402DE9F843F2
:10142000044690F8410020281DD18846012000295B
:1014300047D01746002A44D04FF0000921201D460E
:10144000C4F8449084F84100FFF76CFCE784A7845B
:101450000646A068B0F5805F07D12769002F0CBF52
:10146000C146474619E002202BE0474615E02046DA
:10147000802132462B4600F055FBF0B91FB117F81A
:10148000011B206805E039F8021B206800276FF374
:101490005F214160E08C0138E084E08C0028E6D1D7
:1014A0002046402132462B4600F03CFB20210028FC
:1014B00084F8411018BF032003E0202084F8410085
:1014C000032001B0BDE8F083FEE70000B0B5774C23
:1014D000774D4FF4007100222046A84720464FF474
:1014E00080710122A84720464FF480710022A8474E
:1014F00020464FF4007101222B46BDE8B04018474A
:10150000F8B50C48016841F00801016069460068BF
:1015100000F0080000900098032003904FF4407002
:101520000090112001906148FFF716FB00F08AF847
:101530008FBD00BF18100240B0B55C4C5C4D4FF43D
:10154000007101222046A84720464FF480710122F5
:10155000A84720464FF4807100222B46BDE8B040DA
:10156000184700BF2DE9F041504D80460024002768
:1015700017E028464FF480710122FFF7CEFB284682
:101580004FF40071FFF7BCFB064628464FF480710C
:101590000022FFF7C2FB002E18BF012646EA4707CC
:1015A0000134072CE5D9B8F1000F02D0FFF78EFF08
:1015B00001E0FFF7C1FFF8B2BDE8F08170B5F74D6B
:1015C00004460026072E88BF70BD60B24FF400713C
:1015D000B0F1FF3F2846CCBF00220122FFF79DFB60
:1015E00028464FF480710122FFF797FB28464FF4FD
:1015F00080710022FFF791FB072E05D128464FF49A
:1016000000710122FFF789FB01366400DAE700BFB1
:10161000B0B5E24C264D4FF4007101222046A84798
:1016200020464FF480710122A84720464FF40071F4
:101630000022A84720464FF4807100222B46BDE8C7
:10164000B0401847B0B5D54C194D4FF40071002289
:101650002046A84720464FF480710122A847204623
:101660004FF4007101222B46BDE8B040184700BF7F
:1016700070B5CA4C0E4E4FF4007101222046B0479F
:1016800020464FF480710122B04720464FF400718C
:10169000FFF736FB054620464FF480710022B04725
:1016A000002D18BF0125284670BD00BF000C014069
:1016B0001B0D000810B5FFF723FF1A4C6B2080218B
:1016C000A0476420FFF738FA6B200021A0470320D1
:1016D00000F080F8002000F078F8642000F096F820
:1016E00038200021A0476A200021A04723200021A4
:1016F000A04737208021A047752000F015F8682802
:101700000CD16B20012100F098F86C2000210024FE
:1017100000F093F8642000F079F800E001242046FE
:1017200010BD00BF3B18000870B50446FFF770FFFE
:101730000A4DD020A8470A4EB0472046A847B047D8
:10174000FFF766FFD120A847B0470020FFF70AFF48
:101750000446FFF777FF204670BD00BFBD150008A7
:1017600071160008F8B51C4615460E460746FFF7E9
:101770004FFF7F00F8B2FFF721FFFFF779FF18B1A5
:10178000FFF760FF01201EE03046FFF717FFFFF76D
:101790006FFFFFF73DFF47F00100C0B2FFF70EFFFC
:1017A000FFF766FF07E0012000E00020FFF7DAFE08
:1017B00004F8010B013DE8B20128F6D00028F2D16F
:1017C000FFF740FF002001B0F0BDC000C1B21C20F7
:1017D00000F033B8C000C1B21B2000F02EB8BB2807
:1017E00001D901210FE0612801D902210BE029284C
:1017F00001D9032107E0132801D9042103E00621C0
:10180000092888BF05211A2000F017B810B5044632
:1018100004284FF47A7098BF0424B4F57A7F28BF67
:101820000446B0FBF4F00138C1B2192000F005F80D
:101830006008BDE81040FFF7D2BFB0B50C460546C2
:10184000FFF7E6FED020FFF7B9FEFFF711FF18B152
:10185000FFF7F8FE0120B0BD2846FFF7AFFEFFF707
:1018600007FF2046FFF7AAFEFFF702FF0446002805
:1018700018BF0124FFF7E6FE2046B0BDF8B51C46B0
:1018800015460E460746FFF7C3FE7800C0B2FFF7C5
:1018900095FEFFF7EDFE78B93046FFF78FFEFFF7B4
:1018A000E7FE0026AE420BD2A05DFFF787FE0136B1
:1018B000FFF7DEFE0028F5D0FFF7C4FE012002E0AE
:1018C000FFF7C0FE002001B0F0BD00002DE9F0439D
:1018D00085B0314800224FF400554FF000080168F0
:1018E00041F010010160016801F0100101910199BE
:1018F000016841F020010160016801F020010191BF
:101900000199016841F004010160016801F00401DE
:1019100001910199016841F0080101604FF4005103
:10192000006800F00800019001981C4800F58066EE
:1019300081463046FFF7F1F948464FF45C710022CA
:10194000FFF7EBF902200124154FCDE90380CDE923
:10195000015401AD30462946B84703267020294678
:101960000496CDE9024801904846B8470D48CDF8A5
:101970000C8029460290802001904846B8471120EB
:10198000CDE90386294602904FF440700190484605
:10199000B84705B0BDE8F08318100240000C0140C4
:1019A000590B00080000111010B50B485C4C4FF4A7
:1019B000E13300210C22C0E90043C0E90211C0E973
:1019C0000412C0E90611FFF7BFFC002814BFBDE8F0
:1019D000104010BDFFF7ABB874000020FEE7FEE733
:1019E00070477047FFF7A2B9B0B590B0002401A8C6
:1019F0001421CDE90B44CDE90944FEF7DBFB4FF49C
:101A0000E010022501210F904FF480300E900D95CB
:101A10000A910894CDE9061006A8FFF7EFFA18B16D
:101A2000EFF3108072B6FEE74FF480600594022158
:101A3000CDE903400F20CDE9010501A8FFF7FCF92E
:101A400018B1EFF3108072B6FEE710B0B0BD70476A
:101A5000016851E8031F026821F4907142E8031302
:101A6000002BF5D1016851E8051F026821F0010142
:101A700042E80513002BF5D1016B012909D101685A
:101A800051E8031F026821F0100142E80313002B04
:101A9000F5D1202180F84210002101637047000039
:101AA00010B5044600680169E26821F44051114311
:101AB00041F20C620161D4F808C0D4E904E3C168C2
:101AC00091434EEA0C021A431143C1604169A26975
:101AD00021F44071114341611149884202D0FFF75E
:101AE00049FA01E0FFF750FA19214843D4E90012FE
:101AF0006FF063049200B0FBF2F06422B0FBF2F3EB
:101B000003FB0400322404EB0010B0FBF2F000F001
:101B1000F00200F00F0002EB03121044886010BDC9
:101B2000003801402DE9FC41044600681D469046FE
:101B30000F465E1C01683940B94225D0002EF9D00D
:101B4000FFF7F0F801460320FDB1A1EB0801A9421F
:101B50001BD82068C1684907ECD5402F18BF802FDB
:101B6000E8D001680907E5D50025019501680191D4
:101B70004068019001982046FFF76AFF082084F82A
:101B800040506064012000E0002002B0BDE8F08118
:101B9000FEE7000010B5074C00F00F03044AB0F157
:101BA000FF3F2344C8BF83180801187010BD00BF51
:101BB00000E400E014ED00E0E0B500280CBF4FF0B9
:101BC000A3300648019001AA042140F69E2001F0AE
:101BD000E3FD01F0ADF902B080BD00BF2028303830
:101BE0002DE9FE43044676480DF10205754F0421A8
:101BF0002A46CDF802006820B847A3204AF2A33154
:101C00006FF05C0214F4C0798DF80B00ADF8091088
:101C100018BF6FF039028DF808206FF05C016FF08B
:101C20005C0218BF6FF033028DF807206FF05C0282
:101C300018BF6FF03B028DF8062014F040066FF0DD
:101C40005C0218BF6FF03D028DF805206FF05C025A
:101C500018BF6FF037028DF8042018BF6FF03F01F6
:101C60008DF803108DF8020040F6A7200A212A46BD
:101C7000B8476FF0270014F003084FF001012A461F
:101C800018BF20208DF8020040F6B620B847A00605
:101C900054BF0020012000F099F8B9F1000F25D0C1
:101CA0006FF0640114F480700DF1020208BF6FF050
:101CB0006F018DF805106FF0490108BF6FF04B01FF
:101CC0008DF8041000286FF04D006FF0740108BF0C
:101CD0006FF07F018DF8031008BF6FF04F008DF893
:101CE000020040F6A220042101F056FDE0070AD1CF
:101CF000D8200DF1020201218DF802004FF40B6093
:101D000001F04AFD24E0F8200DF1020201218DF8D6
:101D100002004FF40B6001F03FFD0720FA2100F0B4
:101D200089FA072000F057FA012000F06FFA6420CA
:101D300000F010FB4FF4FA7000F01EFB2248C8219F
:101D400000F00CFA282000F022FA0A2000F031FA04
:101D5000A0070DF102024FF001016FF0260058BFFD
:101D60006FF027008DF8020040F23D7001F014FD85
:101D7000600754BF0020012000F04CF8E00654BF7B
:101D800000200120FFF718FFA34D44F00800002EAB
:101D9000A88018BF0626B9F1000F18BF063614F048
:101DA000140F18BF46F01006B8F1000F18BF043624
:101DB00001F0BEF82E70002003B0BDE8F08300BF34
:101DC00002CAE3099937000809E3CA02F8B520B14D
:101DD0000AA041680291094903E00BA04168029101
:101DE0000949007A019101AA09218DF80C004FF4EC
:101DF000976001F0D1FC04B080BD00BFB8AAB38DDC
:101E0000B4980D355D000000B8AAAAAAB088C3C571
:101E1000C7000000E0B500280CBF4FF08B3006482B
:101E2000019001AA042140F6982001F0B5FC01F0D0
:101E30007FF802B080BD00BFC0C2C4C6034940F6EF
:101E4000F6304FF48062C82300F036BF464A0008DF
:101E50002DE9F04F89B0DDF848A0834600206E4F91
:101E600014460DF10408139A89461E464146AAF805
:101E70000000387800F0DAFF10B14FF0FF30C7E013
:101E8000B7F804C01CF0140F52D09DF805209DF83F
:101E900004109DF80630B6469DF80760120442EA29
:101EA000016141EA03220914324422609DF809309D
:101EB0009DF808209DF80A609DF80B501B0443EA2A
:101EC000026242EA062312142B445243636001FB70
:101ED00001219DF80D609DF80C309DF80E509DF885
:101EE0000F00360446EA036343EA05261A14304419
:101EF00002FB0211A0609DF811609DF810009DF892
:101F000012509DF81370360446EA006040EA052638
:101F1000001400FB0010374400F17140E760B0F19D
:101F2000007F07D901F004F80020AAF80000A4E718
:101F3000002108E0BAF80000374F1021764640F43F
:101F40008070AAF800005FEA4C6029D541F00102D8
:101F500018F8010018F8022042EA002041F00302BC
:101F6000A9F8000041F0020018F8000018F802205B
:101F700042EA002041F00502A9F8020041F0040005
:101F800041F0060118F8000018F8022042EA00208B
:101F9000A9F80400BAF8000040F00800AAF8000010
:101FA0001CF4C07F18D038F8010000BA000CABF860
:101FB000000008EB01000631428812BA120CABF89F
:101FC0000220808800BA000CABF80400BAF80000C8
:101FD00040F07000AAF800005FEA8C7014D008EBA3
:101FE00001056878EC78C10708D0BA6832B104F00E
:101FF0000701C4F3C200013190476878000703D598
:10200000F96809B1A0098847304600F0DFFB0020DD
:1020100009B0BDE8F08F00BF5C00002010B586B0AD
:10202000044614A0D0E90110C82CCDE904101148D1
:10203000039017D8E0B2C82101AAB1FBF0F0022149
:1020400001388DF80500000A8DF8040040F21620D2
:1020500001F0A2FB30B903AA40F6C1200C2101F027
:102060009BFB18B14FF0FF3006B010BD0448048050
:102070000020F9E7FEF2ABC4AAF1DFDFBBAFDFDF80
:10208000700000201CB532490446C0F381100A5C80
:102090008DF80620C4F3C1028B5C8DF8053004F086
:1020A0000303C95C8DF804102A49085C8DF802000E
:1020B000885C01AA8DF80100C85C03218DF800003E
:1020C00040F2264001F068FBD0BB6A4640F22A404D
:1020D000032101F061FB98BB76208DF8060045F2E4
:1020E0003660ADF8040066208DF8020044F22660E8
:1020F000ADF80000600705D527208DF800003720D7
:102100008DF80400A00605D547208DF80100572062
:102110008DF80500E00505D567208DF802007720D1
:102120008DF8060001AA4FF48860032101F034FB0A
:1021300030B96A4640F23140032101F02DFB18B15D
:102140004FF0FF3002B010BD034804800020F9E7D3
:102150002B4A0008284A00086C000020E0B54FF424
:102160007A7290FBF2F001AA4843010A8DF8070049
:102170008DF80610010C000E8DF805108DF8040086
:102180004FF4AE70042101F007FB02B080BDE0B552
:1021900005210DF10602B0FBF1F002218DF80700D8
:1021A000000A8DF806004FF4AD7001F0F5FA02B0A8
:1021B00080BDE0B505210DF10602B0FBF1F0022172
:1021C0008DF80700000A8DF806004FF4AC7001F09E
:1021D000E3FA02B080BDE0B500F0010241088008DA
:1021E000524202F0300261F3820261F3C302012124
:1021F00060F3000260F341024FF4A4708DF80720F1
:102200000DF1070201F0C8FA02B080BDE0B5042864
:1022100001460DF1070228BF0421002818BF481EFF
:102220008DF8070040F24F10012101F0B5FA02B01D
:1022300080BD00007CB504464FF0FF30B1F5C86F9B
:1022400000F27B800D4614F0070100F076800DF15E
:10225000030000F013FC2846FEF747FA3849FEF762
:102260004BF805469DF8030002384FEA70024FF024
:10227000FF30072A61D833494FF08D46DFE802F07E
:102280000F045D085D5D5D0C31494FF08C4606E042
:102290002E494FF08B4602E02B494FF08A462846E4
:1022A000FDF7F8FFFEF73FFA8DF80700000A314608
:1022B0008DF806002846FDF7EDFFFEF734FA8DF89D
:1022C0000500000A8DF8040001A8851CE00705D16F
:1022D000A00712D460071FD400202EE001AA4FF4FB
:1022E000EA70022101F058FA28BB4FF492700221E3
:1022F0002A4601F051FAF0B9EAE701AA4FF4EC706E
:10230000022101F049FAB0B94FF4947002212A4633
:1023100001F042FA78B9DDE701AA4FF4EE7002212C
:1023200001F03AFA38B94FF4967002212A4601F0CA
:1023300033FA0028D0D04FF0FF3002B070BD00BF9C
:1023400000004843000040460000C04400004045F3
:102350000000C045E0B505210DF10602B0FBF1F02B
:1023600002218DF80700000A8DF806004FF4EF7087
:1023700001F012FA02B080BDE0B505210DF10602B0
:10238000B0FBF1F002218DF80700000A8DF806007D
:102390004FF4ED7001F000FA02B080BDE0B501909D
:1023A000044801A901224FF47A73FFF737F8019826
:1023B00002B080BD740000202DE9FF4705460120D2
:1023C000C64F16460C4601ABADF80400D7E9000233
:1023D000817C10780222FFF751FA002840F07881C2
:1023E000C820FEF7A9FB002001AB8DF80400D7E957
:1023F0000002C17B10780122FFF740FA002840F06C
:102400006781D7E9000201AB417910780122FFF71B
:1024100035FA002840F05C81D7E9000201AB817CED
:1024200010780122FFF72AFA002840F05181D7E9FD
:10243000000201ABC17D10780122FFF71FFA0028CE
:1024400040F04681D7E9000201AB01791078012202
:10245000FFF714FA002840F03B810C2001AB8DF807
:102460000400D7E90002017910780122FFF706FA8B
:10247000002840F02D810F20FEF75EFBD7E9001009
:10248000BA6A01AB527A8DF804200122007889786B
:10249000FFF7F4F9002840F01B81D7E90010BA6A71
:1024A00001AB127A8DF80420012200784978FFF7F9
:1024B000E5F9002840F00C81D7E90010BA6A002E37
:1024C00001AB927A18BF42F0E0028DF80420007848
:1024D00089790122FFF7D2F9002840F0F980002E17
:1024E0000FBF1820B86AC07A60F01F008DF8040092
:1024F00001ABD7E90002C17910780122FFF7BEF9DC
:10250000002840F0E58016B1C820FEF715FB4020FA
:1025100001AB8DF80400D7E900020179107801229F
:10252000FFF7ACF9002840F0D380782001AB8DF89C
:102530000400D7E90002417910780122FFF79EF9E3
:10254000002840F0C5803220FEF7F6FA002001ABEB
:102550008DF80400D7E90002417910780122FFF7D5
:102560008DF9002840F0B480D7E9000201AB817AF0
:1025700010780222FFF7F6F8002840F0A9809DF8B5
:1025800004009DF805104FF0000A0DF10409C5E99B
:1025900000AAC5F808A0C4E900AAC4F808A041EA46
:1025A00000200C21B0FBF1F05FFA80F833E0D7E9AE
:1025B00000024B46C17A10780C22FFF7D3F80028AE
:1025C00040F08680BDF8040094E80E00BDF8066077
:1025D0000AF1010A00BA36BA01EB2040BDF8081032
:1025E00002EB2642C4E9000209BA03EB2141A160D3
:1025F00095E80700BDF80A30BDF80C601BBA36BA82
:1026000000EB2340BDF80E3001EB26411BBA02EB74
:10261000234285E807005FFA8AF08045C7D895E82D
:102620008102832200230026C117090441EA1041D8
:102630000004FDF777FD42460023FDF773FD286097
:10264000F81783220023000440EA17413804FDF7FD
:1026500069FD42460023FDF765FD68604FEAE970B9
:1026600083220023000440EA19414FEA0940FDF7A4
:1026700059FD42460023FDF755FDA8604246002360
:10268000D4E90007A568C117490141EAD0614001BA
:10269000FDF748FD2060F81742460023400140EA5C
:1026A000D7617801FDF73EFD6060E81742460023E0
:1026B000400140EAD5616801FDF734FD4FF48031F7
:1026C0000028C4BF0021CFF6FF710844A06001E0DC
:1026D0004FF0FF36304604B0BDE8F0872000002000
:1026E00070B5074E0446B0470546E01CB04745EAC2
:1026F000C005A01DB04745EA801080B270BD00BF84
:102700000527000890F90010002901DD002070471E
:10271000BCBF0420704790F90110002901DD0120A1
:102720007047BCBF0520704790F90200002801DD0A
:10273000022070474FF0060008BF072070470000D6
:1027400084B0FEF7FDFAFFF74FF9FFF7BFF8FFF788
:102750002BF9FEF7AFFF00F049F9DFF858B00BF1A5
:1027600004090BF1080A58464946524600F056F84B
:1027700011484FF40051FEF7C8FA6420FEF7DCF967
:10278000DBE90070DBF80850FDF7E1FF064628465C
:102790000C46FDF7DCFF054638468846FDF7D7FFB7
:1027A000024606A00B46CDE90064CDE9025801F0CF
:1027B00089F8D8E75000002000100140252E32662D
:1027C0002C252E32662C252E32660A00704700001A
:1027D00070B5EF4D95F8241009B100241CE0A97ADA
:1027E00081B100F0FE002E7C01400C1A297418BF44
:1027F0004FF0FF3448B1012001F03EF800F098FBA3
:1028000050B12E744FF0FF3406E0287D00280CBF35
:102810000020012001F030F8204670BD2DE9F04F76
:102820008FB00E4605460DF129000DF12A01144620
:1028300006AA0EABCDE900100DF132000BA9FFF78F
:1028400007FB08B10120CCE0BDF82A00C00501D487
:102850000220C6E0059406980496079CDDE9086707
:10286000FDF73AFF4FF04251FDF714FD8046204638
:10287000FDF732FF4FF04251FDF70CFD8346304625
:10288000FDF72AFF4FF04251FDF704FD044638469C
:10289000FDF722FF4FF04251FDF7FCFC064658467B
:1028A0004FF04041FDF7F6FC314681460296FDF7B8
:1028B000F1FC074640464146CDF80C80FDF792FCFE
:1028C00021468046FDF7E6FC3946FDF78BFCFDF717
:1028D0003EFF01F0F3FC444B4FF06632FDF7F1FD93
:1028E000FDF748FF286020462146FDF77BFC314676
:1028F0008246FDF7CFFC054640465946FDF7CAFC27
:102900002946FDF76FFCFDF722FF05460F465846A6
:102910004946FDF7BFFC064620465146FDF7BAFC86
:1029200001463046FDF7B0FC4FF07E51FDF75AFCF2
:10293000FDF70DFF02460B462846394601F006FF1B
:10294000294B4FF066329946FDF7BBFDFDF712FFAC
:102950000499086058462146FDF79CFC029F039E9F
:10296000054630463946FDF795FC01462846FDF7F9
:1029700039FC0146FDF736FCFDF7E9FE05468846C1
:1029800030463146FDF786FC064658465946FDF767
:1029900081FC01463046FDF725FC064620462146CF
:1029A000FDF778FC01463046FDF76EFC04463846DC
:1029B0003946FDF76FFC01462046FDF765FCFDF743
:1029C000C6FE02460B462846414601F0BFFE4FF0C8
:1029D00066324B46FDF775FDFDF7CCFE05990860A4
:1029E00000200FB0BDE8F08F66A64C4080B5FEF722
:1029F00087FD00F0CFF808B10A2080BD782000F0F4
:102A00007DFE00061CBF012080BD7820FFF7E0FEA0
:102A100000061CBF022080BD642000F02FFE0006CF
:102A20001CBF032080BDFFF709FA00061CBF04206D
:102A300080BD1148FFF754FEFFF724FB00061CBFC2
:102A4000052080BD40F27310FFF7CAF800061CBFD6
:102A5000062080BD6420FFF7E1FA00061CBF0720B6
:102A600080BD00F0C9FE012000F034FDC0B2002896
:102A700018BF092080BD00BF14000020EA494A7A2F
:102A8000032A84BF4FF0FF307047054BD200D3407C
:102A90000370C97C11B10349D14001700020704717
:102AA000020408100408102080B5DFF814CE9CF84A
:102AB0000910032984BF4FF0FF3080BD4FF4005E42
:102AC0004FF48043DFE801F01002070C40F6CE7EA1
:102AD00041F69C7308E04FF4006E4FF4805303E01E
:102AE0004FF4806E4FF4006303809CF8131009B11B
:102AF000A0F800E0002080BDF3490A7A032A07D835
:102B0000FA21DFE802F00C02070A4FF4FA7106E03E
:102B1000002104E04FF47A7101E04FF4FA61018082
:102B200000207047E8490A7A032A84BF4FF0FF303B
:102B300070470649DFE802F007020406064902E092
:102B4000044900E00249016000207047000003438F
:102B5000333383413333034200008342F349C97A5C
:102B60004A1E052A07D8BC21DFE802F00E03070938
:102B70000B0D622108E0002106E02A2104E0142167
:102B800002E00A2100E0052101800020704700BF1B
:102B900020000020BCB58020E44D0DF102038DF82B
:102BA0000200D5E90002817C10780122FEF766FE62
:102BB000C8B96420FDF7C0FF00200DF102038DF8B5
:102BC0000200D5E90002817C10780122FEF756FE52
:102BD00048B9D5E900020DF10203817D1078062283
:102BE000FEF7C0FD20B14FF0FF34204602B0B0BD6B
:102BF0009DF807209DF803009DF80510920000F055
:102C0000010061F34102104410F0070005D00128D3
:102C100015D00228E7D1002012E0D5E900020DF11D
:102C20000203C17810780122FEF79CFD0028DAD15A
:102C30009DF8020010F00F00D5D00428EBD1012040
:102C4000FF214FF0FF34A97429744FF6FF71E98119
:102C5000E874012085F8220028730020AC602884E5
:102C6000C5E90500E86185F82700C5F823004FF4A1
:102C7000FA6000F06FFC0028B7D1022000F082FB60
:102C80000028B0D12A2000F0C9FC0028ABD13220A6
:102C900000F0F4FC0028A6D10020FFF799FD0028E1
:102CA000A1D1002000F0A8FB00289CD10020002426
:102CB00000F024FD99E700BF2DE9F04F87B00746EB
:102CC0004FF0FF30002943D08B46F34991F825108F
:102CD000F1BB4FF000080DF10C0ACDE900321FFAEC
:102CE00088F6BE4221D2A7EB06090BEB060530465B
:102CF000B9F1100FA8BF4FF010091FFA89F42A4646
:102D0000214600F049FD08BB30462146524600F0FE
:102D1000DDF8D8B9284651462246FDF756FAC84490
:102D20000028DCD06FF0010012E00198DA4C0DF1C0
:102D30000A038DF80B00000A8DF80A00D4E900029E
:102D4000817E10780222FEF799FD20B14FF0FF300E
:102D500007B0BDE8F08F0098E084012084F82500DA
:102D60000020F5E7BCB528284ED8044678B10120EC
:102D700000F028FC2020012C8DF806001CD100203A
:102D80008DF80700052000F049FC07202FE0002007
:102D9000002400F017FC4FF4E060BF4D0DF1060376
:102DA000ADF80600D5E90002817C10780222FEF71A
:102DB00065FD48BB2C7529E0052C07D801208DF84E
:102DC0000700052000F02AFC472010E0142C07D84B
:102DD00002208DF807000A2000F020FC872006E082
:102DE00003208DF80700142000F018FCC720AA4D1E
:102DF0008DF807000DF10603D5E90002817C1078FB
:102E00000222FEF73BFD20B14FF0FF34204602B016
:102E1000B0BD01200024287508202C73A872002062
:102E2000FFF7D6FCF2E700BF200000202DE9FC41AF
:102E3000994F0E4605464FF0FF3097F82410A1B386
:102E4000B97A91B31446D7E900020DF10603817AED
:102E500010780222FEF786FC28BB9DF806009DF83C
:102E6000071041EA0028A84502D2002020701AE08D
:102E700078684188B8EB510F0DD9396800780DF1A9
:102E800006030122497CFEF76DFC60B99DF806003F
:102E9000C00613D4786839680078EAB23346C97A34
:102EA000FEF760FC20B14FF0FF3002B0BDE8F081CA
:102EB000B8FBF5F0013820700020F6E700F038F894
:102EC0006FF00100F1E700BF200000207CB50D4647
:102ED00001464FF0FF3032B36F4E1446B27A12B350
:102EE000080A8DF807108DF80600C8B241197068FD
:102EF0004289914208D8316800780DF10603022218
:102F0000097EFEF7BBFC10B14FF0FF300BE0D6E9B5
:102F100000022346417D1078EAB2FEF723FC002828
:102F200018BF4FF0FF3002B070BD00BF200000207E
:102F30001CB5594CA07A00B300200DF107038DF8A1
:102F40000700D4E90002C17B10780122FEF796FC4D
:102F500098B9D4E900020DF10703417910780122F4
:102F6000FEF78CFC48B9D4E900020DF107030179A2
:102F700010780122FEF782FC18B14FF0FF3002B04A
:102F800010BD94F82400F0B30C200DF107038DF868
:102F90000700D4E90002017910780122FEF76EFCE7
:102FA0000028EAD13220FDF7C7FDA07A0DF1070312
:102FB000C0076FF01F0008BF6FF03F008DF80700DB
:102FC000D4E90002017910780122FEF757FC0028AD
:102FD000D3D1607C0DF10703002818BF0120400009
:102FE0008DF80700D4E90002C17B10780122FEF7BA
:102FF00045FC0028C1D100200DF107038DF8070022
:10300000D4E900023DE004200DF107038DF807002C
:10301000D4E90002017910780122FEF72FFC002884
:10302000ABD1A07C08B1402005E0A07AC0074FF0EA
:10303000600008BF40208DF807000DF10703D4E9B8
:103040000002017910780122FEF718FC002894D1C3
:103050003220FDF771FD607C0DF10703002818BFD9
:1030600001208DF80700D4E90002C17B107801220D
:10307000FEF704FC00287FF480AFD4E9000204F1DD
:103080001003417910780122FEF7F8FB00287FF445
:1030900074AF002073E700BF200000202DE9F04F3F
:1030A00093B0DFF81CB805908A469BF8240020B145
:1030B000002000F00FFA012700E0002707A8FFF723
:1030C0001BFD0DF11F00FFF7D9FC0DF11A00FFF7F2
:1030D00045FD9BF80A509BF81090BBF80E60002449
:1030E00006E0059851460022FFF766F920B1013449
:1030F000012CF6D9022C0ED000240DF1200806E098
:103100000BA841460122FFF757F930B10134012CD9
:10311000F6D9022C01D10024F5E0CDE90165CDE915
:10312000039712AB0D210422DBF804000078FEF7B0
:1031300019FBD8BB9DF848009DF84B301C279DF823
:1031400049109DF84A20864C0DF138090DF1450BC8
:1031500007EAD000C3F30116304400268DF845007D
:1031600007EAD100C3F38101084403F003018DF89D
:10317000460007EAD20008448DF8470014E01BF827
:10318000065009EB860765B1744802E02146FDF759
:1031900081F8013D2906F9D1386000200BF80600BE
:1031A00001E0002038600136032EE8D1704E002780
:1031B0000DF1380B002445462FE055F824005AF84D
:1031C0002410081A48BF4042FDF786FA4FF05E51BE
:1031D000FDF760F8DBF80090804600214846FDF7D7
:1031E0006DFA50B940464946FDF786F85F49FCF74D
:1031F000F9FF20F00040314606E05A494046FDF70D
:103200004FFA20B958494046FDF73CFA10B9012061
:10321000A04007430BF1040B0134032CCDD1DFF8A0
:10322000A0B60DF145090D2103224B46DBF8040041
:103230000078FEF797FA10B14FF0070A55E09DF8B5
:1032400045009DF846109DF847204B4E4FF0000A70
:103250004FF0000800F01F008DF8450001F01F003E
:103260008DF8460002F01F008DF847003AE00599FE
:103270000BA850F8280051F82810081A48BF4042FF
:10328000FDF72AFA4FF05E51FDF704F819F80850DF
:103290000446B5B1374904E008463146FCF7FAFF69
:1032A0000146013D2806F7D1002009F80800204614
:1032B000FDF722F82D49FCF795FF2D4920F000403D
:1032C00006E02E492046FDF7EBF920B92C492046AF
:1032D000FDF7D8F920B9012000FA08F04AEA000AFF
:1032E00008F10108B8F1030FC1D13806DDE90391F7
:1032F000DDE901655FFA8AF0B0FA80F00F464FEA27
:10330000501408BF0234FF208BF810004FF6FF70F6
:10331000ABF80E0001208BF80C004FF0FF30CBF81B
:103320000800BDF81C0000F015F99DF81F0000F022
:1033300029F8BDF81A0000F071F9304600F09EF946
:10334000284600F0DBF94846FFF742FA17B10120A2
:1033500000F0C0F8204613B0BDE8F08F7B14AE3EFD
:103360001D5A843F9A99993E3333733F000080BFC2
:10337000295C0F3E0000C84154E3853F0000204116
:103380000000D2421CB5DC4CA17A59B302384FEA96
:1033900070014FF0FF3007292CD8DFE801F0040856
:1033A0002B0D2B2B2B1200208DF807000DE0082091
:1033B0008DF80700012008E010208DF8070002209A
:1033C00003E018208DF807000320617A814210D0B5
:1033D000D4E900020DF10703C17910780122FEF74C
:1033E0004DFA10B14FF0FF3004E09DF80700C0081F
:1033F0006072002002B010BDBCB5E64D0446A87C4A
:10340000A04201D1002052E0D5E900020DF10703EE
:10341000017910780122FEF7A5F984B3002844D180
:103420009DF807000DF1070300F0DF008DF807009D
:10343000D5E90002017910780122FEF71FFAA0BB3E
:103440000320FDF779FB95F8221095F823206FF003
:103450007D00002908BF02208DF807001AB140F056
:1034600030008DF80700D5E900020DF10703017D5A
:1034700010780122FEF702FAB8B9AC74C2E7A0B91D
:103480009DF80700AA7A0DF1070340F02001D2074A
:1034900008BF00F0DF018DF807100122D5E9001008
:1034A00000780979FEF7EAF918B14FF0FF3002B061
:1034B000B0BD0320FDF740FB95F8220095F82310DE
:1034C000002818BF0120C00100298DF80700C6D1CF
:1034D000C9E700BF7CB5FA4D95F82410814201D1AF
:1034E000002434E0E8B195F8250070B300200024F2
:1034F00000F0C2F90020FFF77FFFE88C00F0BEF873
:1035000068688DF807400DF1070323210122012689
:103510000078FEF7B3F9012085F8246000F0ACF9DB
:1035200010E00020002400F0A7F9287C0DF107032B
:10353000232101228DF8070068680078FEF79EF9C4
:1035400085F82440FFF7F4FC01E04FF0FF342046FB
:1035500002B070BD1CB5DA4CA17A49B3B0F5FA6F70
:103560000BD0B0F5FA7F0DD0B0F57A7F0FD0FA28E6
:103570001ED100208DF807000DE018208DF80700FF
:10358000032008E008208DF80700012003E0102048
:103590008DF807000220217A814210D0D4E9000280
:1035A0000DF10703817910780122FEF767F910B158
:1035B0004FF0FF3004E09DF80700C00820720020A3
:1035C00002B010BDBCB5BE4D044695F82300A04224
:1035D00021D02046002C18BF3020A97C8DF8070090
:1035E00019B140F002008DF8070095F8221019B1CA
:1035F00040F080008DF80700D5E900020DF10703C7
:10360000017D10780122FEF739F910B14FF0FF303B
:1036100002E085F82340002002B0B0BD1CB5A84CE4
:10362000A17A11B3BC2801D301200FE0622801D395
:1036300002200BE02A2801D3032007E0142801D33D
:10364000042003E00A2834BF06200520E17A8DF823
:10365000070081420FD0D4E900020DF10703817801
:1036600010780122FEF70AF910B14FF0FF3003E0A5
:103670009DF80700E072002002B010BD7CB5904DAF
:1036800004464FF0FF30A97AA1B395F8241089BB06
:10369000287D50B1601E80B2272803D8E0B2FFF722
:1036A00061FB26E00020FFF75DFB4FF47A76B4F56E
:1036B0007A7F28BF34460DF10703042C98BF0424F9
:1036C000B6FBF4F001388DF80700D5E90002417827
:1036D00010780122FEF7D2F810B14FF0FF3009E068
:1036E0009DF807000130B6FBF0F0E8814008FFF7D5
:1036F00095FF002002B070BD200000207CB504467C
:1037000010F0700F01D0012003E0002C0CBF40200E
:1037100000206B4E8DF807000DF10703D6E900027B
:10372000817C10780122FEF7A9F8E8B99DF807001E
:10373000A1060DF1070300F0BF0030734FF0040045
:1037400020EA141058BF0230E10658BF01302107AB
:1037500058BF38308DF80700D6E90002C17C1078D8
:103760000122FEF78BF830B100204FF0FF35B07228
:10377000284602B070BD44F00800082802D000209E
:10378000FFF720FF002532203575B472FDF7D4F91C
:10379000EEE700BF200000207CB50D4601464FF04B
:1037A000FF3032B3464E1446B27A12B3080A8DF88F
:1037B00007108DF80600C8B241197068428991421D
:1037C00008D8316800780DF106030222097EFEF761
:1037D00055F810B14FF0FF300BE0D6E90002234658
:1037E000417D1078EAB2FEF749F8002818BF4FF083
:1037F000FF3002B070BD00BF70B588B005A802A947
:10380000FFF74CFC032834D101A8FFF78BF9DDE961
:103810000506079CFCF760FF019D01462846FCF762
:1038200039FDFCF767FF05903046FCF755FF014670
:103830002846FCF72FFDFCF75DFF06902046FCF7BD
:103840004BFF01462846FCF725FDFCF753FF079088
:103850000DF10200FFF728F902ABBDF802000ECB14
:103860004143029102FB00F1584303910490002070
:1038700000E0012008B070BD1CB5114C94F8241074
:1038800099B1002818BF012040008DF807000DF104
:103890000703D4E90002C17B10780122FDF7EEFF97
:1038A00040B99DF8070060741CBDA17A11B110B138
:1038B000607C10B11CBD0020E7E70120E5E700BFF8
:1038C000200000200FB4054B10B503A9044A02984C
:1038D00000F05CF910BC5DF814FB00009D230008AB
:1038E00000000020490050EAC12018BF04204A0D02
:1038F00018BF40F0010040F2FF72B2EB515F08BF09
:1039000040F00200012808BF052070472DE9F04172
:103910004F1E00EBC7010446D1E9000115461E46C3
:1039200037F006020DD02A463346FCF7CAFD7F1E4B
:1039300004EBC703D3E90023FCF71CFD37F00602B4
:10394000F1D1022F25D0042F13D0062F18BFBDE8C8
:10395000F0812A463346FCF7B4FDD4E90A23FCF78C
:1039600009FD2A463346FCF7ACFDD4E90823FCF7F1
:1039700001FD2A463346FCF7A4FDD4E90623FCF7F3
:10398000F9FC2A463346FCF79CFDD4E90423FCF7F6
:10399000F1FC2A463346FCF794FDD4E90223FCF7F8
:1039A000E9FC2A463346FCF78CFDD4E90023BDE848
:1039B000F041FCF7DFBC0122FCF7F4BFFCF7DABCF6
:1039C0000022134610461146FCF7EDBD024A0020C6
:1039D0001107FCF7E7BF000001FDFFFF02E008C888
:1039E000121F08C1002AFAD170477047002001E079
:1039F00001C1121F002AFBD1704700000149086075
:103A000070470000040000202DE9FF5F82B0002114
:103A1000DDE90430020DDDF840B0034318D044F670
:103A20001050A2F2FF3242431514119801281FD002
:103A3000A5EB0B00401C5FEA000A4FF000064E4F5A
:103A4000DFF83891B046504615D5CAF1000413E0AE
:103A5000119801244AA3012801D16FEA0B010298B1
:103A6000119AC0E90031C0E9024206B0BDE8F09FFA
:103A7000CBF10000DFE704460021404A491842EB41
:103A80000450CDE9001012E0E00707D032463B4673
:103A900040464946FCF715FD8046894632463B467E
:103AA00010461946FCF70DFD06460F466410002C23
:103AB000EAD1DDE90401DDE90023BAF1000F06DAFD
:103AC000FCF7FFFC42464B46FCF7FBFC05E0FCF72D
:103AD0006AFD42464B46FCF766FD04460E46002250
:103AE000284BFCF7A7FF03D84FF0FF30014607E053
:103AF0000022254B20463146FCF73CFCFCF769FFD1
:103B0000102409E0002C0ADB0A220023FCF764FEE3
:103B1000039B30321A55641E50EA0102F2D1641C34
:103B2000039AC4F111031444119A012A03D001220B
:103B300008430DD10AE0084304D000204FF0110BD8
:103B4000119072E7A3EB0B056D1E0DE05B4504DDE4
:103B50004FF0000205F1010504E003DA4FF0000226
:103B6000A5F10105002AECD002981199C0E90231B3
:103B7000C0E9004579E70000000014400000F03F74
:103B8000300000000000F0430000E03F2DE9FF4F4F
:103B900095B09B468946064600250FE2252877D139
:103BA00000242746F84A0121059400E0044316F852
:103BB000013F203B01FA03F01042F7D130782A2868
:103BC00011D06FF02F033078A0F13002092A16D8F7
:103BD000059A44F0020402EB820203EB4202104415
:103BE000761C0590EFE759F8042B0592002A03DABA
:103BF000504244F40054059044F00204761C30789E
:103C00002E2816D116F8010F44F004042A280DD0EE
:103C10006FF02F023078A0F13003092B09D807EBA1
:103C2000870302EB4303C718761CF3E759F8047BBC
:103C3000761C30786C280FD006DC4C2817D068280A
:103C40000DD06A2814D104E0742810D07A280FD13E
:103C50000DE044F400140AE044F4801401E044F45C
:103C600040147278824202D104F58014761C761CCE
:103C7000307866280BD013DC582877D009DC002870
:103C800075D04528F6D04628F4D047281AD19DE1B2
:103C900018E0632835D0642879D0652812D195E1E1
:103CA000702873D008DC6728F1D069286FD06E289F
:103CB0000DD06F2806D1B5E073282CD0752875D0AB
:103CC000782874D05A46179990476D1C75E1C4F353
:103CD0000250022809D003280DD0D9F8001004287A
:103CE0000DD00D6009F1040967E1D9F80010EA1759
:103CF000C1E90052F6E7D9F800100D80F2E70D7027
:103D0000F0E719F8041B8DF8001000208DF8010071
:103D1000EA46012003E059F804AB4FF0FF30610799
:103D20004FF0000102D40DE008F101018846B942CC
:103D30000FDA8045F8DB1AF808100029F4D108E002
:103D400008F1010188468142FADB1AF808100029BF
:103D5000F6D105985B46A0EB080721463846179A2E
:103D600000F094FA284400EB080507E04DE029E153
:103D70000DE01AF8010B5A4617999047B8F101085F
:103D8000F7D25B4621463846179A13E142E00A22F1
:103D90000092C4F302524FF0000A022A08D059F8E8
:103DA00004CB032A4FEAEC710AD00DE029E02AE0A7
:103DB00009F1070121F00702F2E802C1914609E08A
:103DC0000FFA8CFC4FEAEC71042A03D14FFA8CFCF9
:103DD0004FEAEC71002907DA0A460021DCF1000CF9
:103DE00061EB02012D2202E0220504D52B228DF881
:103DF0000420012203E0E20701D02022F7E79046E9
:103E000059E00A2102E010220DE010214FF0000AD3
:103E100000910BE010224FF0000A44F00404082740
:103E2000009203E008224FF0000A0092C4F302520D
:103E3000022A05D059F804CB0021032A08D009E052
:103E400009F1070121F00702F2E802C1914605E0FD
:103E50001FFA8CFC042A01D10CF0FF0C4FF0000873
:103E6000220728D5702806D0009B83F0100353EA60
:103E70000A0305D00EE040228DF80420012208E05C
:103E80005CEA010206D030228DF804208DF805008E
:103E900002229046009B83F0080353EA0A030AD1EA
:103EA0005CEA010201D1620705D530228DF80420B9
:103EB0004FF001087F1E582804D034A003900EA8AC
:103EC00002900DE036A0F9E753466046009AFCF7F1
:103ED00083FC84460398825C0298401E0290027024
:103EE0005CEA0100F0D1029806A9081A00F1200A44
:103EF000600702D524F4803400E00127574502DD35
:103F0000A7EB0A0000E0002000EB0A0100900598F2
:103F10004144401A0590E00306D45B462146179AB7
:103F2000059800F0B3F90544002706E001A85A46B9
:103F3000C05D179990476D1C7F1C4745F6DBE00379
:103F40000CD55B462146179A059800F09FF9054469
:103F500004E030205A46179990476D1C0099481E7E
:103F600000900029F5DC08E0029802995A46007892
:103F7000491C0291179990476D1CBAF10001AAF1F2
:103F8000010AF1DC65E1000009280100303132331B
:103F90003435363738396162636465660000000085
:103FA000303132333435363738394142434445466F
:103FB0000000000000F058F90544761C3078002815
:103FC0007FF4ECAD19B02846BDE8F08F620700D44D
:103FD000062709F1070222F0070CFCE80223E1465C
:103FE00003F000485FEA080C02D00FF2702C0DE0DD
:103FF0005FEA045C02D50FF2682C07E05FEAC47C3C
:1040000002D00FF2602C01E0AFF2700C4FF0FF38DD
:1040100023F00043CDF850C065280CD006DC4528BD
:1040200009D046281DD047283DD13DE0662818D04C
:1040300067287ED138E00021112F01DB112000E03C
:10404000781CCDE9000106A90EA8FFF7DDFCDDE92B
:104050000F010E9A03910021009207F1010A0491C9
:104060004DE04FF000400097CDE9011006A90EA8E1
:10407000FFF7CAFCDDE90F0203920E9B11990022A3
:10408000DDF80CA00093049211B9791C00EB010A31
:10409000B7EB0A0004D4C0F1FF3007F1010A049025
:1040A000AAEB0700019044E0012F00DA012700216C
:1040B000112F01DD112000E03846CDE9000106A9ED
:1040C0000EA8FFF7A1FCDDE90F010E9A0391002174
:1040D00004910092BA4621070CD40399514500DAA5
:1040E0008A46BAF1010F05DD009AAAF10101515C7F
:1040F000302908D0B84202DA10F1040F06DA0121A3
:10410000CDE9011015E0AAF10101E9E7002805DC7D
:10411000049901440491AAEB000102E0411C5145BD
:1041200000DD8A460499401A401C01904FF000407F
:104130000290200704D40198504501DBCDF804809B
:1041400000208DF84F0002980DF14F07B0F1004F9D
:1041500025D02B200E9002984FF0020800280CDA90
:10416000404202902D200E9007E00A210298FCF7B1
:104170001DFB3031029007F8011DB8F10001A8F1D4
:104180000108F2DC02980028EFD1791E0E98087021
:10419000307800F0200040F0450007F8020D12A82A
:1041A000C01B00F107081498007800B1012000EB53
:1041B0000A01019801EBE07105984144401A401E44
:1041C0000590E00306D45B462146179A059800F057
:1041D0005DF805441498007818B15A46179990472D
:1041E0006D1CE00324D55B462146179A059800F024
:1041F0004DF805441CE00498002807DBDDE90301C5
:10420000884203DD0098405C179901E0179930203F
:104210005A469047049805F10105401C0490019806
:10422000401E019004D12E205A46179990476D1CCC
:10423000BAF10001AAF1010ADDDC05E017F8010B73
:104240005A46179990476D1CB8F10001A8F1010872
:10425000F4DC5B462146179A0598ABE62D0000007A
:104260002B000000200000002DE9F041044600254D
:104270001E461746880404D405E039462020B0477E
:104280006D1C641EF9D52846BDE8F0812DE9F0418A
:10429000044600251E469046C80301D5302700E09D
:1042A0002027880404D505E041463846B0476D1CF8
:1042B000641EF9D52846BDE8F08100002DE9F04DD7
:1042C0008D4F21F0004A86B005460C46BA452ADBE0
:1042D000AAEB070028430AD08848824501DC1AD19E
:1042E000CDB106B02846BDE8F04DFFF764BB844A67
:1042F000844B2846FCF7E5F807460E46824A834B76
:1043000028462146FCF7DDF806B03A463346BDE8BC
:10431000F04DFCF72FB80120FFF770FB06B0BDE8A9
:10432000F04DFFF74DBB7A48824542DABAF1795F2A
:104330000BDA2846FFF7D6FA042808BFFFF746FB3A
:10434000284606B02146BDE8F08D2A460B461046A9
:10435000FCF7B7F8834602466E480E460B46062128
:104360007844FFF7D3FA5A463346FCF7AAF880465A
:1043700069488A465A46334604217844FFF7C6FA0C
:104380005A463346FCF79DF800223B46FBF7F2FF06
:1043900002460B4640465146FCF705F92A4623469D
:1043A000FCF78FF806B02A462346BDE8F04DFBF730
:1043B000E1BF284624F0004100223D463B46FCF781
:1043C0007DF84FF0FF32FCF7EDFA064602465348FF
:1043D0000F460B4606217844FFF798FA32463B46D3
:1043E000FCF76FF8CDE900014D4832463B46042109
:1043F0007844FFF78BFA32463B46FCF762F800221E
:104400002B46FBF7B7FF834602913046394600F052
:104410006BFA804643480D46504517DCDDE9000144
:104420005A46029BFCF7BFF842462B46FCF749F878
:1044300042462B46FBF79EFF0122FCF7B3FA304AB7
:10444000304BFCF738F8304A304B4CE04FF0000A64
:1044500052460B464046FBF78DFFCDE9031052460E
:104460002B4610461946FCF72CF832463B46FCF723
:1044700025F8DDE90332FCF796F806460F46DDE93C
:1044800000015A46029BFCF78EF8834600910122F8
:1044900030463946FCF786FA194A1A4BFCF70EF8F3
:1044A00006460F46012240462946FCF77BFA5A464B
:1044B000009BFCF706F832463B46FBF7FCFF06463E
:1044C0000F46012250462946FCF76CFA0E4DDFF8E4
:1044D00058802A464346FBF7F1FF32463B46FBF73E
:1044E000EDFF2A464346FBF7E9FF002CD8BF81F0D9
:1044F000004106B0BDE8F08D0000F03F0000F07F05
:10450000075C143326A6913C182D4454FB21F93F37
:104510000000E03FD4050000EA0500005E05000051
:10452000740500003333EF3FFB21E93F2DE9F84FDD
:1045300004460D4621F0004000917349814211DC90
:104540007249884201DC06D12CB120462946BDE8DB
:10455000F84FFFF730BA6E48002DCCBF6D496E4959
:10456000BDE8F88F6D49814211DD6D498142D8BFA8
:104570004FF0FF366DDD20462946FFF7B3F90428DA
:1045800008BFFFF723FA20462946BDE8F88F6549A2
:10459000654F25F00045814233DD6449814219DDD4
:1045A000002632464FF0804320462946FBF7E2FEC4
:1045B00080468A46012220462946FCF7F3F900226C
:1045C0003B46FBF778FF42465346FBF7ECFF0446B9
:1045D0000D463EE001260022BA463B4620462946CB
:1045E000FBF7C8FE80460F46002253462046294668
:1045F000FBF761FF42463B46FBF7D5FF04460D46FD
:1046000027E04B4981421BDDDFF828A1022600226A
:10461000534620462946FBF754FF00223B46FBF752
:10462000A9FE80460F460022534620462946FBF746
:1046300042FF42463B46FBF7B6FF04460D4608E004
:10464000032622462B4600203B49FBF7ACFF0446DD
:104650000D4622462B4610461946FBF732FF8B4685
:10466000824602460B46FBF72CFF074602463348BC
:1046700088460B4606217844FFF748F952465B46C8
:10468000FBF71FFF82462E488B463A4643460521DC
:104690007844FFF73BF93A464346FBF712FF0246E0
:1046A0000B46002E504659460CDAFBF763FE2246B5
:1046B0002B46FBF706FF01B022462B46BDE8F04F24
:1046C000FBF7FCBEFBF756FE22462B46FBF7F9FE36
:1046D0001C4A7A4402EBC603D3E90023FBF7EBFE46
:1046E00022462B46FBF7E7FE174A7A4402EBC60345
:1046F000D3E90023FBF7E2FE009A002AB8BF81F05D
:104700000041BDE8F88F0000000010440000F07F79
:10471000182D4454FB21F93FFB21F9BF0000DC3F79
:104720000000203E0000F33F0000F03F0000E63FA5
:10473000008003400000F83F0000F0BF7603000057
:1047400034030000D20200009A0200002DE9F04D6F
:104750009446CCF1000423F000464CEA0404594F7F
:1047600046EAD4749A46884621F00042BC4206D8F4
:10477000454240EA050442EAD474BC4204D9BDE88B
:10478000F04D6246FFF71AB9AAF14055A5F17F65D1
:1047900055EA0C040BD0022404EAAA744A4DDFF84F
:1047A0002CE144EAD87452EA000B04D00CE0BDE8D6
:1047B000F04DFFF7BBBE002C14BF012CBDE8F08DFF
:1047C000022C30D0032C32D056EA0C0B0AD0BE4259
:1047D00020D1BA4209D126F0804622F080423346E9
:1047E000114617E000291ADB25E0DFF8E4B0FB44AE
:1047F000002C04BFDBE90001BDE8F08D012C02BFF5
:10480000DBE9000181F00041BDE8F08D022C0AD007
:10481000032C0CD0BA4212D1B8F1000F0BDA2A489F
:104820002C49BDE8F08D28462B49BDE8F08D28467F
:104830007146BDE8F08D24482849BDE8F08D921BF3
:1048400012153C2AC4BF204F244E10DCBAF1000FD1
:10485000BEBF12F13C0F00273E4608DB6246FBF765
:10486000A2FE21F00041FFF761FE07460E4694B11B
:10487000012C08BF86F000460DD0194A194B022CB6
:104880003846314615D0FBF716FE2A46BDE8F04DF6
:10489000114BFBF710BE0022134638463146FCF799
:1048A000B1F804BF0220FFF7A9F838463146BDE849
:1048B000F08DFBF700FE2A46BDE8F04D064BFBF7F6
:1048C000FDBD00000000F07F182D4454FB2109C0FD
:1048D0002E020000FB21F9BFFB210940FB21F93F1B
:1048E000075C143326A6A13C2DE9F04106460F468D
:1048F000FCF7CAF8041E0D4618BF0120284320F01B
:104900000040C0F17F6000F1E040C00F0ED0301CCD
:1049100018BF0120384320F00040C0F17F6000F153
:10492000E040C00F04BF0120FFF768F82046294689
:10493000BDE8F08100000000555555555555C53F5F
:104940007D6FEB0312D6D4BF5544880E55C1C93FC5
:104950003B8F68B52882A4BF88B20175E0EF493F5C
:1049600009F7FD0DE13D023F4B2D8A1C273A03C09C
:10497000C88A599CE52A004059018D1B6C06E6BF88
:1049800082922EB1C5B8B33F4FBB610567ACDD3F26
:10499000182D4454FB21E93F9BF681D20B73EF3F66
:1049A000182D4454FB21F93FE2652F227F2B7A3CDE
:1049B000075C143326A6813CBDCBF07A8807703C97
:1049C000075C143326A6913CC4EB98999999C9BF0A
:1049D000711623FEC671BCBF6D9A74AFF2B0B3BF3F
:1049E0009AFDDE522DDEADBF2F6C6A2C44B4A2BFFF
:1049F0000D5555555555D53FFF8300922449C23F6B
:104A00006E204CC5CD45B73F513DD0A0660DB13F9E
:104A1000EB0D76244B7BA93F11DA22E33AAD903FB0
:104A200000000000000000000CC92C4CCD6C000000
:104A3000000000000000010203040607080900004E
:104A400000000102030400007000000000240000C8
:104A500000020003000000650054FFEF0000FA8030
:104A6000000B12820001030C30C30E8C8CE914D5AC
:104A7000400213710F8E3883F8833000F883258E3F
:104A8000F8833000F883FFFFFFFF0FFEA9D6240054
:104A900004001A8279A10000003CFFFF0000001012
:104AA000000038836FA2003E03304000000002CABD
:104AB000E3093E80000020000000000000004000EC
:104AC000000060000000000C0000000C186E0000E8
:104AD00006920A16C0DFFFFF0256FD8CD377FFE176
:104AE000C496E0C5BEAA00000000FFFF0B2B00002B
:104AF0001657000003594000000000001DFA000294
:104B00006C1D000000003FFFDFEB003EB3B6000D60
:104B1000227800002F3C00000000001942B5000080
:104B200039A20000B365D90E9FC91DCF4C343000A7
:104B30000000500000003BB67AE80064000000C8A6
:104B4000000000000000100000001000FA921000A9
:104B5000225E000D229F0001000000320000FF468F
:104B6000000063D400001000000004D6000004CC54
:104B7000000004CC000000001072000000400000A3
:104B80000000000000000006000200050007000011
:104B900000000064000000000000000000050005A7
:104BA0000064002000000000000000000000000081
:104BB00040000000030000000032F8980000FF658C
:104BC0000000830F0000FF9BFC00000000000000BD
:104BD00000000000000000000000000000000000D5
:104BE00000000000000000000000000000000000C5
:104BF000000000001000400000000000000600005F
:104C0000B26A000200000001FB830068000000D9C6
:104C1000FC007CF1FF8300000000006500000064E0
:104C200003E800640028000000250000000016A032
:104C300000000000100000001000002F0000000025
:104C400001F40000100000280000FFFF4581FFFF75
:104C5000FA7200000000000000000044000500059A
:104C6000BAC6004778A20000000100000000000062
:104C70000600000000140000254D002F706D00009C
:104C800005AE000C02D00000000000000000000093
:104C9000000000000000001B0000000000000000F9
:104CA0000000000000000064000000080000000098
:104CB00000000000000000000000000000000000F4
:104CC00000000000000000000000000000000000E4
:104CD00000000000000000000000000000000000D4
:104CE00000000000000000000000000000000000C4
:104CF00000000000000000000000000000000000B4
:104D0000000000000000001B000000000000000088
:104D10000000000E000E00000AC7000400000000A2
:104D20000032FFFFFF9C00000B2B00000002000080
:104D3000000100000064FFE500000000000000002A
:104D40000000000000000000000100000000000161
:104D50000000000000000001800000018000000150
:104D60008000002426D300000000000000000006A0
:104D700000100096003C0000000000000000000051
:104D80000000000000000C0A4E68CDCF77095016D5
:104D90006759C619CE820000000000000000000024
:104DA000000000000000000000000000000017D715
:104DB0008400030000000000000000000000C79312
:104DC0008F9D1E1B1C190000000000000000000049
:104DD00000000000000000000000000000000203CE
:104DE00018850000400000000003000000030000E0
:104DF0000000000000004000000000000000000073
:104E000000000000000000000000000000000000A2
:104E10000000000000000000000000000000000092
:104E200000000000000000000000677DDF7E72903F
:104E30002E554CF6E688000000000000000000003F
:104E4000000000000000D8DCB4B8B0D8B9ABF3F86B
:104E5000FAB3B7BB8E9EAEF132F51BF1B4B8B08099
:104E600097F1A9DFDFDFAADFDFDFF2AAC5CDC7A98F
:104E70000CC92C97F1A989264666B28999A92D55A6
:104E80007DB0B08AA896365676F1BAA3B4B280C087
:104E9000B8A89711B28398BAA3F0240844106418F4
:104EA000B2B9B49883F1A329557DBAB5B1A3839360
:104EB000F0002850F5B2B6AA839328547CF1B9A328
:104EC000829361BAA2DADEDFDB819AB9AEF560685F
:104ED00070F1DABAA2DFD9BAA2FAB9A38292DB31B1
:104EE000BAA2D9BAA2F8DF85A4D0C1BBAD83C2C52E
:104EF000C7B8A2DFDFDFBAA0DFDFDFD8D8F1B8AAFA
:104F0000B38DB4980D355DB2B6BAAF8C96198F9F3C
:104F1000A70E161EB49AB8AA872C547CBAA4B08ADD
:104F2000B691325676B28494A4C808CDD8B8B4B03D
:104F3000F19982A82D557D98A80E161EA22C547C9E
:104F400092A4F02C5078F184A898C4CDFCD80DDB45
:104F5000A8FC2DF3D9BAA6F8DABAA6DED8BAB2B64A
:104F60008696A6D0F3C841DAA6C8F8D8B0B4B882FD
:104F7000A892F52C548898F135D9F418D8F1A2D01C
:104F8000F8F9A884D9C7DFF8F883C5DADF69DF83C9
:104F9000C1D8F40114F1A8824EA884F311D182F58E
:104FA000D992289788F109F41C1CD884A8F3C0F979
:104FB000D1D99782F129F40DD8F3F9F9D1D982F436
:104FC000C203D8DEDF1AD8F1A2FAF9A88498D9C7AB
:104FD000DFF8F8F883C7DADF69DFF883C3D8F401B4
:104FE00014F198A8822EA884F311D182F5D9925099
:104FF0009788F109F41CD884A8F3C0F8F9D1D9979F
:1050000082F149F40DD8F3F9F9D1D982F4C403D867
:10501000DEDFD8F1AD8898CCA809F9D98292A8F53D
:105020007CF1883ACF944A6E98DB6931DAADF2DED2
:10503000F9D88795A8F221D1DAA5F9F417D9F1AEFC
:105040008ED0C0C3AE82C684C3A88595C8A588F299
:10505000C0F1F4010EF18E9EA8C63E56F554F188BB
:1050600072F40115F19845856EF58E9E0488F14223
:10507000985A8E9E068869F4011CF1981E1108D07A
:10508000F504F11E970202983625DBF9D985A5F3C0
:10509000C1DA85A5F3DFD88595A8F309DAA5FAD892
:1050A0008292A8F578F1881A849F26889821DAF4EC
:1050B0001DF3D8879F39D1AFD9DFDFFBF9F40CF3AB
:1050C000D8FAD0F8DAF9F9D0DFD9F9D8F40BD8F357
:1050D000879F39D1AFD9DFDFF41DF3D8FAFCA86977
:1050E000F9F9AFD0DADEFAD9F88F9FA8F1CCF398AE
:1050F000DB45D9AFDFD0F8D8F18F9FA8CAF3880974
:10510000DAAF8FCBF8D8F2AD978D0CD9A5DFF9BA0D
:10511000A6F3FAF412F2D8950DD1D9BAA6F3FADAB9
:10512000A5F2C1BAA6F3DFD8F1BAB2B68696A6D078
:10513000CAF349DAA6CBF8D8B0B4B8D8AD84F2C077
:10514000DFF18FCBC3A8B2B68696C8C1CBC3F3B08C
:10515000B48898A821DB718D9D71859521D9ADF218
:10516000FAD88597A828D9F408D8F28D29DAF40559
:10517000D9F285A4C2F2D8A88D9401D1D9F411F244
:10518000D88721D8F40AD8F28498A8C801D1D9F4D4
:1051900011D8F3A4C8BBAFD0F2DEF8F8F8F8F8F8ED
:1051A000F8F8D8F1B8F6B5B9B08A95A3DE3CA3D922
:1051B000F8D85CA3D9F8D87CA3D9F8D8F8F9D1A548
:1051C000D9DFDAFAD8B18530F7D9DED8F830ADDAE0
:1051D000DED8F2B48C99A32D557DA083DFDFDFB537
:1051E00091A0F629D9FBD8A0FC29D9FAD8A0D05192
:1051F000D9F8D8FC51D9F9D879D9FBD8A0D0FC7905
:10520000D9FAD8A1F9F9F9F9F9A0DADFDFDFD8A1E5
:10521000F8F8F8F8F8ACDEF8ADDE8393AC2C547CEB
:10522000F1A8DFDFDFF69D2CDAA0DFD9FADB2DF85D
:10523000D8A850DAA0D0DED9D0F8F8F8DB55F8D8E5
:10524000A878DAA0D0DFD9D0FAF8F8F8F8DB7DF842
:10525000D89CA88CF530DB38D9D0DEDFA0D0DEDFDB
:10526000D8A848DB58D9DFD0DEA0DFD0DED8A868C8
:10527000DB70D9DFDFA0DFDFD8F1A888902C547C69
:1052800098A8D05C38D1DAF2AE8CDFF9D8B087A814
:10529000C1C1B188A8C6F9F9DA36D8A8F9DA36D882
:1052A000A8F9DA36D8A8F9DA36D8A8F9DA36D8F76C
:1052B0008D9DADF818DAF2AEDFD8F7ADFA30D9A48B
:1052C000DEF9D8F2AEDEFAF983A7D9C3C5C7F188F3
:1052D0009BA77AADF7DEDFA4F8849408A797F300C4
:1052E000AEF29819A488C6A39488F632DFF28393AD
:1052F000DB09D9F2AADFD8D8AEF8F9D1DAF3A4DE07
:10530000A7F1889B7AD8F38494AE19F9DAAAF1DF71
:10531000D8A881C0C3C5C7A39283F628ADDED9F84B
:10532000D8A350ADD9F8D8A378ADD9F8D8F8F9D129
:10533000A1DADEC3C5C7D8A18194F818F2B089AC50
:10534000C3C5C7F1D8B8B4B09786A8319B069907F2
:10535000AB9728889BF00C201440B0B4B8F0A88A12
:105360009A285078B79BA8295179247059446938F4
:10537000644831F1BBAB88002C547CF0B38BB8A8E7
:1053800004285078F1B088B49726A85998BBABB3DD
:105390008B02264666B0B8F08A9CA82951798B29E1
:1053A00051798A2470598B2058718A4469388B3915
:1053B00040688A6448318B30496088F1AC002C54D5
:1053C0007CF08CA804285078F1889726A85998ACCE
:1053D0008C02264666F0899CA8295179247059448C
:1053E0006938644831A98809205970AB113840697F
:1053F000A8193148608CA83C415C207C00F187985A
:105400001986A86E767EA999882D557DD8B1B5B933
:10541000A3DFDFDFAED0DFAAD0DEF2ABF8F9D9B080
:1054200087C4AAF1DFDFBBAFDFDFB9D8B1F1A39743
:105430008E60DFB084F2C8F8F9D9DED89385F14ADE
:10544000B183A308B5839A0810B79F10D8F1B0BAFA
:10545000AEB08AC2B2B68E9EF1FBD9F41DD8F9D98E
:105460000CF1D8F8F8AD61D9AEFBD8F40CF1D8F84E
:10547000F8AD19D9AEFBDFD8F416F1D8F8AD8D61CF
:10548000D9F4F4ACF59C9C8DDF2BBAB6AEFAF8F4E7
:105490000BD8F1AED0F8AD51DAAEFAF8F1D8B9B117
:1054A000B6A3839C08B9B1839AB5AAC0FD3083B76F
:1054B0009F10B58B93F20202D1ABDADED8F1B08047
:1054C000BAABC0C3B284C1C3D8B1B9F38BA391B690
:1054D00009B4D9ABDEB0879CB9A3DDF1B38B8B8B5C
:1054E0008B8BB087A3A3A3A3B28BB69BF2A3A3A37A
:1054F000A3A3A3A3A3A3A3F1B087B59AA3F39BA3EC
:10550000A3DCBAACDFB9A3A3A3A3A3A3A3A3A3A3C0
:10551000A3A3A3A3A3A3D8D8D8BBB3B7F1AAF9DA9E
:10552000FFD9809AAA28B48098A720B79787A86641
:1055300088F07951F1902C870CA781976293F071D4
:10554000716085940129517990A5F1284C6C870CE4
:1055500095188578A38390284C6C886CD8F3A28228
:1055600000F210A8921980A2F2D926D8F188A84D8D
:10557000D948D896A83980D93CD89580A839A6862C
:1055800098D92CDA87A72CD8A8899519A980D93859
:10559000D8A88939A980DA3CD8A82EA83990D90C86
:1055A000D8A8953198D90CD8A809D9FFD801DAFF25
:1055B000D89539A9DA26FFD890A80D8999A8108026
:1055C0009821DA2ED88999A83180DA2ED8A8869623
:1055D0003180DA2ED8A8873180DA2ED8A88292F3CB
:1055E0004180F1D92ED8A882F31980F1D92ED88222
:1055F000ACF3C0A28022F1A62EA72EA92298A8293A
:10560000DAACDEFFD8A2F22AF1A92E8292A8F231FA
:1056100080A696F1D900AC8C9C0C30ACDED0DEFFBD
:10562000D88C9CACD010ACDE8092A2F24C82A8F157
:10563000CAF235F19688A6D900D8F1FF68000004B7
:1056400076005401F7FD000175191A0C6A231B1C22
:105650001F207274433B4138393A6B6C376F062414
:105660006D6E70008300000000080000000100184B
:1056700032000500000020410000D242295C0F3EAC
:105680009A99993E3333733F295C0F3EB056000818
:105690000000002050000000DC390008005700081E
:1056A0005000002070040000EC39000800000000E9
:1056B00000000000000000000100000010000000D9
:1056C00000127A000100000001000000010000004B
:1056D000485600083C56000800000000000000008A
:1056E00000000000000000000000000000000000BA
:1056F00000000000000000006456000800000000E8
:04000005080000ED02
:00000001FF
