:020000040800F2
:10000000B8040020010100089F1800081913000817
:100010009D1800087B090008511A00080000000024
:10002000000000000000000000000000A31800080D
:100030007D09000800000000A1180008A5180008AC
:100040001B0100081B0100081B0100081B01000820
:100050001B0100081B0100081B0100081B01000810
:100060001B0100081B0100081B0100081B01000800
:100070001B0100081B0100081B0100081B010008F0
:100080001B0100081B0100081B0100081B010008E0
:100090001B0100081B0100081B0100081B010008D0
:1000A0001B0100081B0100081B0100081B010008C0
:1000B0001B0100081B010008000000001B010008D4
:1000C0001B01000800000000000000001B010008E8
:1000D000000000001B0100081B01000800000000D8
:1000E0001B0100081B0100081B010008DFF80CD0F1
:1000F00000F0E0FB00480047611C0008B804002045
:100100000648804706480047FEE7FEE7FEE7FEE7B1
:10011000FEE7FEE7FEE7FEE7FEE7FEE70F19000851
:10012000ED000008202A04DB203A21FA02F0002129
:10013000704721FA02F3D040C2F1200291400843F7
:1001400019467047D2B201E000F8012B491EFBD2DC
:1001500070470022F6E710B513460A4604461946D2
:10016000FFF7F0FF204610BDF0B480EA0102D40F83
:100170004200B2EB410F02D20246084611464A0045
:1001800042D0C30DDDB2C1F3C752AD1A202D35DA0E
:10019000C1F3160141F4000204B15242C5F1200638
:1001A00002FA06F12A411044B3EBD05F23D0C4B168
:1001B000012DA0EBC35009DCF0BC4FF0004202EA75
:1001C000C352DBB200F5000000F089BA400000F134
:1001D000807000EBC350A0F1807040EAD1704900FC
:1001E00009E0490841EAC071A0EBC35000F50000E6
:1001F000400800EBC350F0BC00F068BA6142012235
:1002000002EB4101001BF6E7F0BC704781F00041B2
:10021000AAE780F00040A7E780EA010210B502F0EB
:100220000043400022D04A001FD0010E01EB1261B2
:10023000C0F35600C2F3560240F4000042F400023C
:10024000A0FB022000047F39140400D0401C50EAB7
:10025000124001D44000491EC2B20C0604EBD0107B
:10026000401C4008802A02D003E0002010BD20F08E
:100270000100002900DA0020184310BD2DE9FE4FCF
:10028000804681EA0300C00F0C46009021F0004137
:1002900023F00045B8EB0200A94105D240462146B3
:1002A00090461C460B46024623F00040104347D0C0
:1002B000270DC7F30A00C3F30A510290401A0190B8
:1002C00040286BDAC3F3130040F4801B0098924679
:1002D00020B10023D2EB030A63EB0B0B01985946C4
:1002E000C0F14002504600F0D0F906460D46504697
:1002F0005946019A00F0D8F910EB0800614100243A
:1003000087EA115284EAE7731A4340D0009A62B335
:10031000019A012A4FEA075215DC001B61EB02012A
:100320004FF0004202EA0752CDE90042001C41F5BD
:10033000801132462B4600F00FFA03B0BDE8F08F73
:1003400040462146F9E7001B61EB0201001C41F524
:10035000801300185B412018A2F5001747EB03013A
:1003600040EAD570B6196D4111E06D084FEA3606C6
:1003700045EAC0754FEA0752001B61EB0201001C01
:1003800041F5801149084FEA3000001951413246C9
:100390002B4603B0BDE8F04F00F0CFB90098012222
:1003A00040000023D0EB020263EBE073009821468B
:1003B0004FEAE074B8EB000061EB0401E9E783F079
:1003C00000435BE781F0004158E72DE9FE4F81EAE9
:1003D000030404F0004421F0004100944FF0000BAE
:1003E00023F0004350EA01045ED052EA03045BD0DC
:1003F000C3F30A54C1F30A552C44A4F2F334019414
:10040000A0FB0254C1F3130141F48011C3F31303A1
:1004100043F4801301FB024400FB034E840A970A55
:1004200044EA815447EA8357A4FB076802958D0A82
:1004300005FB07854FEA932C04FB0C542705029D0E
:100440004FEA065847EA1637B5EB08056EEB070C7E
:10045000870E920E47EA811742EA8312A7FB020138
:10046000B6EB0B0164EB00042B0D43EA0C335E1872
:1004700044EB1C50DA465146E7FB0201C5F3130476
:100480004FEA0B3343EA14534FEA0432019C43EA28
:100490000603A4F10C040294009CCDE900B400F022
:1004A0005BF903B0BDE8F08F00200146F9E72DE9C4
:1004B000F04D81EA030404F0004B21F0004514469E
:1004C0004FF0000A23F0004150EA050220D054EA20
:1004D00001021DD0C5F30A570246C5F31303C1F349
:1004E0001300C1F30A5640F4801543F48013A7EBC0
:1004F0000608101BD64608F2FD3873EB050002D340
:1005000008F1010801E092185B41B8F1000F03DA2D
:1005100000200146BDE8F08D00204FF48011064612
:1005200084460EE0171B73EB050705D3121B63EB24
:10053000050306434CEA010C49084FEA30009218C3
:100540005B4150EA0107EDD152EA030012D082EA82
:10055000040083EA0501084305D0101BAB4106D215
:100560000122002306E000224FF0004302E06FF07A
:10057000010253101AEB06004CEB085110EB0A0075
:1005800041EB0B01BDE8F04D00F0D7B8C10F80EA98
:10059000E0700844CA079623002100F0A0B800F0DC
:1005A000004230F000400AD0C10D01F56071C0F387
:1005B000160042EA0151C20840071143704700206B
:1005C0000146704701F0004330B421F0004150EA89
:1005D000010206D00A0DA2F56072C1F31301002AD0
:1005E00002DC30BC00207047440F44EAC104C10063
:1005F000E01830BC00EBC25000F068B830B50B46D4
:10060000014600202022012409E021FA02F59D4242
:1006100005D303FA02F5491B04FA02F52844151E16
:10062000A2F10102F1DC30BD2DE9F05F05460020AA
:1006300092469B4688460646814640241BE0284653
:10064000414647462246FFF76DFD53465A46C01ABB
:10065000914110D311461846224600F016F82D1A83
:1006600067EB01084F4622460120002100F00DF8FB
:1006700017EB00094E41201EA4F10104DFDC4846BF
:1006800031462A464346BDE8F09F202A04DB203A43
:1006900000FA02F1002070479140C2F1200320FAD5
:1006A00003F3194390407047202A06DBCB17203A0A
:1006B00041FA02F043EAE07306E041FA02F3D04067
:1006C000C2F1200291400843194670470029A8BF93
:1006D0007047401C490008BF20F00100704710B46B
:1006E000B0FA80FC00FA0CF050EA010404BF10BC20
:1006F000704749B1CCF1200421FA04F411FA0CF14D
:1007000018BF012121430843A3EB0C01CB1D4FEA85
:1007100000614FEA102042BF002010BC704700EB80
:10072000C35010440029A4BF10BC7047401C4900AE
:1007300008BF20F0010010BC704710B5141E73F103
:10074000000408DA401C41F1000192185B411A4391
:1007500001D120F0010010BD2DE9F04D92469B46DD
:1007600011B1B1FA81F202E0B0FA80F22032904683
:10077000FFF78BFF04460F4640EA0A0041EA0B01EF
:1007800053465A46084313D0114653EA010019D084
:10079000C8F140025046FFF7C5FC05460E465046DC
:1007A00059464246FFF771FF084305D0012004E097
:1007B00020463946BDE8F08D0020054346EAE07644
:1007C0002C4337430A986305E40AA0EB0800002293
:1007D000FD0A44EA47540A3002D500200146E9E701
:1007E000010510196941DDE9084500196941BDE8B5
:1007F000F04DA2E770B521F0004303430CD0C1F3E4
:100800000A550024D5EB040564EB0403D617AD1A92
:10081000B34102DB0020014670BD201841EB0251BC
:1008200070BDC1F30A52C1F3130140F2FF3341F42A
:1008300080119A4202DA00200146704740F23343A9
:100840009A42A2F2334202DC5242FFF76BBCFFF73E
:100850001CBF000030B5041E71F1000404DB4FF032
:100860000044404264EB0101141E73F1000405DBF7
:100870001C464FF00043524263EB04038B4208BF17
:10088000824230BD30B5041E71F1000404DB4FF02C
:100890000044404264EB0101141E73F1000405DBC7
:1008A0001C464FF00043524263EB0403994208BFD9
:1008B000904230BD064C074D06E0E06840F0010371
:1008C00094E8070098471034AC42F6D3FFF712FCC7
:1008D000C0320008E03200082DE9F04D00231A462E
:1008E0001B1A8A4103DB00200146BDE8F08DC1F3ED
:1008F0000A52C1F3130141F480154FF0000BD107E8
:1009000002D100186D41521E0027044640F2FF112B
:10091000384601EB620A3E468046024600204FF40C
:100920008011FFF7FFFBC2197141BB1846EB0100B4
:10093000B4EB030C75EB000C04D3E41A65EB000573
:1009400017460E46241908F101006D4180463428EF
:10095000E3DDF91946EB0600091BA84103D24FF06D
:10096000FF32134601E0002213461BEB070046EB63
:100970000A51BDE8F04DFFF7E0BEFEE77047EFF328
:10098000108072B6FEE70000B0B5044600F0F2F841
:1009900005469548611C007818BF044400F0EAF849
:1009A000401BA042FAD3B0BD2DE9FC4F5D4A5E4F1B
:1009B00003234FF0000A4FF001084FF00F0E4FF0E5
:1009C00000090025904208BF022300930A6832FA0A
:1009D00005F308BFBDE8FC8F08FA05FC12EA0C0F0E
:1009E00000F09C804A68032A16D9112A26D0122AC0
:1009F00028D04F4B9A4213D04E4B9A4210D04E4BB8
:100A00009A420DD04D4B9A420AD04D4B9A4207D094
:100A10004C4B9A4204D022E0DFE802F002181B1F80
:100A20008A6842B1012A14BFC0F814C0C0F810C0CF
:100A30004FF0080913E04FF0040910E0CA6802F112
:100A400004090CE0CA6802F10C0908E0D1F80C9026
:100A500005E0CA6802F1080901E04FF000095246BA
:100A60000446082D28BF203A28BF043426680EFA11
:100A700002F309FA02F226EA03031A432260CA7952
:100A8000D2064BD5674AA7F57E761346126842F028
:100A900001021A601A6802F0010201920AF00C02C7
:100AA000019C0EFA02F3BE46AC0856F8247027EA01
:100AB000030B254B984205D0244B9842009B08BF5E
:100AC000012300E0002303FA02F277464FF00F0EF5
:100AD00042EA0B0246F82420144E4A68D302BB684F
:100AE00054BF23EA0C0343EA0C03BB609302336850
:100AF00054BF23EA0C0343EA0C03336093037B687F
:100B000054BF23EA0C0343EA0C037B60D2033A6828
:100B100054BF22EA0C0242EA0C023A600AF1040ACB
:100B2000013553E700100140000401400C0401406E
:100B3000000011100000121000002110000022100F
:100B4000000031100000321000080140000C01408C
:100B50008068084018BF01207047C26802EA01039C
:100B6000914341EA034101617047002A08BF09042B
:100B70000161704705480068704700BF1A48034983
:100B800000780A6810440860704700BFB000002079
:100B900080B58948016841F010010160032000F030
:100BA00063F80F2000F004F800F020F8002080BD6A
:100BB00070B50D4E04464FF47A713078B1FBF0F009
:100BC0008A490968B1FBF0F000F0D2FA01250F2C38
:100BD00008D838B94FF0FF3021460022002500F038
:100BE00025F87460284670BD0800002082B00D48CA
:100BF0000222016841F001010160016801F0010178
:100C000001910199416841F080514160406800F0D4
:100C10008050009000980448016862F31A610160F6
:100C200002B07047181002400400014080B5144B18
:100C30001B68C3F3022CBCF1030E8CF007034FF0CA
:100C4000FF3C38BF4FF0000E042B28BF04230CFAE2
:100C500003F399430CFA0EF301FA0EF19A43114390
:100C6000BDE8804000F0F6BE05494FF6FF030A6874
:100C70001A4060F30A22034810430860704700BF1F
:100C80000CED00E00000FA052DE9F843002800F023
:100C90008E80884648490446086800F007004045B1
:100CA0000AD2086820F0070040EA080008600868D7
:100CB00000F0070040457AD120685C4B89468107E7
:100CC00011D5410742BF196841F4E061196001077D
:100CD00042BF196841F4605119601968A26821F097
:100CE000F00111431960C0072AD06068012804D1BF
:100CF00053F8041C890309D459E053F8041C022852
:100D000002D1890102D452E0890750D519681D46E5
:100D100021F0030108431860FFF72CFF064641F25B
:100D20008837286861682B4600F00C00B0EB810F13
:100D300006D0FFF71FFF801BB842F2D9032037E02F
:100D4000D9F8000000F0070040450DD9D9F800009F
:100D500020F0070040EA0800C9F80000D9F80000B8
:100D600000F00700404522D12068410705D51968E9
:100D7000E26821F4E06111431960000706D51868A4
:100D8000216920F4605040EAC10018601C4600F060
:100D900031F82168094AC1F30311515CC840F24996
:100DA000086007480068FFF703FF002000E001200B
:100DB00001B0BDE8F08300BF0020024058320008B7
:100DC0000C000020E8481949094A00680968C1F385
:100DD0000221515CC8407047E3481449044A006846
:100DE0000968C1F3C221515CC8407047100000205F
:100DF0006832000810B50D4C0D48226802F00C0353
:100E0000082B18BF10BDC2F383430AA1CB5CD103EA
:100E100002D40D48584310BD21680AA25843C1F3BB
:100E20004041515CB0FBF1F010BD00BF0410024026
:100E300000127A0002030405060708090A0B0C0DCC
:100E40000E0F10100102000000093D002DE9FC41C9
:100E5000002800F0408104460078C14EC0074AD007
:100E6000706800F00C00042817D0706800F00C00C7
:100E7000082802D17068C0030FD4606898B1B0F53B
:100E8000803F06D03168B0F5A02F21D141F48020F9
:100E90003060306840F4803020E0306880032AD52C
:100EA000606840BB17E1306820F480303060306803
:100EB00020F480203060FFF75DFE05463068800337
:100EC00019D5FFF757FE411B03206429F6D903E12A
:100ED00021F480303060306820F480203060FFF7EB
:100EE00049FE05463068800305D4FFF743FE401BEA
:100EF0006428F7D9D1E0207880072BD5706810F0EE
:100F00000C0F07D0706800F00C00082809D1706839
:100F1000C00306D43068800715D52069012812D097
:100F2000D9E021698F4800297CD001210160FFF7B9
:100F300021FE05463068800705D4FFF71BFE401BE5
:100F40000228F7D9A9E03068616920F0F80040EA8A
:100F5000C1003060207800072ED5A06978B18148A3
:100F60000121C0F88014FFF705FE0546706A80076E
:100F700015D4FFF7FFFD401B0228F7D98DE0794813
:100F80000021C0F88014FFF7F5FD0546706A800760
:100F900012D5FFF7EFFD401B0228F7D97DE072481C
:100FA0004FF4FA510068B0FBF1F0019000BF0198D6
:100FB000411E00280191F9D12078400776D5F069CB
:100FC000C0000BD4F0694FF0010840F08050F06190
:100FD000F06900F080500090009801E04FF00008A8
:100FE000624F3868C0050FD4386840F480703860AC
:100FF000FFF7C0FD05463868C00505D4FFF7BAFD08
:10100000401B6428F7D948E0E068D8B1012805D032
:10101000316A05282DD141F004003062306A40F079
:1010200001002CE000210160FFF7A4FD05463068B7
:1010300080077FF58FAFFFF79DFD411B032002293D
:10104000F5D949E0306A20F001003062306A20F0C2
:1010500004003062FFF78EFD054641F28837306AA2
:1010600080071CD5FFF786FD411B0320B942F6D946
:1010700032E021F001003062306A20F0040030627A
:10108000FFF778FD054641F28837306A800706D4BD
:10109000FFF770FD401BB842F7D903201CE0B8F100
:1010A000000F1EBFF06920F08050F061E769002F4B
:1010B00053D0706800F00C00082810D1012F0AD01E
:1010C0007068216A00F480328A4204D1616A00F4B7
:1010D0007010884241D0012002B0BDE8F081214962
:1010E000002088460866FFF745FD0546022F0AD115
:1010F00047463068800110D5FFF73CFD411B0320B7
:101100000229F6D9E8E73068800126D5FFF732FDDD
:10111000411B03200229F6D9DEE7206AB0F5803FA3
:1011200005D17168A26821F40031114371607168C2
:10113000626A104321F4741108437060012038661C
:10114000FFF718FD04463068800106D4FFF712FD52
:10115000011B03200229F6D9BEE70020BCE700BF2F
:1011600000100240000042421000002000700040C9
:10117000411E0020B0EB116F1CBF01207047044AD4
:10118000F023516003490B70072190601160704794
:1011900010E000E023ED00E058B310B5044690F8ED
:1011A000410028B9002084F84000204600F024F8CF
:1011B000242084F841002068C16821F40051C160F6
:1011C000204600F0CDFB2068016921F490410161C7
:1011D000416921F02A014161C16841F40051C160B7
:1011E00000202021606484F8411084F8421060637C
:1011F00010BD01207047000070B586B000261A4C63
:10120000CDE90466CDE90266006804F540518842E4
:1012100027D15C4802AD016841F48041016001685A
:1012200001F4804101910199016841F004010160DC
:101230002946006800F00400019001980320059001
:10124000022003904FF4007002902046FFF7ACFBA1
:101250004FF48060CDE90366294602902046FFF7EF
:10126000A3FB06B070BD00BF000801402DE9F843A4
:10127000044690F8410020281DD18846012000290D
:1012800047D01746002A44D04FF0000921201D46C0
:10129000C4F8449084F84100FFF76CFCE784A7840D
:1012A0000646A068B0F5805F07D12769002F0CBF04
:1012B000C146474619E002202BE0474615E020468C
:1012C000802132462B4600F08DFBF0B91FB117F894
:1012D000011B206805E039F8021B206800276FF326
:1012E0005F214160E08C0138E084E08C0028E6D189
:1012F0002046402132462B4600F074FB2021002876
:1013000084F8411018BF032003E0202084F8410036
:10131000032001B0BDE8F083FEE70000B0B5774CD4
:10132000774D4FF4007100222046A84720464FF425
:1013300080710122A84720464FF480710022A847FF
:1013400020464FF4007101222B46BDE8B0401847FB
:10135000F8B50C48016841F0080101606946006871
:1013600000F0080000900098032003904FF44070B4
:101370000090112001906148FFF716FB00F08AF8F9
:101380008FBD00BF18100240B0B55C4C5C4D4FF4EF
:10139000007101222046A84720464FF480710122A7
:1013A000A84720464FF4807100222B46BDE8B0408C
:1013B000184700BF2DE9F041504D8046002400271A
:1013C00017E028464FF480710122FFF7CEFB284634
:1013D0004FF40071FFF7BCFB064628464FF48071BE
:1013E0000022FFF7C2FB002E18BF012646EA47077E
:1013F0000134072CE5D9B8F1000F02D0FFF78EFFBA
:1014000001E0FFF7C1FFF8B2BDE8F08170B53B4DD8
:1014100004460026072E88BF70BD60B24FF40071ED
:10142000B0F1FF3F2846CCBF00220122FFF79DFB11
:1014300028464FF480710122FFF797FB28464FF4AE
:1014400080710022FFF791FB072E05D128464FF44B
:1014500000710122FFF789FB01366400DAE700BF63
:10146000B0B5264C264D4FF4007101222046A84706
:1014700020464FF480710122A84720464FF40071A6
:101480000022A84720464FF4807100222B46BDE879
:10149000B0401847B0B5F24C194D4FF4007100221E
:1014A0002046A84720464FF480710122A8472046D5
:1014B0004FF4007101222B46BDE8B040184700BF31
:1014C00070B5E74C0E4E4FF4007101222046B04734
:1014D00020464FF480710122B04720464FF400713E
:1014E000FFF736FB054620464FF480710022B047D7
:1014F000002D18BF0125284670BD00BF000C01401B
:101500006B0B00087CB514460D4606460DF1020330
:1015100068203B21062200F087F870B9BDF8021060
:1015200009BA090C3180BDF8041009BA090C2980E8
:10153000BDF8061009BA090C218002B070BD7CB557
:1015400014460D4606460DF102036820432106228B
:1015500000F06AF870B9BDF8021009BA090C3180C0
:10156000BDF8041009BA090C2980BDF8061009BAA3
:10157000090C218002B070BD10B5FFF7E9FE1A4CCE
:101580006B208021A0476420FFF7FEF96B2000212B
:10159000A047032000F080F8002000F078F86420D5
:1015A00000F096F838200021A0476A200021A047CB
:1015B00023200021A04737208021A047752000F07C
:1015C00015F868280CD16B20012100F098F86C20E8
:1015D0000021002400F093F8642000F079F800E086
:1015E0000124204610BD00BFFF16000870B5044658
:1015F000FFF736FF0A4DD020A8470A4EB0472046D5
:10160000A847B047FFF72CFFD120A847B0470020DC
:10161000FFF7D0FE0446FFF73DFF204670BD00BF38
:101620000D140008C1140008F8B51C4615460E46F6
:101630000746FFF715FF7F00F8B2FFF7E7FEFFF759
:101640003FFF18B1FFF726FF01201EE03046FFF7ED
:10165000DDFEFFF735FFFFF703FF47F00100C0B2E3
:10166000FFF7D4FEFFF72CFF07E0012000E0002089
:10167000FFF7A0FE04F8010B013DE8B20128F6D007
:101680000028F2D1FFF706FF002001B0F0BDC00036
:10169000C1B21C2000F033B8C000C1B21B2000F062
:1016A0002EB8BB2801D901210FE0612801D9022100
:1016B0000BE0292801D9032107E0132801D90421CF
:1016C00003E00621092888BF05211A2000F017B879
:1016D00010B5044604284FF47A7098BF0424B4F57A
:1016E0007A7F28BF0446B0FBF4F00138C1B219205C
:1016F00000F005F86008BDE81040FFF7D2BFB0B5B4
:101700000C460546FFF7ACFED020FFF77FFEFFF743
:10171000D7FE18B1FFF7BEFE0120B0BD2846FFF787
:1017200075FEFFF7CDFE2046FFF770FEFFF7C8FEFF
:101730000446002818BF0124FFF7ACFE2046B0BDC8
:10174000F8B51C4615460E460746FFF789FE780099
:10175000C0B2FFF75BFEFFF7B3FE78B93046FFF784
:1017600055FEFFF7ADFE0026AE420BD2A05DFFF79F
:101770004DFE0136FFF7A4FE0028F5D0FFF78AFEE4
:10178000012002E0FFF786FE002001B0F0BD00005E
:101790002DE9F04385B0314800224FF400554FF059
:1017A0000008016841F010010160016801F01001BA
:1017B00001910199016841F020010160016801F087
:1017C000200101910199016841F004010160016863
:1017D00001F0040101910199016841F008010160E3
:1017E0004FF40051006800F00800019001981C4877
:1017F00000F5806681463046FFF7B7F948464FF45A
:101800005C710022FFF7B1F902200124154FCDE9E8
:101810000380CDE9015401AD30462946B84703267F
:10182000702029460496CDE9024801904846B84701
:101830000D48CDF80C802946029080200190484642
:10184000B8471120CDE90386294602904FF4407035
:1018500001904846B84705B0BDE8F0831810024033
:10186000000C0140A90900080000111010B5FB4848
:101870005B4C4FF4E13300210C22C0E90043C0E986
:101880000211C0E90412C0E90611FFF785FC002827
:1018900014BFBDE8104010BDFFF771B8FEE7FEE7CA
:1018A00070477047FFF76AB9B0B590B0002401A83F
:1018B0001421CDE90B44CDE90944FEF74AFC4FF46D
:1018C000E010022501210F904FF480300E900D950D
:1018D0000A910894CDE9061006A8FFF7B7FA18B1E7
:1018E000EFF3108072B6FEE74FF48060059402219A
:1018F000CDE903400F20CDE9010501A8FFF7C4F9A8
:1019000018B1EFF3108072B6FEE710B0B0BD7047AB
:10191000016851E8031F026821F4907142E8031343
:10192000002BF5D1016851E8051F026821F0010183
:1019300042E80513002BF5D1016B012909D101689B
:1019400051E8031F026821F0100142E80313002B45
:10195000F5D1202180F8421000210163704700007A
:1019600010B5044600680169E26821F44051114352
:1019700041F20C620161D4F808C0D4E904E3C16803
:1019800091434EEA0C021A431143C1604169A269B6
:1019900021F44071114341611149884202D0FFF79F
:1019A00011FA01E0FFF718FA19214843D4E90012AF
:1019B0006FF063049200B0FBF2F06422B0FBF2F32C
:1019C00003FB0400322404EB0010B0FBF2F000F043
:1019D000F00200F00F0002EB03121044886010BD0B
:1019E000003801402DE9FC41044600681D46904640
:1019F0000F465E1C01683940B94225D0002EF9D04F
:101A0000FFF7B8F801460320FDB1A1EB0801A94298
:101A10001BD82068C1684907ECD5402F18BF802F1C
:101A2000E8D001680907E5D5002501950168019115
:101A30004068019001982046FFF76AFF082084F86B
:101A400040506064012000E0002002B0BDE8F08159
:101A5000FEE7000010B5074C00F00F03044AB0F198
:101A6000FF3F2344C8BF83180801187010BD00BF92
:101A700000E400E014ED00E02DE9F04F89B0DDF85E
:101A800048A0834600206E4F14460DF10408139AB7
:101A900089461E464146AAF80000387800F026FA2A
:101AA00010B14FF0FF30C7E0B7F804C01CF0140FBE
:101AB00052D09DF805209DF804109DF80630B646DA
:101AC0009DF80760120442EA016141EA0322091409
:101AD000324422609DF809309DF808209DF80A6084
:101AE0009DF80B501B0443EA026242EA06231214DB
:101AF0002B445243636001FB01219DF80D609DF86A
:101B00000C309DF80E509DF80F00360446EA036332
:101B100043EA05261A14304402FB0211A0609DF826
:101B200011609DF810009DF812509DF81370360456
:101B300046EA006040EA0526001400FB0010374426
:101B400000F17140E760B0F1007F07D900F01CFAA6
:101B50000020AAF80000A4E7002108E0BAF800007D
:101B6000374F1021764640F48070AAF800005FEAF3
:101B70004C6029D541F0010218F8010018F8022044
:101B800042EA002041F00302A9F8000041F00200FF
:101B900018F8000018F8022042EA002041F005027F
:101BA000A9F8020041F0040041F0060118F8000015
:101BB00018F8022042EA0020A9F80400BAF8000050
:101BC00040F00800AAF800001CF4C07F18D038F8D4
:101BD000010000BA000CABF8000008EB0100063170
:101BE000428812BA120CABF80220808800BA000CAE
:101BF000ABF80400BAF8000040F07000AAF800004A
:101C00005FEA8C7014D008EB01056878EC78C107A6
:101C100008D0BA6832B104F00701C4F3C200013140
:101C200090476878000703D5F96809B1A00988478B
:101C3000304600F071F8002009B0BDE8F08F00BF19
:101C400058000020E0B50190044801A901224FF49A
:101C50007A73FFF70BFB019802B080BD680000208B
:101C60008CB0FEF795FFFFF71FFEFFF791FDFFF722
:101C7000FDFDFFF781FC234CA01C04F114080B9020
:101C8000201D0A90A01D099004F10800089004F19D
:101C90000A00079004F10C00069004F11000059072
:101CA000DDE90A212046FFF74AFC0998DDE9072112
:101CB000FFF728FCDDE90510424600F02FF8D4E9D3
:101CC0000390D4F814A0FEF76AFC834650460E46F3
:101CD000FEF765FC074648460D46FEF760FC0246E7
:101CE00009A00B46CDE900B6CDE9027500F002FA75
:101CF00008484FF40051FEF730FF4FF4FA70FEF73A
:101D000043FECDE74000002025662C25662C256685
:101D10000A00000000100140704700002DE9F04F5C
:101D20008FB00E4605460DF129000DF12A0114462B
:101D300006AA0EABCDE900100DF132000BA9FFF79A
:101D40009BFE08B10120CCE0BDF82A00C00501D4FB
:101D50000220C6E0059406980496079CDDE9086712
:101D6000FEF714FC4FF04251FEF756FA804620462B
:101D7000FEF70CFC4FF04251FEF74EFA8346304618
:101D8000FEF704FC4FF04251FEF746FA044638468F
:101D9000FEF7FCFB4FF04251FEF73EFA064658466E
:101DA0004FF04041FEF738FA314681460296FEF781
:101DB00033FA074640464146CDF80C80FEF7D4F989
:101DC00021468046FEF728FA3946FEF7CDF9FEF7A0
:101DD000E6FB00F08BFE444B4FF06632FEF7F5FA5F
:101DE000FEF7F0FB286020462146FEF7BDF931469C
:101DF0008246FEF711FA054640465946FEF70CFAB0
:101E00002946FEF7B1F9FEF7CAFB05460F465846CC
:101E10004946FEF701FA064620465146FEF7FCF910
:101E200001463046FEF7F2F94FF07E51FEF79CF97D
:101E3000FEF7B5FB02460B462846394601F09EF8F0
:101E4000294B4FF066329946FEF7BFFAFEF7BAFB10
:101E50000499086058462146FEF7DEF9029F039E6A
:101E6000054630463946FEF7D7F901462846FEF7C3
:101E70007BF90146FEF778F9FEF791FB05468846A7
:101E800030463146FEF7C8F9064658465946FEF731
:101E9000C3F901463046FEF767F90646204621465B
:101EA000FEF7BAF901463046FEF7B0F90446384667
:101EB0003946FEF7B1F901462046FEF7A7F9FEF7CD
:101EC0006EFB02460B462846414601F057F84FF09C
:101ED00066324B46FEF779FAFEF774FB0599086007
:101EE00000200FB0BDE8F08F66A64C402DE9FC4104
:101EF0007F4F0E4605464FF0FF3097F82410A1B3F0
:101F0000B97A91B31446D7E900020DF10603817A3C
:101F100010780222FFF788FB28BB9DF806009DF889
:101F2000071041EA0028A84502D2002020701AE0DC
:101F300078684188B8EB510F0DD9396800780DF1F8
:101F400006030122497CFFF76FFB60B99DF806008C
:101F5000C00613D4786839680078EAB23346C97A83
:101F6000FFF762FB20B14FF0FF3002B0BDE8F08117
:101F7000B8FBF5F0013820700020F6E700F004F817
:101F80006FF00100F1E700BF1CB5594CA07A00B317
:101F900000200DF107038DF80700D4E90002C17B92
:101FA00010780122FFF7CCFB98B9D4E900020DF1BB
:101FB0000703417910780122FFF7C2FB48B9D4E941
:101FC00000020DF10703017910780122FFF7B8FB39
:101FD00018B14FF0FF3002B010BD94F82400F0B3F8
:101FE0000C200DF107038DF80700D4E900020179F8
:101FF00010780122FFF7A4FB0028EAD13220FEF777
:10200000C3FCA07A0DF10703C0076FF01F0008BFE3
:102010006FF03F008DF80700D4E9000201791078D5
:102020000122FFF78DFB0028D3D1607C0DF107035F
:10203000002818BF012040008DF80700D4E90002F5
:10204000C17B10780122FFF77BFB0028C1D1002063
:102050000DF107038DF80700D4E900023DE00420EC
:102060000DF107038DF80700D4E90002017910781B
:102070000122FFF765FB0028ABD1A07C08B140200E
:1020800005E0A07AC0074FF0600008BF40208DF83F
:1020900007000DF10703D4E900020179107801224D
:1020A000FFF74EFB002894D13220FEF76DFC607CD8
:1020B0000DF10703002818BF01208DF80700D4E9AF
:1020C0000002C17B10780122FFF73AFB00287FF461
:1020D00080AFD4E9000204F11003417910780122A5
:1020E000FFF72EFB00287FF474AF002073E700BFDA
:1020F000140000200FB4054B10B503A9044A029840
:1021000000F05CF910BC5DF814FB0000451C0008F1
:1021100000000020490050EAC12018BF04204A0DE9
:1021200018BF40F0010040F2FF72B2EB515F08BFF0
:1021300040F00200012808BF052070472DE9F0415A
:102140004F1E00EBC7010446D1E9000115461E46AB
:1021500037F006020DD02A463346FEF736F97F1EC9
:1021600004EBC703D3E90023FEF788F837F0060233
:10217000F1D1022F25D0042F13D0062F18BFBDE8B0
:10218000F0812A463346FEF720F9D4E90A23FEF708
:1021900075F82A463346FEF718F9D4E90823FEF706
:1021A0006DF82A463346FEF710F9D4E90623FEF708
:1021B00065F82A463346FEF708F9D4E90423FEF70A
:1021C0005DF82A463346FEF700F9D4E90223FEF70C
:1021D00055F82A463346FEF7F8F8D4E90023BDE85F
:1021E000F041FEF74BB80122FEF704BBFEF746B8FC
:1021F0000022134610461146FEF759B9024A002044
:102200001107FEF7F7BA000001FDFFFF02E008C862
:10221000121F08C1002AFAD170477047002001E060
:1022200001C1121F002AFBD170470000014908605C
:1022300070470000040000202DE9FF5F82B00021FC
:10224000DDE90430020DDDF840B0034318D044F658
:102250001050A2F2FF3242431514119801281FD0EA
:10226000A5EB0B00401C5FEA000A4FF000064E4F42
:10227000DFF83891B046504615D5CAF1000413E096
:10228000119801244AA3012801D16FEA0B01029899
:10229000119AC0E90031C0E9024206B0BDE8F09FE2
:1022A000CBF10000DFE704460021404A491842EB29
:1022B0000450CDE9001012E0E00707D032463B465B
:1022C00040464946FEF781F88046894632463B46FD
:1022D00010461946FEF779F806460F466410002CA2
:1022E000EAD1DDE90401DDE90023BAF1000F06DAE5
:1022F000FEF76BF842464B46FEF767F805E0FEF73F
:10230000D6F842464B46FEF7D2F804460E46002267
:10231000284BFEF7B7FA03D84FF0FF30014607E02D
:102320000022254B20463146FDF7A8FFFEF779FA3B
:10233000102409E0002C0ADB0A220023FEF774F9BE
:10234000039B30321A55641E50EA0102F2D1641C1C
:10235000039AC4F111031444119A012A03D00122F3
:1023600008430DD10AE0084304D000204FF0110BC0
:10237000119072E7A3EB0B056D1E0DE05B4504DDCC
:102380004FF0000205F1010504E003DA4FF000020E
:10239000A5F10105002AECD002981199C0E902319B
:1023A000C0E9004579E70000000014400000F03F5C
:1023B000300000000000F0430000E03F2DE9FF4F37
:1023C00095B09B468946064600250FE2252877D121
:1023D00000242746F84A0121059400E0044316F83A
:1023E000013F203B01FA03F01042F7D130782A2850
:1023F00011D06FF02F033078A0F13002092A16D8DF
:10240000059A44F0020402EB820203EB42021044FC
:10241000761C0590EFE759F8042B0592002A03DAA1
:10242000504244F40054059044F00204761C307885
:102430002E2816D116F8010F44F004042A280DD0D6
:102440006FF02F023078A0F13003092B09D807EB89
:10245000870302EB4303C718761CF3E759F8047BA4
:10246000761C30786C280FD006DC4C2817D06828F2
:102470000DD06A2814D104E0742810D07A280FD126
:102480000DE044F400140AE044F4801401E044F444
:1024900040147278824202D104F58014761C761CB6
:1024A000307866280BD013DC582877D009DC002858
:1024B00075D04528F6D04628F4D047281AD19DE19A
:1024C00018E0632835D0642879D0652812D195E1C9
:1024D000702873D008DC6728F1D069286FD06E2887
:1024E0000DD06F2806D1B5E073282CD0752875D093
:1024F000782874D05A46179990476D1C75E1C4F33B
:102500000250022809D003280DD0D9F80010042861
:102510000DD00D6009F1040967E1D9F80010EA1740
:10252000C1E90052F6E7D9F800100D80F2E70D700E
:10253000F0E719F8041B8DF8001000208DF8010059
:10254000EA46012003E059F804AB4FF0FF30610781
:102550004FF0000102D40DE008F101018846B942B4
:102560000FDA8045F8DB1AF808100029F4D108E0EA
:1025700008F1010188468142FADB1AF808100029A7
:10258000F6D105985B46A0EB080721463846179A16
:1025900000F094FA284400EB080507E04DE029E13B
:1025A0000DE01AF8010B5A4617999047B8F1010847
:1025B000F7D25B4621463846179A13E142E00A22D9
:1025C0000092C4F302524FF0000A022A08D059F8D0
:1025D00004CB032A4FEAEC710AD00DE029E02AE08F
:1025E00009F1070121F00702F2E802C1914609E072
:1025F0000FFA8CFC4FEAEC71042A03D14FFA8CFCE1
:102600004FEAEC71002907DA0A460021DCF1000CE0
:1026100061EB02012D2202E0220504D52B228DF868
:102620000420012203E0E20701D02022F7E79046D0
:1026300059E00A2102E010220DE010214FF0000ABB
:1026400000910BE010224FF0000A44F00404082728
:10265000009203E008224FF0000A0092C4F30252F5
:10266000022A05D059F804CB0021032A08D009E03A
:1026700009F1070121F00702F2E802C1914605E0E5
:102680001FFA8CFC042A01D10CF0FF0C4FF000085B
:10269000220728D5702806D0009B83F0100353EA48
:1026A0000A0305D00EE040228DF80420012208E044
:1026B0005CEA010206D030228DF804208DF8050076
:1026C00002229046009B83F0080353EA0A030AD1D2
:1026D0005CEA010201D1620705D530228DF80420A1
:1026E0004FF001087F1E582804D034A003900EA894
:1026F00002900DE036A0F9E753466046009AFDF7D8
:1027000093FF84460398825C0298401E02900270F8
:102710005CEA0100F0D1029806A9081A00F1200A2B
:10272000600702D524F4803400E00127574502DD1C
:10273000A7EB0A0000E0002000EB0A0100900598DA
:102740004144401A0590E00306D45B462146179A9F
:10275000059800F0B3F90544002706E001A85A46A1
:10276000C05D179990476D1C7F1C4745F6DBE00361
:102770000CD55B462146179A059800F09FF9054451
:1027800004E030205A46179990476D1C0099481E66
:1027900000900029F5DC08E0029802995A4600787A
:1027A000491C0291179990476D1CBAF10001AAF1DA
:1027B000010AF1DC65E10000092801003031323303
:1027C000343536373839616263646566000000006D
:1027D0003031323334353637383941424344454657
:1027E0000000000000F058F90544761C30780028FD
:1027F0007FF4ECAD19B02846BDE8F08F620700D435
:10280000062709F1070222F0070CFCE80223E14643
:1028100003F000485FEA080C02D00FF2702C0DE0C4
:102820005FEA045C02D50FF2682C07E05FEAC47C23
:1028300002D00FF2602C01E0AFF2700C4FF0FF38C5
:1028400023F00043CDF850C065280CD006DC4528A5
:1028500009D046281DD047283DD13DE0662818D034
:1028600067287ED138E00021112F01DB112000E024
:10287000781CCDE9000106A90EA8FFF7DDFCDDE913
:102880000F010E9A03910021009207F1010A0491B1
:102890004DE04FF000400097CDE9011006A90EA8C9
:1028A000FFF7CAFCDDE90F0203920E9B119900228B
:1028B000DDF80CA00093049211B9791C00EB010A19
:1028C000B7EB0A0004D4C0F1FF3007F1010A04900D
:1028D000AAEB0700019044E0012F00DA0127002154
:1028E000112F01DD112000E03846CDE9000106A9D5
:1028F0000EA8FFF7A1FCDDE90F010E9A039100215C
:1029000004910092BA4621070CD40399514500DA8C
:102910008A46BAF1010F05DD009AAAF10101515C66
:10292000302908D0B84202DA10F1040F06DA01218A
:10293000CDE9011015E0AAF10101E9E7002805DC65
:10294000049901440491AAEB000102E0411C5145A5
:1029500000DD8A460499401A401C01904FF0004067
:102960000290200704D40198504501DBCDF8048083
:1029700000208DF84F0002980DF14F07B0F1004F85
:1029800025D02B200E9002984FF0020800280CDA78
:10299000404202902D200E9007E00A210298FDF798
:1029A0002DFE3031029007F8011DB8F10001A8F1A9
:1029B0000108F2DC02980028EFD1791E0E98087009
:1029C000307800F0200040F0450007F8020D12A812
:1029D000C01B00F107081498007800B1012000EB3B
:1029E0000A01019801EBE07105984144401A401E2C
:1029F0000590E00306D45B462146179A059800F03F
:102A00005DF805441498007818B15A461799904714
:102A10006D1CE00324D55B462146179A059800F00B
:102A20004DF805441CE00498002807DBDDE90301AC
:102A3000884203DD0098405C179901E01799302027
:102A40005A469047049805F10105401C04900198EE
:102A5000401E019004D12E205A46179990476D1CB4
:102A6000BAF10001AAF1010ADDDC05E017F8010B5B
:102A70005A46179990476D1CB8F10001A8F101085A
:102A8000F4DC5B462146179A0598ABE62D00000062
:102A90002B000000200000002DE9F0410446002535
:102AA0001E461746880404D405E039462020B04766
:102AB0006D1C641EF9D52846BDE8F0812DE9F04172
:102AC000044600251E469046C80301D5302700E085
:102AD0002027880404D505E041463846B0476D1CE0
:102AE000641EF9D52846BDE8F08100002DE9F04DBF
:102AF0008D4F21F0004A86B005460C46BA452ADBC8
:102B0000AAEB070028430AD08848824501DC1AD185
:102B1000CDB106B02846BDE8F04DFFF764BB844A4E
:102B2000844B2846FDF751FC07460E46824A834BEC
:102B300028462146FDF749FC06B03A463346BDE833
:102B4000F04DFDF79BBB0120FFF770FB06B0BDE821
:102B5000F04DFFF74DBB7A48824542DABAF1795F12
:102B60000BDA2846FFF7D6FA042808BFFFF746FB22
:102B7000284606B02146BDE8F08D2A460B46104691
:102B8000FDF723FC834602466E480E460B4606219F
:102B90007844FFF7D3FA5A463346FDF716FC8046D1
:102BA00069488A465A46334604217844FFF7C6FAF4
:102BB0005A463346FDF709FC00223B46FDF75EFB13
:102BC00002460B4640465146FDF771FC2A46234615
:102BD000FDF7FBFB06B02A462346BDE8F04DFDF7A6
:102BE0004DBB284624F0004100223D463B46FDF700
:102BF000E9FB4FF0FF32FDF7FDFD06460246534864
:102C00000F460B4606217844FFF798FA32463B46BA
:102C1000FDF7DBFBCDE900014D4832463B46042180
:102C20007844FFF78BFA32463B46FDF7CEFB002295
:102C30002B46FDF723FB834602913046394600F0D0
:102C40006BFA804643480D46504517DCDDE900012C
:102C50005A46029BFDF72BFC42462B46FDF7B5FB7F
:102C600042462B46FDF70AFB0122FDF7C3FD304A21
:102C7000304BFDF7A4FB304A304B4CE04FF0000ADC
:102C800052460B464046FDF7F9FACDE9031052468D
:102C90002B4610461946FDF798FB32463B46FDF79A
:102CA00091FBDDE90332FDF702FC06460F46DDE944
:102CB00000015A46029BFDF7FAFB83460091012270
:102CC00030463946FDF796FD194A1A4BFDF77AFB57
:102CD00006460F46012240462946FDF78BFD5A461F
:102CE000009BFDF772FB32463B46FDF768FB06464C
:102CF0000F46012250462946FDF77CFD0E4DDFF8B8
:102D000058802A464346FDF75DFB32463B46FDF7B9
:102D100059FB2A464346FDF755FB002CD8BF81F0EE
:102D2000004106B0BDE8F08D0000F03F0000F07FEC
:102D3000075C143326A6913C182D4454FB21F93F1F
:102D40000000E03FD4050000EA0500005E05000039
:102D5000740500003333EF3FFB21E93F2DE9F84FC5
:102D600004460D4621F0004000917349814211DC78
:102D70007249884201DC06D12CB120462946BDE8C3
:102D8000F84FFFF730BA6E48002DCCBF6D496E4941
:102D9000BDE8F88F6D49814211DD6D498142D8BF90
:102DA0004FF0FF366DDD20462946FFF7B3F90428C2
:102DB00008BFFFF723FA20462946BDE8F88F65498A
:102DC000654F25F00045814233DD6449814219DDBC
:102DD000002632464FF0804320462946FDF74EFA42
:102DE00080468A46012220462946FDF703FD00223F
:102DF0003B46FDF7E4FA42465346FDF758FB0446CE
:102E00000D463EE001260022BA463B4620462946B2
:102E1000FDF734FA80460F460022534620462946E5
:102E2000FDF7CDFA42463B46FDF741FB04460D4611
:102E300027E04B4981421BDDDFF828A10226002252
:102E4000534620462946FDF7C0FA00223B46FDF7CF
:102E500015FA80460F460022534620462946FDF7C4
:102E6000AEFA42463B46FDF722FB04460D4608E01B
:102E7000032622462B4600203B49FDF718FB04465B
:102E80000D4622462B4610461946FDF79EFA8B4604
:102E9000824602460B46FDF798FA0746024633483B
:102EA00088460B4606217844FFF748F952465B46B0
:102EB000FDF78BFA82462E488B463A46434605215B
:102EC0007844FFF73BF93A464346FDF77EFA02465F
:102ED0000B46002E504659460CDAFDF7CFF9224634
:102EE0002B46FDF772FA01B022462B46BDE8F04FA3
:102EF000FDF768BAFDF7C2F922462B46FDF765FAE1
:102F00001C4A7A4402EBC603D3E90023FDF757FAC3
:102F100022462B46FDF753FA174A7A4402EBC603C2
:102F2000D3E90023FDF74EFA009A002AB8BF81F0DA
:102F30000041BDE8F88F0000000010440000F07F61
:102F4000182D4454FB21F93FFB21F9BF0000DC3F61
:102F50000000203E0000F33F0000F03F0000E63F8D
:102F6000008003400000F83F0000F0BF760300003F
:102F700034030000D20200009A0200002DE9F04D57
:102F80009446CCF1000423F000464CEA0404594F67
:102F900046EAD4749A46884621F00042BC4206D8DC
:102FA000454240EA050442EAD474BC4204D9BDE873
:102FB000F04D6246FFF71AB9AAF14055A5F17F65B9
:102FC00055EA0C040BD0022404EAAA744A4DDFF837
:102FD0002CE144EAD87452EA000B04D00CE0BDE8BE
:102FE000F04DFFF7BBBE002C14BF012CBDE8F08DE7
:102FF000022C30D0032C32D056EA0C0B0AD0BE4241
:1030000020D1BA4209D126F0804622F080423346D0
:10301000114617E000291ADB25E0DFF8E4B0FB4495
:10302000002C04BFDBE90001BDE8F08D012C02BFDC
:10303000DBE9000181F00041BDE8F08D022C0AD0EF
:10304000032C0CD0BA4212D1B8F1000F0BDA2A4887
:103050002C49BDE8F08D28462B49BDE8F08D284667
:103060007146BDE8F08D24482849BDE8F08D921BDB
:1030700012153C2AC4BF204F244E10DCBAF1000FB9
:10308000BEBF12F13C0F00273E4608DB6246FDF74B
:103090000EFA21F00041FFF761FE07460E4694B19B
:1030A000012C08BF86F000460DD0194A194B022C9E
:1030B0003846314615D0FDF782F92A46BDE8F04D75
:1030C000114BFDF77CB90022134638463146FDF717
:1030D000C1FB04BF0220FFF7A9F838463146BDE81E
:1030E000F08DFDF76CF92A46BDE8F04D064BFDF773
:1030F00069B900000000F07F182D4454FB2109C07D
:103100002E020000FB21F9BFFB210940FB21F93F02
:10311000075C143326A6A13C2DE9F04106460F4674
:10312000FDF7DAFB041E0D4618BF0120284320F0EE
:103130000040C0F17F6000F1E040C00F0ED0301CB5
:1031400018BF0120384320F00040C0F17F6000F13B
:10315000E040C00F04BF0120FFF768F82046294671
:10316000BDE8F08100000000555555555555C53F47
:103170007D6FEB0312D6D4BF5544880E55C1C93FAD
:103180003B8F68B52882A4BF88B20175E0EF493F44
:1031900009F7FD0DE13D023F4B2D8A1C273A03C084
:1031A000C88A599CE52A004059018D1B6C06E6BF70
:1031B00082922EB1C5B8B33F4FBB610567ACDD3F0E
:1031C000182D4454FB21E93F9BF681D20B73EF3F4E
:1031D000182D4454FB21F93FE2652F227F2B7A3CC6
:1031E000075C143326A6813CBDCBF07A8807703C7F
:1031F000075C143326A6913CC4EB98999999C9BFF2
:10320000711623FEC671BCBF6D9A74AFF2B0B3BF26
:103210009AFDDE522DDEADBF2F6C6A2C44B4A2BFE6
:103220000D5555555555D53FFF8300922449C23F52
:103230006E204CC5CD45B73F513DD0A0660DB13F86
:10324000EB0D76244B7BA93F11DA22E33AAD903F98
:10325000000000000000000000000000000000006E
:10326000010203040607080900000000010203042C
:103270006800000476005401F7FD000175191A0C6E
:103280006A231B1C1F207274433B4138393A6B6C14
:10329000376F06246D6E7000830000000008000088
:1032A0000001001832000500000020410000D24259
:1032B000295C0F3E9A99993E3333733F295C0F3E48
:1032C000E032000800000020400000000C2200084E
:1032D0002033000840000020780400001C22000871
:1032E00000000000000000000100000010000000CD
:1032F00000127A007C3200087032000800000000E2
:1033000000000000000000000000000000000000BD
:1033100000000000000000000000000098320008DB
:04000005080000ED02
:00000001FF
