:020000040800F2
:100000001807002089010008F914000851100008A1
:10001000F51400085B03000831160008000000001A
:10002000000000000000000000000000291500088A
:100030005F03000800000000FD1400082B150008F5
:10004000A3010008A3010008A3010008A301000800
:10005000A3010008A3010008A3010008A3010008F0
:10006000A3010008A3010008A3010008A3010008E0
:10007000A3010008A3010008A3010008A3010008D0
:10008000A3010008A3010008A3010008A3010008C0
:10009000A3010008A3010008A3010008A3010008B0
:1000A000A3010008A3010008A3010008A3010008A0
:1000B000A3010008A3010008A3010008A301000890
:1000C000A3010008A3010008A3010008A301000880
:1000D000A3010008A3010008A3010008A301000870
:1000E000A3010008A3010008A301000800F002F822
:1000F00000F03AF80AA090E8000C82448344AAF188
:100100000107DA4501D100F02FF8AFF2090EBAE885
:100110000F0013F0010F18BFFB1A43F0010318473B
:10012000E856000008570000103A24BF78C878C18C
:10013000FAD8520724BF30C830C144BF04680C60ED
:10014000704700000023002400250026103A28BF35
:1001500078C1FBD8520728BF30C148BF0B60704739
:100160001FB51FBD10B510BD00F0C2F81146FFF756
:10017000F7FF02F0E5FB00F0E0F803B4FFF7F2FF51
:1001800003BC00F0E3F80000094880470948004735
:10019000FEE7FEE7FEE7FEE7FEE7FEE7FEE7FEE737
:1001A000FEE7FEE704480549054A064B7047000094
:1001B00033150008ED000008180100201807002082
:1001C000180300201803002040EA010310B59B0724
:1001D0000FD1042A0DD310C808C9121F9C42F8D0B1
:1001E00020BA19BA884201D9012010BD4FF0FF3062
:1001F00010BD1AB1D30703D0521C07E0002010BD78
:1002000010F8013B11F8014B1B1B07D110F8013B03
:1002100011F8014B1B1B01D1921EF1D1184610BDE4
:1002200002F0FF0343EA032242EA024200F037B839
:100230004FF0000200B5134694469646203922BF7F
:10024000A0E80C50A0E80C50B1F12001BFF4F7AFCA
:10025000090728BFA0E80C5048BF0CC05DF804EBAC
:10026000890028BF40F8042B08BF704748BF20F81A
:10027000022B11F0804F18BF00F8012B7047704718
:100280007047704710B500F02BF8006810BD10B52E
:10029000044600F025F8046010BD4FF00002042968
:1002A000C0F0128010F0030C3FF4C4AFCCF1040C8A
:1002B000BCF1020F18BF00F8012BA8BF20F8022BD9
:1002C000A1EB0C01FFF7B6BF5FEAC17C24BF00F8C9
:1002D000012B00F8012B48BF00F8012B70470000EC
:1002E00000487047B800002000487047B800002060
:1002F0007546FFF7F9FFAE4605006946534620F004
:100300000700854618B020B5FFF74CFFBDE8204038
:100310004FF000064FF000074FF000084FF0000BC1
:1003200021F00701AC46ACE8C009ACE8C009ACE874
:10033000C009ACE8C0098D46704710B50446AFF35C
:1003400000802046BDE81040FFF717BF0149182084
:10035000ABBEFEE726000200704700BFFEE7704715
:1003600072B600BFFEE7000070B5044600F0B8F9B1
:1003700006462546681C10B104480078054400BFB5
:1003800000F0AEF9801BA842FAD370BD58000020DF
:100390002DE9F8470346002294466EE14FF001082C
:1003A00008FA02F4D1F8008008EA0400A0427DD1E6
:1003B000DFF8DCA2D1F80480A8EB0A09D0453AD0D6
:1003C00014DCB8F1030F50D009DCB8F1000F31D0C4
:1003D000B8F1010F1CD0B8F1020F49D120E0B8F1FB
:1003E000110F18D0B8F1120F42D11EE0B9F5881FD5
:1003F00025D006DCB9F5803F20D0B9F5801F37D174
:100400001AE0B9F5001F18D0B9F5041F30D117E074
:10041000D1F80CC02DE0D1F80C8008F1040C28E0D4
:10042000D1F80C8008F1080C23E0D1F80C8008F119
:100430000C0C1EE000BF00BF00BF00BF00BF00BF2C
:10044000D1F80880B8F1000F02D14FF0040C0BE096
:10045000D1F80880B8F1010F03D14FF0080C1C61EE
:1004600002E04FF0080C5C6103E04FF0000C00E08C
:1004700000BF00BFFF2801D8984601E003F104083F
:100480004646FF2802D84FEA820803E0A2F1080896
:100490004FEA88084746D6F800804FF00F0909FA5E
:1004A00007F928EA09080CFA07F900E088E048EAA9
:1004B0000908C6F80080D1F8048008F08058B8F127
:1004C000805F7DD100BFDFF8CC81D8F8188048F07C
:1004D0000108DFF8C091C9F81880C846D8F818801C
:1004E00008F00108CDF8008000BF00BF4FEAB9381E
:1004F0004FEA920958F829504FEA82784FEA187962
:100500004FF00F0808FA09F825EA0805DFF8888196
:10051000434502D14FF0000816E0DFF880814345E3
:1005200002D14FF001080FE0DFF87481434502D19A
:100530004FF0020808E0DFF86C81434502D14FF02C
:10054000030801E04FF004084FEA82794FEA197975
:1005500008FA09F848EA0505DFF84C814FEA9209E4
:1005600048F82950D1F8048008F48018B8F5801FA5
:100570000AD1DFF83881D8F8008048EA0008DFF8AF
:100580002C91C9F8008009E0DFF82081D8F80080BC
:1005900028EA0008DFF81491C9F80080D1F8048037
:1005A00008F40018B8F5001F10D1DFF8008108F139
:1005B0000408D8F8008048EA0008DFF8F09000E06E
:1005C0005AE009F10409C9F800800DE0DFF8DC8089
:1005D00008F10408D8F8008028EA0008DFF8CC9079
:1005E00009F10409C9F80080D1F8048008F4003842
:1005F000B8F5003F0ED1DFF8B480A8F10408D8F8B0
:10060000008048EA0008DFF8A490A9F10409C9F8BD
:1006100000800DE0DFF89480A8F10408D8F800808D
:1006200028EA0008DFF88490A9F10409C9F80080DD
:10063000D1F8048008F48038B8F5803F0ED1DFF897
:100640006C80A8F10808D8F8008048EA0008DFF8B4
:100650005C90A9F10809C9F800800DE0DFF84C8032
:10066000A8F10808D8F8008028EA0008DFF83C90D4
:10067000A9F10809C9F80080521CD1F8008028FAB5
:1006800002F8B8F1000F7FF489AEBDE8F8870000EA
:10069000000011100010024000080140000C014051
:1006A000001001400014014008000140080401400E
:1006B000024693680B400BB1012000E00020704718
:1006C00010B5C26821EA020302EA010443EA0443C6
:1006D000036110BD0AB1016101E00B0403617047C1
:1006E000014800687047000050000020034800687F
:1006F0000349097808440149086070475000002008
:100700005800002010B50848006840F01000064965
:100710000860032000F098F80F2000F007F800F0C0
:100720002BF8002010BD00000020024070B50446E8
:100730000E4800784FF47A71B1FBF0F00C4909686B
:10074000B1FBF0F5284600F0E9FB08B1012070BDCF
:10075000102C07D200222146501E00F037F8054821
:10076000046001E00120F2E70020F0E758000020DB
:100770005C0000205400002008B500BF11488069CB
:1007800040F001000F4988610846806900F00100CF
:10079000009000BF00BF00BF0846C06940F0805015
:1007A000C8610846C06900F08050009000BF00BFDB
:1007B00000BF0549486820F0E06040F000704860E4
:1007C00000BF08BD00100240000001402DE9F05FAD
:1007D00080460D461646002701F00EF807463946BA
:1007E0002A46334601F00700C0F1070ABAF1040FA8
:1007F00002D94FF0040A01E0C0F1070AD14600F126
:10080000040ABAF1070F02D24FF0000A01E0A0F18A
:10081000030AD4464FF0010A0AFA09FAAAF1010ABA
:100820000AEA020A0AFA0CFA4FF0010B0BFA0CFB67
:10083000ABF1010B0BEA030B4AEA0B0421464046DD
:1008400000F0E2FFBDE8F09F00BF00F00702064B9A
:1008500019684FF6FF031940044B0B4343EA02218A
:10086000014B196000BF70470CED00E00000FA0575
:1008700070B504460D460CB9012070BD5A48006899
:1008800000F00700A8420ED25748006820F0070089
:100890002843554908600846006800F00700A84250
:1008A00001D00120E9E7207800F0020002281DD1E4
:1008B000207800F00400042805D14C48406840F43A
:1008C000E0604A494860207800F00800082805D117
:1008D0004648406840F46050444948604348406896
:1008E00020F0F000A168084340494860207800F0FB
:1008F000010078B36068012806D13C48006800F424
:10090000003090B90120B8E76068022806D1374866
:10091000006800F0007040B90120AEE7334800687D
:1009200000F0020008B90120A7E73048406820F035
:100930000300616808432D494860FFF7D1FE064671
:1009400009E0FFF7CDFE801B41F28831884202D9D1
:10095000032092E707E02548406800F00C0061683A
:10096000B0EB810FEDD12048006800F00700A842ED
:100970000ED91D48006820F0070028431A49086076
:100980000846006800F00700A84201D0012074E783
:10099000207800F00400042807D11448406820F4AF
:1009A000E060E168084311494860207800F00800E1
:1009B000082808D10D48406820F46050216940EAB9
:1009C000C1000A49486000F03FF808494968C1F38E
:1009D0000311074A515CC840064908600648006890
:1009E000FFF7A4FE002048E700200240001002406C
:1009F000FC5600085C0000205400002001480068FC
:100A0000704700005C00002000B5FFF7F7FF0449C5
:100A10004968C1F30221034A515CC84000BD00008F
:100A2000001002400C57000800B5FFF7E7FF04492B
:100A30004968C1F3C221034A515CC84000BD0000AF
:100A4000001002400C57000870B50021002200245D
:100A500000230020134D696801F00C05F5B1042D49
:100A600002D0082D19D101E00F4819E00F4DC1F354
:100A70008346AB5D01F4803555B10A4D6D68C5F311
:100A800040450B4E725D084D5D43B5FBF2F402E04C
:100A9000084D03FB05F4204602E000BF024800BFFA
:100AA00000BF70BD0010024000127A00EA56000834
:100AB000FA56000800093D00F8B504460CB90120BB
:100AC000F8BD207800F00100002878D0F848406890
:100AD00000F00C0004280CD0F548406800F00C0031
:100AE000082811D1F248406800F48030B0F5803F0A
:100AF0000AD1EF48006800F4003000285FD0606839
:100B000000285CD10120DBE700BF6068B0F5803FC2
:100B100006D1E748006840F48030E549086028E0E5
:100B2000606858B9E248006820F48030E049086005
:100B30000846006820F4802008601AE06068B0F57C
:100B4000A02F0BD1DA48006840F48020D849086013
:100B50000846006840F4803008600AE0D448006825
:100B600020F48030D24908600846006820F48020D4
:100B7000086000BF606888B1FFF7B2FD054606E077
:100B8000FFF7AEFD401B642801D9032098E7C84851
:100B9000006800F400300028F2D010E0FFF7A0FD5C
:100BA000054606E0FFF79CFD401B642801D90320A1
:100BB00086E7BF48006800F400300028F2D12078B2
:100BC00000F00200022857D1B948406800F00C003C
:100BD00050B1B748406800F00C00082818D1B4485C
:100BE000406800F4803098B9B148006800F0020015
:100BF00020B12069012801D0012061E7AC480068DC
:100C000020F0F800616940EAC100A949086033E0BA
:100C10002069E8B10120A7490860FFF761FD05469A
:100C200006E0FFF75DFD401B022801D9032047E7DE
:100C30009F48006800F002000028F2D09C4800683D
:100C400020F0F800616940EAC1009949086013E0AA
:100C5000002098490860FFF743FD054606E0FFF7CE
:100C60003FFD401B022801D9032029E79048006876
:100C700000F002000028F2D1207800F008000828D7
:100C80002DD1A069B8B101208B490860FFF728FD7C
:100C9000054606E0FFF724FD401B022801D903208A
:100CA0000EE78348406A00F002000028F2D00120DD
:100CB00000F026FC13E000207F490860FFF710FDDC
:100CC000054606E0FFF70CFD401B022801D9032072
:100CD000F6E67748406A00F002000028F2D120785A
:100CE00000F00400042873D100277148C06900F0A7
:100CF000805070B900BF6E48C06940F080506C49A8
:100D0000C8610846C06900F08050009000BF00BF75
:100D100001276A48006800F48070B0B9674800682D
:100D200040F4807065490860FFF7DAFC054606E08C
:100D3000FFF7D6FC401B642801D90320C0E65F48BA
:100D4000006800F480700028F2D000BFE06801283D
:100D500006D15748006A40F001005549086227E073
:100D6000E06858B95248006A20F001005049086212
:100D70000846006A20F00400086219E0E0680528CF
:100D80000BD14B48006A40F004004949086208460C
:100D9000006A40F0010008620AE04548006A20F05D
:100DA0000100434908620846006A20F00400086216
:100DB00000BFE068A0B1FFF793FC054609E0FFF72C
:100DC0008FFC401B41F28831884202D9032077E62C
:100DD00022E03748006A00F002000028EFD012E05D
:100DE000FFF77EFC054608E0FFF77AFC401B41F266
:100DF0008831884201D9032062E62D48006A00F05C
:100E000002000028F0D1012F05D12948C06920F047
:100E100080502749C86100BFE069C8B324484068D2
:100E200000F00C00082860D0E069022848D10020BA
:100E300020490866FFF754FC054606E0FFF750FC22
:100E4000401B022801D903203AE61948006800F047
:100E500000700028F2D1206AB0F5803F07D1144815
:100E6000406820F40030A168084311494860D4E983
:100E7000080108430E49496821F4741108430C49DC
:100E8000486001200B490866FFF72AFC054607E089
:100E90003DE0FFF725FC401B022801D903200FE6A7
:100EA0000348006800F000700028F2D02FE0000036
:100EB00000100240000042428004424200700040A4
:100EC000002014490866FFF70BFC054606E0FFF713
:100ED00007FC401B022801D90320F1E50E480068F9
:100EE00000F000700028F2D111E0E069012800D183
:100EF000E6E50948466806F48031206A814204D15B
:100F000006F47011606A814201D00120D8E500200A
:100F1000D6E50000000042420010024070B50446D1
:100F20002546681EB0F1807F01D301200FE0681EC6
:100F30004FF0E02148610F214FF0FF3000F064FCDA
:100F400000204FF0E021886107200861002070BD7B
:100F500010B504460CB9012010BDA06900B100E035
:100F600000BF94F8410028B9002084F840002046D2
:100F700000F02AF8242084F841002068C06820F49A
:100F800000502168C860204600F0D4FA206800694B
:100F900020F49040216808612068406920F02A0010
:100FA000216848612068C06840F400502168C8602A
:100FB00000206064202084F8410084F84200002072
:100FC000606300BFC8E7000010B586B0044600208B
:100FD00002900390049005901A49206888422ED10F
:100FE00000BF1948806940F480401749886108466D
:100FF000806900F48040019000BF00BF00BF084638
:10100000806940F0040088610846806900F00400AF
:10101000019000BF00BF48150290022003900320FA
:10102000059002A90948FFF7B3F94FF480600290D8
:1010300000200390049002A90448FFF7A9F906B024
:1010400010BD0000003801400010024000080140BF
:1010500000BFFEE710B500224FF400710C48FFF707
:1010600039FB00F017F8012211020948FFF732FBA3
:1010700000F010F800224FF480710548FFF72AFBBA
:1010800000F008F8012251020148FFF723FB10BDD0
:10109000000C0140002001E0411CC8B20A28FBDB23
:1010A0007047000000B585B000BF0E48806940F071
:1010B00008000C4988610846806900F0080000902B
:1010C00000BF00BF4FF44070019003200490112036
:1010D000029001A90448FFF75BF900F0A1F805B000
:1010E00000BD000000100240000C014010B50122BC
:1010F00051020A48FFF7EEFAFFF7CCFF0122110276
:101100000648FFF7E7FAFFF7C5FF00224FF48071AA
:101110000248FFF7DFFAFFF7BDFF10BD000C0140EA
:1011200070B50546002400261AE06006040E012270
:1011300011021048FFF7CEFAFFF7ACFF4FF4007131
:101140000C48FFF7B5FA08B1601CC4B200224FF496
:1011500080710848FFF7BEFAFFF79CFF701CC6B20B
:10116000082EE2DB15B9FFF7C1FF01E0FFF772FFC0
:10117000204670BD000C014070B5044600252AE0F1
:1011800004F0800028B1012251021448FFF7A2FAAE
:1011900005E000224FF400711048FFF79BFAFFF7BB
:1011A00079FF012211020D48FFF794FAFFF772FF51
:1011B00000224FF480710948FFF78CFA072D04D103
:1011C000012251020548FFF785FA6006040EFFF779
:1011D00061FF681CC5B2082DD2DB70BD000C014058
:1011E00010B5012251020D48FFF774FA01221102D5
:1011F0000A48FFF76FFAFFF74DFF00224FF4007126
:101200000648FFF767FAFFF745FF00224FF48071A9
:101210000248FFF75FFAFFF73DFF10BD000C0140E9
:1012200010B500224FF400710748FFF753FA01226E
:1012300011020548FFF74EFAFFF72CFF0122510279
:101240000148FFF747FA10BD000C014010B501221C
:1012500051020F48FFF73EFAFFF71CFF012211026F
:101260000B48FFF737FAFFF715FF4FF400710848F6
:10127000FFF71EFA08B1012400E0002400224FF419
:1012800080710348FFF726FAFFF704FF204610BDE0
:10129000000C014010B5FFF705FF80216B2000F026
:1012A000D7F86420FFF760F800216B2000F0D0F839
:1012B000032000F08BF8002000F080F8322000F0CE
:1012C000AAF80021382000F0C3F800216A2000F0BD
:1012D000BFF80021232000F0BBF88021372000F068
:1012E000B7F8752000F013F80446682C0BD10121E3
:1012F0006B2000F0ADF800216C2000F0A9F832203E
:1013000000F089F801E0012010BD0020FCE770B575
:101310000446FFF765FFD020FFF72EFFFFF796FF8B
:101320002046FFF729FFFFF791FFFFF759FFD12074
:10133000FFF722FFFFF78AFF0020FFF7F1FE0546C7
:10134000FFF76EFF284670BD2DE9F04106460F46B7
:1013500014461D46FFF744FF002141EA4601C8B28A
:10136000FFF70AFFFFF772FF20B1FFF759FF0120D7
:10137000BDE8F0813846FFF7FFFEFFF767FFFFF794
:101380002FFF012101EB4601C8B2FFF7F5FEFFF781
:101390005DFF0DE0012C04D10020FFF7C1FE287095
:1013A00003E00120FFF7BCFE2870601EC4B26D1C74
:1013B000002CEFD1FFF734FF0020D9E710B5044629
:1013C000E006010E1C2000F043F810BD10B50446E5
:1013D000E006010E1B2000F03BF810BD70B504467E
:1013E0000025BC2C01DB012510E0622C01DB02256D
:1013F0000CE02A2C01DB032508E0142C01DB04257A
:1014000004E00A2C01DB052500E0062529461A2008
:1014100000F01EF870BD70B50446B4F57A7F01DDAA
:101420004FF47A74042C00DA04244FF47A7090FBA1
:10143000F4F0401EC5B22946192000F009F805460F
:10144000264604EBD671C1F34F00FFF7C7FF70BD0E
:1014500070B505460C46FFF7C3FED020FFF78CFEA3
:10146000FFF7F4FE18B1FFF7DBFE012070BD284640
:10147000FFF782FEFFF7EAFE2046FFF77DFEFFF74B
:10148000E5FE18B1FFF7CCFE0120EFE7FFF7C8FE3D
:101490000020EBE72DE9F04105460E461746984639
:1014A000FFF79EFE002141EA4501C8B2FFF764FE46
:1014B000FFF7CCFE20B1FFF7B3FE0120BDE8F081BD
:1014C0003046FFF759FEFFF7C1FE00240CE018F884
:1014D0000400FFF751FEFFF7B9FE18B1FFF7A0FEB9
:1014E0000120EBE7601CC4B2BC42F0DBFFF798FEC2
:1014F0000020E3E700BFFEE700BFFEE77047000003
:1015000008B508490968C9084FF47A72B1FBF2F1CD
:101510004143009100BF00BF00994A1E009200297C
:10152000F9D108BD5C000020704710B5FFF7DEF868
:1015300010BD704770B504462168096921F4405117
:10154000E2681143226811612269A168114362694E
:1015500041EA02052168C96841F20C6291432943BE
:101560002268D1602168496921F44071A269114360
:10157000226851612D4A2168914202D1FFF754FA45
:1015800001E0FFF741FA00EBC00101EB00116268D6
:101590009200B1FBF2F100EBC00202EB00126368B3
:1015A0009B00B2FBF3F26423B2FBF3F202EBC20343
:1015B00003EB0212A1EB8201322202EB0111642241
:1015C000B1FBF2F101F0F00100EBC00202EB0012FE
:1015D00063689B00B2FBF3F26423B2FBF3F201EB0E
:1015E000021200EBC00101EB001163689B00B1FB2C
:1015F000F3F100EBC00303EB00136668B600B3FB26
:10160000F6F36426B3FBF6F303EBC30606EB031312
:10161000A1EB8301322303EB01116423B1FBF3F14E
:1016200001F00F0111442268916070BD0038014043
:1016300000BFFEE700B585B0002001900290039046
:10164000049000BF3648806940F01000344988613A
:101650000846806900F01000009000BF00BF0846F7
:10166000806940F0200088610846806900F0200011
:10167000009000BF00BF0846806940F00400886108
:101680000846806900F00400009000BF00BF0846D3
:10169000806940F0080088610846806900F0080011
:1016A000009000BF00224FF400511E48FFF712F8CF
:1016B00000224FF45C711C48FFF70CF84FF4005007
:1016C000019001200290002003900220049001A9C3
:1016D0001448FEF75DFE702001900120029000206A
:1016E00003900320049001A90F48FEF751FE8020CB
:1016F00001900E4802900020039001A90A48FEF7CD
:1017000047FE4FF44070019011200290002003909A
:101710000320049001A90448FEF73AFE05B000BD7D
:101720000010024000100140000C014000001110A8
:1017300000B58FB0282105A8FEF77AFD1421684670
:10174000FEF776FD0120059000040690002007902A
:101750000120099002200C90C1030D914FF4E0117B
:101760000E9105A8FFF7A8F908B1FEF7F9FD0F20C3
:10177000009002200190002002904FF480600390BE
:101780000020049002216846FFF772F808B1FEF7C6
:10179000E7FD0FB000BD000010B50B480B49086015
:1017A0004FF4E1304860002108488160C160016168
:1017B0000C21416100218161C161FFF7C9FB08B1C2
:1017C000FEF7CEFD10BD0000003801406000002093
:1017D000490050EAC12018BF04204A0D18BF40F04C
:1017E000010040F2FF72B2EB515F08BF40F002000F
:1017F000012808BF0520704702480068C0F3022096
:10180000704700000CED00E010B5002804DB0A076B
:10181000130E054A135406E00A07140E034A00F09B
:101820000F031B1FD45410BD00E400E018ED00E0CE
:101830002DE9F0414F1E00EBC7010446D1E900013C
:1018400015461E4637F006020DD02A46334602F0F2
:10185000F9FA7F1E04EBC703D3E9002302F0EAF88C
:1018600037F00602F1D1022F25D0042F13D0062F16
:1018700018BFBDE8F0812A46334602F0E3FAD4E906
:101880000A2302F0D7F82A46334602F0DBFAD4E9FD
:10189000082302F0CFF82A46334602F0D3FAD4E9FF
:1018A000062302F0C7F82A46334602F0CBFAD4E901
:1018B000042302F0BFF82A46334602F0C3FAD4E903
:1018C000022302F0B7F82A46334602F0BBFAD4E905
:1018D0000023BDE8F04102F0ADB8012203F09BB84F
:1018E00002F0A8B8002213461046114602F052B981
:1018F000024A0020110703F08EB8000001FDFFFF2F
:101900002DE9F04D8D4F21F0004A86B005460C467A
:10191000BA452ADBAAEB070028430AD0884882454B
:1019200001DC1AD1CDB106B02846BDE8F04DFFF775
:10193000D4BF844A844B284602F084FA07460E46F8
:10194000824A834B2846214602F07CFA06B03A468A
:101950003346BDE8F04D02F06DB80120FEF797FC6C
:1019600006B0BDE8F04DFFF7BDBF7A48824542DAC8
:10197000BAF1795F0BDA2846FFF72AFF042808BF7F
:10198000FFF7B6FF284606B02146BDE8F08D2A468F
:101990000B46104602F056FA834602466E480E4643
:1019A0000B4606217844FFF743FF5A46334602F0C0
:1019B00049FA804669488A465A46334604217844A3
:1019C000FFF736FF5A46334602F03CFA00223B4608
:1019D00002F030F802460B464046514602F0DAF873
:1019E0002A46234602F02EFA06B02A462346BDE8D0
:1019F000F04D02F01FB8284624F0004100223D4679
:101A00003B4602F01DFB4FF0FF3203F004F80646A0
:101A1000024653480F460B4606217844FFF708FF5D
:101A200032463B4602F00EFACDE900014D483246FF
:101A30003B4604217844FFF7FBFE32463B4602F06A
:101A400001FA00222B4601F0F5FF83460291304651
:101A5000394601F097FF804643480D46504517DC54
:101A6000DDE900015A46029B02F094F842462B46FB
:101A700002F0E8F942462B4601F0DCFF012202F0B9
:101A8000CAFF304A304B02F0CDFB304A304B4CE0BD
:101A90004FF0000A52460B46404601F0CBFFCDE91D
:101AA000031052462B461046194602F0CBF9324637
:101AB0003B4602F0C5FADDE9033202F06BF8064658
:101AC0000F46DDE900015A46029B02F063F88346A7
:101AD000009101223046394602F09DFF194A1A4B07
:101AE00002F0AEFA06460F4601224046294602F0B1
:101AF00092FF5A46009B02F0A5F932463B4602F09F
:101B000091FB06460F4601225046294602F083FF0C
:101B10000E4DDFF858802A46434602F091FA3246CD
:101B20003B4602F08DFA2A46434602F089FA002C21
:101B3000D8BF81F0004106B0BDE8F08D0000F03F55
:101B40000000F07F075C143326A6913C182D445406
:101B5000FB21F93F0000E03F703D0000863D0000A2
:101B6000FA3C0000103D00003333EF3FFB21E93F1A
:101B70002DE9F84F04460D4621F0004000917349CD
:101B8000814211DC7249884201DC06D12CB1204629
:101B90002946BDE8F84FFFF7A0BE6E48002DCCBF28
:101BA0006D496E49BDE8F88F6D49814211DD6D497F
:101BB0008142D8BF4FF0FF366DDD20462946FFF742
:101BC00007FE042808BFFFF793FE20462946BDE81C
:101BD000F88F6549654F25F00045814233DD644942
:101BE000814219DD002632464FF0804320462946C7
:101BF00001F020FF80468A4601222046294602F055
:101C00000AFF00223B4602F00DFB4246534601F01C
:101C1000C1FF04460D463EE001260022BA463B467F
:101C20002046294601F006FF80460F460022534613
:101C30002046294602F0F6FA42463B4601F0AAFF4A
:101C400004460D4627E04B4981421BDDDFF828A101
:101C50000226002253462046294602F0F3F80022CD
:101C60003B4601F0E7FE80460F46002253462046E1
:101C7000294602F0D7FA42463B4601F08BFF044664
:101C80000D4608E0032622462B4600203B4901F082
:101C900081FF04460D4622462B461046194602F0A7
:101CA000D1F88B46824602460B4602F0CBF8074637
:101CB0000246334888460B4606217844FFF7B8FDB4
:101CC00052465B4602F0BEF882462E488B463A46A4
:101CD000434605217844FFF7ABFD3A46434602F000
:101CE000B1F802460B46002E504659460CDA01F078
:101CF000A1FE22462B4602F0A5F801B022462B4653
:101D0000BDE8F04F02F09CB901F094FE22462B464C
:101D100002F098F81C4A7A4402EBC603D3E9002388
:101D200002F080FA22462B4602F07CFA174A7A44E7
:101D300002EBC603D3E9002302F082F9009A002ADD
:101D4000B8BF81F00041BDE8F88F000000001044EA
:101D50000000F07F182D4454FB21F93FFB21F9BF0F
:101D60000000DC3F0000203E0000F33F0000F03F99
:101D70000000E63F008003400000F83F0000F0BF95
:101D8000123B0000D03A00006E3A0000363A0000E4
:101D90002DE9F04D9446CCF1000423F000464CEAC6
:101DA0000404524F46EAD4749A46884621F0004211
:101DB000BC4206D8454240EA050442EAD474BC421B
:101DC00004D9BDE8F04D6246FFF78ABDAAF140553F
:101DD000A5F17F6555EA0C040BD0022404EAAA742D
:101DE000434DDFF810E144EAD87452EA000B04D006
:101DF0000CE0BDE8F04DFFF7BBBE002C14BF012C7A
:101E0000BDE8F08D022C30D0032C32D056EA0C0BFA
:101E10000AD0BE4220D1BA4209D126F0804622F033
:101E200080423346114617E000291ADB25E0DFF82F
:101E3000C8B0FB44002C04BFDBE90001BDE8F08D15
:101E4000012C02BFDBE9000181F00041BDE8F08D0B
:101E5000022C0AD0032C0CD0BA4212D1B8F1000FD8
:101E60000BDA23482549BDE8F08D28462449BDE812
:101E7000F08D28467146BDE8F08D1D482149BDE82A
:101E8000F08D921B12153C2AC4BF19481D490EDC67
:101E9000BAF1000FBEBF12F13C0F0020014606DB75
:101EA000624601F077FE21F00041FFF761FE002C51
:101EB00008BFBDE8F08D012C04BF81F00041BDE8F2
:101EC000F08D114A114B022C07D002F0ABF92A46D3
:101ED000BDE8F04D0A4B02F0A5B902F0A3F92A467D
:101EE000BDE8F04D064B02F0ABB800000000F07FFB
:101EF000182D4454FB2109C0CA390000FB21F9BF49
:101F0000FB210940FB21F93F075C143326A6A13CC5
:101F10002DE9F0410446E07800F0C006E07800F0DA
:101F20003F05607800F0010098B1EF102846E917EE
:101F300005EB5171C910A5EBC101491C01F0FF0867
:101F40000B48006820B10A4841460268384690476D
:101F500000BF607800F0080030B10548406818B153
:101F6000B011034A516888470020BDE8F0810000A5
:101F7000A800002038B5044664B120208DF8000088
:101F800028208DF8010030208DF8020038208DF8CF
:101F9000030004E0A32204216846FEF741F96A46E3
:101FA000042140F69E2001F065FC01F0DDF838BD0B
:101FB0003EB5044602208DF80000CA208DF80100CD
:101FC000E3208DF8020009208DF803006A46042101
:101FD000682001F04FFCA3208DF8000004F04000C1
:101FE00048B1C0208DF80100C8208DF80200C22041
:101FF0008DF8030006E0A3208DF801008DF80200A3
:102000008DF8030004F4C07048B1C4208DF80400BA
:10201000CC208DF80500C6208DF8060006E0A32030
:102020008DF804008DF805008DF80600A3208DF8CA
:1020300007008DF808008DF809006A460A2140F66D
:10204000A72001F017FC04F0030018B120208DF840
:10205000000002E0D8208DF800006A46012140F619
:10206000B62001F007FC04F0200018B1012000F0B8
:10207000ADF802E0002000F0A9F804F4C07008B345
:1020800004F4807060B1B2208DF800008B208DF8D0
:102090000100B6208DF802009B208DF803000BE0B4
:1020A000B0208DF8000080208DF80100B4208DF85C
:1020B000020090208DF803006A46042140F6A22019
:1020C00001F0D8FB04F0010020B3F8208DF80000E7
:1020D0006A4601214FF40B6001F0CCFBFA21072086
:1020E00000F0FCFA072000F0C3FA012000F0E3FA48
:1020F000642000F0C3FB4FF4FA7000F0D2FBC8215B
:10210000304800F073FA282000F08CFA0A2000F022
:102110009CFA08E0D8208DF800006A4601214FF4AF
:102120000B6001F0A7FB04F0020018B1D9208DF874
:10213000000002E0D8208DF800006A46012140F23C
:102140003D7001F097FB04F0040018B1012000F08D
:1021500069F802E0002000F065F804F0100018B102
:102160000120FFF707FF02E00020FFF703FF44F024
:1021700008001549488100F0F7FF002012498873D4
:1021800004F0400018B10846807B801D887304F479
:10219000C07020B10C48807B801D0B49887304F00F
:1021A000140020B10848807B10300749887304F080
:1021B000030020B10448807B001D03498873002080
:1021C0003EBD000009E3CA02A80000203EB5044657
:1021D0006CB10EA1D1E900208968CDE900200291FF
:1021E0006A4609214FF4976001F044FB3EBD0AA204
:1021F000D2E900109268CDE9010200916A460921F6
:102200004FF4976001F036FBF0E70000B8AAB38DF9
:10221000B4980D355D000000B8AAAAAAB088C3C55D
:10222000C700000038B5044664B1C0208DF8000036
:10223000C2208DF80100C4208DF80200C6208DF860
:10224000030004E08B2204216846FDF7E9FF6A469B
:10225000042140F6982001F00DFB00F085FF38BD09
:1022600010B5C8234FF48062024940F6F63000F002
:102270000FFE10BDF44A00082DE9F04F8DB007465F
:10228000884615469946DDE9166B0024002030800B
:102290006B49887B5A4605A900F0C6FE18B1601E3E
:1022A0000DB0BDE8F08F6648807A00F01400002879
:1022B00067D09DF8140000069DF8151040EA014013
:1022C0009DF8161040EA01209DF817100843286079
:1022D0009DF8180000069DF8191040EA01409DF88D
:1022E0001A1040EA01209DF81B10084368609DF811
:1022F0001C0000069DF81D1040EA01409DF81E10CC
:1023000040EA01209DF81F100843A8609DF82000B6
:1023100000069DF8211040EA01409DF8221040EA95
:1023200001209DF823100843E86004F11000C4B2B6
:10233000286800140190686800140290A8680014CE
:102340000390E8680014049001984043029901FB4F
:102350000100039901FB0100049901FB010ABAF194
:10236000706F02DBBAF1885F05DD00F0FDFE002032
:102370003080401E94E7B6F9000040F48070308051
:1023800000BF2F48807A00F0400020B305A9601CF0
:10239000085C095D40EA012000B2A8F8000005A928
:1023A000E01C095C05AAA01C105C41EA002000B2F8
:1023B000A8F8020005A9601D095C201D105C41EA17
:1023C000002000B2A8F80400A01DC4B2B6F90000B5
:1023D00040F0080030801A48408900F4C07008B30B
:1023E00005A9601C085C095D40EA012000B2388044
:1023F00005A9E01C095C05AAA01C105C41EA0020AC
:1024000000B2788005A9601D095C201D105C41EABE
:10241000002000B2B880A01DC4B2B6F9000040F0A0
:10242000700030800648807A00F0030018B105A9DA
:102430000819FFF76DFD484600F0A6FA00202FE7C7
:10244000A800002030B585B0044616A207CA02AB2A
:1024500007C3C82C03DD4FF0FF3005B030BDC820E6
:1024600090FBF4F0401E85B2280A8DF80000E8B217
:102470008DF801006A46022140F2162001F0FAF9B7
:1024800010B14FF0FF30E8E702AA0C2140F6C1205E
:1024900001F0F0F910B14FF0FF30DEE7044884811D
:1024A0000020DAE7FEF2ABC4AAF1DFDFBBAFDFDF6B
:1024B000A800002010B586B0044647A0006803902D
:1024C00046A00068029046A00068019045A0006800
:1024D000009004F0030003A9085C8DF8140003A821
:1024E000C4F3C101405C8DF8150003A8C4F3811149
:1024F000405C8DF8160004F0030002A9085C8DF81A
:10250000100002A8C4F3C101405C8DF8110002A8BC
:10251000C4F38111405C8DF8120005AA032140F23A
:10252000264001F0A7F918B14FF0FF3006B010BDFA
:1025300004AA032140F22A4001F09CF910B14FF0A7
:10254000FF30F3E7019805900098049004F0040030
:1025500058B19DF8140040F001008DF814009DF86A
:10256000100040F001008DF8100004F0200058B178
:102570009DF8150040F001008DF815009DF8110040
:1025800040F001008DF8110004F4807058B19DF8FE
:10259000160040F001008DF816009DF8120040F082
:1025A00001008DF8120005AA03214FF4886001F0A4
:1025B00061F910B14FF0FF30B8E704AA032140F2EF
:1025C000314001F057F910B14FF0FF30AEE7064847
:1025D00004810020AAE700004CCD6C000CC92C003F
:1025E0003656760026466600A8000020F8B5054657
:1025F0000E464FF47A7095FBF0F000FB06F4200EC7
:102600008DF80000200C8DF80100200A8DF80200E2
:10261000E0B28DF803006A4604214FF4AE7001F079
:1026200029F9F8BD38B50446052094FBF0F084B2D2
:1026300020128DF80000E0B28DF801006A460221F8
:102640004FF4AD7001F016F938BD38B504460520D9
:1026500094FBF0F084B220128DF80000E0B28DF807
:1026600001006A4602214FF4AC7001F003F938BD55
:1026700038B504460020009004F0010020B19DF818
:10268000000040F03000009004F0020020B19DF8FE
:10269000000040F00C00009004F0040020B19DF810
:1026A000000040F0030000906A4601214FF4A4703E
:1026B00001F0E0F838BD38B50446012C01DA0124F8
:1026C00002E0042C00DD0424601EC0B200906A46C3
:1026D000012140F24F1001F0CDF838BD2DE9FC4743
:1026E00006460F4606F0070010B1B7F5C86F03DDC8
:1026F0004FF0FF30BDE8FC87384602F005F8814610
:10270000594901F007FF8046684600F0D3FA9DF86A
:102710000000022806D0042816D0082826D0102849
:1027200048D135E04FF08D41404602F001F8814636
:1027300001F0B2FF84B24D49404601F0F9FF8146F5
:1027400001F0AAFF85B238E04FF08C41404601F01D
:10275000EFFF814601F0A0FF84B24549404601F0F9
:10276000E7FF814601F098FF85B226E04FF08B41EC
:10277000404601F0DDFF814601F08EFF84B23D4905
:10278000404601F0D5FF814601F086FF85B214E096
:102790004FF08A41404601F0CBFF814601F07CFFBB
:1027A00084B23549404601F0C3FF814601F074FF11
:1027B00085B202E04FF0FF309CE700BF20128DF899
:1027C0000400E0B28DF8050028128DF80600E8B28A
:1027D0008DF8070006F00100A0B101AA02214FF414
:1027E000EA7001F047F810B14FF0FF3082E70DF1C9
:1027F000060202214FF4927001F03CF810B14FF044
:10280000FF3077E706F00200A0B101AA02214FF4E1
:10281000EC7001F02FF810B14FF0FF306AE70DF1C6
:10282000060202214FF4947001F024F810B14FF029
:10283000FF305FE706F00400A0B101AA02214FF4C7
:10284000EE7001F017F810B14FF0FF3052E70DF1C4
:10285000060202214FF4967001F00CF810B14FF00F
:10286000FF3047E7002045E70000484300004046AE
:102870000000C045000040450000C04438B5044693
:10288000052094FBF0F085B228128DF80000E8B224
:102890008DF801006A4602214FF4EF7000F0EAFF64
:1028A00038BD38B50446052094FBF0F085B22812F7
:1028B0008DF80000E8B28DF801006A4602214FF45D
:1028C000ED7000F0D7FF38BD10B50446204600F08B
:1028D0000FF80346E01C00F00BF843EAC00083B297
:1028E000A01D00F005F843EA801083B2184610BD21
:1028F000014691F90020002A01DD00201EE091F937
:102900000020002A01DA042018E091F90120002AB1
:1029100001DD012012E091F90120002A01DA0520F1
:102920000CE091F90220002A01DD022006E091F975
:102930000220002A01DA062000E00720704700008C
:10294000FDF7E0FEFEF7F4FEFEF774FEFEF724FF4F
:10295000FEF7A0FC00F064F90CE0074A07490848BC
:1029600000F04CF84FF400510648FDF7A9FE642032
:10297000FDF7FAFCF1E70000080000200400002049
:1029800000000020001001407047000070B50446B0
:10299000002624F00104184890F8240008B1002013
:1029A00070BD1548807A10B94FF0FF30F8E7124833
:1029B000057C807A2040104908740846007CA042BB
:1029C00002D04FF0FF3600E0002614B90A48007D1F
:1029D00018B1012000F08EFF02E0002000F08AFF15
:1029E0003CB100F0C1FB20B1034805744FF0FF304B
:1029F000D6E73046D4E70000180000202DE9F04F5C
:102A000099B004460D4616464FF07E574FF0000829
:102A10004FF000094FF0000A12A813A918AB0EAA34
:102A2000CDE9001014A916A8FFF726FC18B1012063
:102A300019B0BDE8F08FBDF84C0000F4807000289C
:102A40007ED00E9801F048FE83464FF09D4101F084
:102A500061FD07460F9801F03FFE83464FF09D4110
:102A600001F058FD8046109801F036FE83464FF085
:102A70009D4101F04FFD8146119801F02DFE8346E6
:102A80004FF09D4101F046FD824639464FF08040AF
:102A900001F04EFE4946059001F04AFE414607907E
:102AA0004FF0404001F044FE5146059001F040FED9
:102AB0000690079901F0CCFC834601F09DFCCDE91E
:102AC0000801FEF71DFF4FF06632544BCDE90A01B5
:102AD00001F0B8F9CDE90C0100F07AFF2060494619
:102AE0004FF0804001F024FE4946029001F020FEA4
:102AF000414604904FF0404001F01AFE41460290DA
:102B000001F016FE0390049901F0DEFE83464FF0BB
:102B10007E5101F09DFC059001F06EFCCDE90801AD
:102B200039464FF0804001F003FE4146039001F02A
:102B3000FFFD494604904FF0804001F0F9FD00E0B0
:102B400068E05146039001F0F3FD8346049901F0DB
:102B50007FFC059001F050FCCDE90601DDE908237A
:102B6000FFF716F94FF066322C4BCDE90A0101F060
:102B700069F9CDE90C0100F02BFF28605146504661
:102B800001F0D6FD49460490484601F0D1FD41468A
:102B90000390404601F0CCFD39460190384601F0E3
:102BA000C7FD0090019901F053FC0290039901F0D8
:102BB0008BFE8346049901F087FE059001F01CFC12
:102BC000CDE908015146384601F0B2FD494604906E
:102BD000404601F0ADFD0390049901F039FC4FF03F
:102BE0008041059001F0A4FD834601F005FCCDE98C
:102BF0000601DDE90823FFF7CBF84FF06632074BFB
:102C0000CDE90A0101F01EF9CDE90C0100F0E0FE6A
:102C1000306001E002200BE7002009E766A64C4087
:102C200070B50024FEF73EFA00F06AF800283AD1A9
:102C3000782000F0B7FDC4B20CB1012070BD78203F
:102C4000FFF7A4FEC4B20CB10220F7E7642000F045
:102C50005BFDC4B20CB10320F0E7FFF701FBC4B287
:102C60000CB10420EAE71248FFF72EFE0546FFF7F5
:102C700021FCC4B20CB10520E0E740F27310FFF76D
:102C800097F9C4B20CB10620D8E76420FFF7DAFB4D
:102C9000C4B20CB10720D1E7012000F031FCC4B26E
:102CA0001CB10920CAE70A20C8E70020C6E70000D7
:102CB0004400002001461148407A30B1012807D075
:102CC000022808D003280CD108E0022008700BE08D
:102CD0000420087008E00820087005E01020087043
:102CE00002E04FF0FF30704700BF0448C07C18B1CD
:102CF00008784006000E08700020F4E71800002055
:102D00001CB580208DF80000604A1268917C5F4AF3
:102D1000526810786B460122FEF7BCFB10B14FF0F1
:102D2000FF301CBD6420FDF71FFB00208DF8000064
:102D3000564A1268917C554A526810786B460122B7
:102D4000FEF7A8FB10B14FF0FF30EAE74F4A1268D8
:102D5000917D4E4A526810786B460622FEF7F4FACF
:102D600010B14FF0FF30DCE79DF80500C007400FC1
:102D70009DF8031001F0010140EA41009DF80110A7
:102D800001F0010140EA010474B1012C03D10121D9
:102D90003E48C17427E0022C03D100213B48C17496
:102DA00021E04FF0FF30BCE7384A1268D178374A4B
:102DB000526810786B460122FEF7C6FA10B14FF048
:102DC000FF30AEE79DF8000000F00F0414B94FF09B
:102DD000FF30A6E7042C03D101212C48C17402E086
:102DE00000212A48C174FF2128488172FF20274909
:102DF0000872FF2125484172C1724FF6FF71C181EF
:102E0000FF21017481740121017380F822100021D7
:102E100080F82310417501751630016041608160B2
:102E2000163880F8241080F82510C1844FF4FA6019
:102E300000F0AEFB10B14FF0FF3072E7022000F05F
:102E400077FA10B14FF0FF306BE72A2000F01AFC40
:102E500010B14FF0FF3064E7322000F055FC10B1A4
:102E60004FF0FF305DE70020FFF790FD10B14FF00D
:102E7000FF3056E7002000F09DFA10B14FF0FF3010
:102E80004FE7002000F08EFC00204AE718000020E9
:102E90002DE9F04385B005460E46904699462948EF
:102EA00090F8250020B14FF0FF3005B0BDE8F08369
:102EB00016B94FF0FF30F8E7002423E0281B102854
:102EC00001DD102000E0281B87B232193946204668
:102ED00000F0D0FC10B14FF0FF30E6E701AA394610
:102EE000204600F001F910B14FF0FF30DDE7301956
:102EF0003A4601A9FDF768F910B16FF00100D4E777
:102F0000E01984B2AC42D9DB4FEA28208DF80000EA
:102F100008F0FF008DF801000A4A1268917E094A04
:102F2000526810786B460222FEF7B4FA10B14FF0E7
:102F3000FF30BAE70121034880F82510A0F8269059
:102F40000020B2E71800002038B50446282C02DD26
:102F50004FF0FF3038BDDCB9002000F05DFB0020F1
:102F60008DF8000007208DF801002E4A1268917C30
:102F70002C4A526810786B460222FEF78BFA10B189
:102F80004FF0FF30E6E70021264801750020E1E719
:102F9000012000F041FB20208DF80000012C06D11B
:102FA00000208DF80100052000F06CFB17E0052CD7
:102FB00006DC01208DF80100052000F063FB0EE027
:102FC000142C06DC02208DF801000A2000F05AFBC8
:102FD00005E003208DF80100142000F053FB9DF85C
:102FE0000100072101EB8010C0B28DF801000D4AED
:102FF0001268917C0B4A526810786B460222FEF7E9
:1030000049FA10B14FF0FF30A4E70821054881725A
:1030100000210173012101750020FFF7B7FC00209A
:1030200098E7000018000020F8B504460F46164641
:103030002C4890F8240010B94FF0FF30F8BD294813
:10304000807A10B94FF0FF30F8E7264A1268917A7B
:10305000244A526810786B460222FEF775F910B1C7
:103060004FF0FF30EAE79DF801009DF8001040EABC
:103070000125A54203DA00203070401EDEE7194822
:1030800040684088B5EB600F17DD164A1268517C26
:10309000144A526810786B460122FEF755F910B1B8
:1030A0004FF0FF30CAE79DF8000000F0100020B19B
:1030B00000F05AF86FF00100C0E7E2B2094B1B685C
:1030C000D97A084B5B6818783B46FEF73DF910B19A
:1030D0004FF0FF30B2E795FBF4F0401E3070002057
:1030E000ACE7000018000020F8B504460D4616466F
:1030F00016B94FF0FF30F8BD1A48807A10B94FF07A
:10310000FF30F8E720128DF80000E0B28DF80100E2
:103110009DF801002844134949684989884202DD25
:103120004FF0FF30E7E70F4A1268117E0D4A5268F0
:1031300010786B460222FEF7ADF910B14FF0FF3068
:10314000D9E7EAB2074B1B68597D064B5B681878D4
:103150003346FEF7F9F810B14FF0FF30CBE700200F
:10316000C9E700001800002008B57048807A10B93F
:103170004FF0FF3008BD002000906C4A1268D17BF0
:103180006A4A526810786B460122FEF783F910B143
:103190004FF0FF30EEE7654A12685179634A526892
:1031A00010786B460122FEF775F910B14FF0FF3031
:1031B000E0E75E4A126811795C4A526810786B4603
:1031C0000122FEF767F910B14FF0FF30D2E7574800
:1031D00090F82400002853D00C200090534A126825
:1031E0001179524A526810786B460122FEF752F963
:1031F00010B14FF0FF30BDE73220FDF7B5F8C02029
:1032000000904A48807A00F0010020B19DF800004B
:1032100040F020000090454A12681179434A5268F4
:1032200010786B460122FEF735F910B14FF0FF30F0
:10323000A0E73E48407C10B10220009001E0002051
:1032400000903A4A1268D17B384A526810786B462F
:103250000122FEF71FF910B14FF0FF308AE700207E
:103260000090324A12685179304A526810786B46A1
:103270000122FEF70FF9002855D04FF0FF3079E713
:1032800004200090294A12681179284A526810785F
:103290006B460122FEF7FEF810B14FF0FF3069E7F0
:1032A0002248807C20B92148807A00F0010010B9C2
:1032B0004020009001E0602000901C4A12681179C3
:1032C0001A4A526810786B460122FEF7E3F810B1F3
:1032D0004FF0FF304EE73220FDF746F81348407CB0
:1032E00010B10120009001E0002000900F4A126808
:1032F000D17B0E4A526810786B460122FEF7CAF85D
:1033000010B14FF0FF3035E7084A12685179074A8B
:1033100052681078054B10330122FEF7BBF810B14C
:103320004FF0FF3026E7002024E7000018000020BF
:1033300038B504461E48807A10B94FF0FF3038BDCA
:10334000022C06D0042C07D0082C08D0102C0CD14D
:1033500008E0002000900BE00820009008E010201A
:10336000009005E01820009002E04FF0FF30E6E703
:1033700000BF0F48407A9DF80010B0EBE10F01D17B
:103380000020DCE70A4A1268D179094A52681078AD
:103390006B460122FEF77EF810B14FF0FF30CEE70A
:1033A0009DF80000C110024841720020C7E70000EC
:1033B0001800002038B504465048807CA04201D156
:1033C000002038BD002C46D04C4A126811794B4A77
:1033D000526810786B460122FDF7B6FF10B14FF02E
:1033E000FF30EEE79DF8000020F020000090434AF7
:1033F00012681179414A526810786B460122FEF733
:1034000049F810B14FF0FF30DBE70320FCF7ACFFC9
:1034100002200090394890F8220020B19DF8000069
:1034200040F080000090354890F8230020B19DF8CE
:10343000000040F030000090304A1268117D2F4AA1
:10344000526810786B460122FEF724F8002851D00C
:103450004FF0FF30B5E7294A12681179274A5268C0
:1034600010786B460122FDF76FFF10B14FF0FF306F
:10347000A7E72248807A00F0010028B19DF80000FB
:1034800040F02000009004E09DF8000020F02000B3
:1034900000901A4A12681179184A526810786B46DF
:1034A0000122FDF7F7FF10B14FF0FF3089E703204D
:1034B000FCF75AFF114890F8220010B180200090CC
:1034C00001E0002000900D4890F8230020B19DF805
:1034D000000040F030000090084A1268117D074A51
:1034E000526810786B460122FDF7D4FF10B14FF0FF
:1034F000FF3066E701488474002062E7180000206E
:1035000038B50446214890F82400A04201D100209B
:1035100038BD24B31D4890F8250010B94FF0FF3096
:10352000F6E7002000F0E6F90020FFF743FF174917
:10353000C88C00F0E9F80020009014494968087828
:103540006B4601222321FDF7A5FF01210F4880F8DA
:103550002410012000F0CEF9FFF706FE13E0002052
:1035600000F0C8F90948007C0090084949680878CB
:103570006B4601222321FDF78DFF0021034880F8CF
:103580002410FFF7F1FD0020C2E700001800002022
:1035900038B504461F48807A10B94FF0FF3038BD67
:1035A000FA2C09D0B4F5FA7F09D0B4F57A7F09D0A6
:1035B000B4F5FA6F0CD108E0002000900BE0082071
:1035C000009008E01020009005E01820009002E034
:1035D0004FF0FF30E3E700BF0E48007A9DF800107F
:1035E000B0EBE10F01D10020D9E70A4A12689179C6
:1035F000084A526810786B460122FDF74BFF10B164
:103600004FF0FF30CBE79DF80000C0100149087271
:103610000020C4E71800002038B50446184890F888
:103620002300A04201D1002038BD14B13020009009
:1036300001E0002000901248807C20B19DF800003D
:1036400040F0020000900E4890F8220020B19DF852
:10365000000040F080000090094A1268117D084A7D
:10366000526810786B460122FDF714FF10B14FF03D
:10367000FF30D9E7024880F823400020D4E700005B
:103680001800002038B504461E48807A10B94FF063
:10369000FF3038BDBC2C02DB0120009015E0622C0D
:1036A00002DB0220009010E02A2C02DB03200090B5
:1036B0000BE0142C02DB0420009006E00A2C02DB55
:1036C0000520009001E0062000900E48C07A9DF889
:1036D0000010884201D10020DBE70A4A1268917885
:1036E000084A526810786B460122FDF7D3FE10B1EC
:1036F0004FF0FF30CDE79DF800100248C172002066
:10370000C7E700001800002038B504462448807A36
:1037100010B94FF0FF3038BD214890F8240010B1A7
:103720004FF0FF30F7E71E48007D50B134B1282C30
:1037300004DCE0B2FFF708FC0020ECE70020FFF714
:1037400003FC042C01DA042404E0B4F57A7F01DDE3
:103750004FF47A744FF47A7090FBF4F0401EC0B2CC
:1037600000900F4A126851780D4A526810786B46E3
:103770000122FDF78FFE10B14FF0FF30CBE79DF82F
:103780000000401C4FF47A7191FBF0F081B20448C4
:10379000C1810146C9894810FFF774FF0020BAE7CC
:1037A0001800002038B5044604F0700010B1012064
:1037B000009005E014B10020009001E0402000904E
:1037C0002B4A1268917C2A4A526810786B46012273
:1037D000FDF760FE20B1002125488172481E38BDEA
:1037E0009DF8000020F04001214801730020009066
:1037F00004F0400020B99DF8000040F00400009063
:1038000004F0200020B99DF8000040F00200009074
:1038100004F0100020B99DF8000040F00100009075
:1038200004F0080020B99DF8000040F03800009036
:103830000F4A1268D17C0E4A526810786B460122FA
:10384000FDF728FE20B1002109488172481EC6E715
:1038500024B1082C02D00020FFF7DEFE0448847259
:10386000002101753220FCF77FFD0020B7E7000042
:1038700018000020F8B504460D46164616B94FF05C
:10388000FF30F8BD1A48807A10B94FF0FF30F8E7E2
:1038900020128DF80000E0B28DF801009DF80100C3
:1038A0002844134949684989884202DD4FF0FF30B6
:1038B000E7E70F4A1268117E0D4A526810786B468E
:1038C0000222FDF7E7FD10B14FF0FF30D9E7EAB271
:1038D000074B1B68597D064B5B6818783346FDF72C
:1038E000D9FD10B14FF0FF30CBE70020C9E7000051
:1038F0001800002038B50446214890F82400C0B1D3
:1039000014B10220009001E0002000901C4A1268CF
:10391000D17B1B4A526810786B460122FDF7BAFD35
:1039200010B14FF0FF3038BD9DF8001014484174BD
:1039300023E01348807A10B94FF0FF30F3E724B149
:103940000F48407C08B10020EDE714B10120009041
:1039500001E0002000900A4A1268D17B084A5268B0
:1039600010786B460122FDF795FD10B14FF0FF3046
:10397000D9E79DF80010024841740020D3E7000009
:10398000180000202DE9F04106460F4600F064FBC8
:10399000041E0D4618BF0120284320F00040C0F14E
:1039A0007F6000F1E040C00F0ED0301C18BF012036
:1039B000384320F00040C0F17F6000F1E040C00FCC
:1039C00004BF0120FCF763FC20462946BDE8F081D6
:1039D00021F00042A2F16052B2F5801F01F00043D5
:1039E00028BFD2F17F6C0BD95FEA001C43EAC20208
:1039F00042EB507018BF704728BF20F0010070479D
:103A0000B2F5801FBCBF184670474FEA410C1CF549
:103A1000001F02D2084600F052BF70B500F0BCFA99
:103A200000000089FFF7F6BF4FF00040A0F58000CE
:103A30007047000010B591EA030F48BF83F00043C0
:103A400000F1F883841A71EB030C05D2121943EBD1
:103A50000C03001B61EB0C01DFF824E14FEA115469
:103A6000A4EB135C1EEA430F18BF9EEA445F73D0B9
:103A700023EA0E03DCF1200E21EA045143F4801303
:103A800032D322FA0CFE10EB0E0023FA0CFE41EBAF
:103A90000E01CCF1200E03FA0EFE10EB0E0051F1D8
:103AA0000001B1F5801FCCF1200E32D201EB0451A0
:103AB00012FA0EF2BDE8104058BF7047401C38BFE4
:103AC0005FEA420218BF7047002814BF20F00100CF
:103AD00041F100014FEA410313F5001F38BF704761
:103AE000A1F1C04100F0A6BA012A43EB0302ACF1F8
:103AF000200CDCF11F0E32BF4FF0000E23FA0CF346
:103B000010EB030041EB0451B4EB115FD0D0A1EBFB
:103B1000045101F5801149085FEA300001EB0451BE
:103B20000ED350F1000038BF12FA0EFE08D1BDE8E6
:103B30001040C9E7401C38BF5FEA4202CAD1C3E760
:103B4000BDE810404FEA410313F5001F38BF70472E
:103B5000A1F1C04100F06EBA9EEA445F08D011EABC
:103B60005E0FBDE8104004BF01F000410020704727
:103B7000BDE8104070B500F00FFA00BF64FBBE3E18
:103B80000000E0FF02494FF0000000F012BF00BF4C
:103B90000000F87F2DE9C04130B4DFF8A0C23CEA54
:103BA000111418BF3CEA131400F0EC8081EA0305FD
:103BB0001CEA111444EAD57418BF1CEA131500F06E
:103BC000C780A4EB05044FF0004545EAC12145EA52
:103BD000C32341EA505143EA525304F17F7499429E
:103BE00004F500344FEAC0204FEAC22208BF9042D9
:103BF00000F09C804FEA13650FF24016765D4FEAA5
:103C0000134506FB05F7C7F1807706FB07F74FEA78
:103C1000D737A7FB03687642C8F58038A7FB06CEE6
:103C200038BFA8F1010807FB08E64FF0000EA6FB1D
:103C3000028CE6FB03CEDCF1000CCEF1004E38BF67
:103C4000AEF1010EA6FB0C584FF000074FF0000537
:103C5000E6FB0E87A1FB08C6A0FB07CE16EB0E06FF
:103C600045F10005E1FB076515F1E04E7EBFA4F5C7
:103C700080345FEA46066D4116F1800745F1000584
:103C80004FEA17274FEA066647EA0567A6F1DE46C0
:103C9000B6F1805F4FEA15251FD9384624F0010C94
:103CA00005EBC471BCF1FE6F01EB0C1102D8F0BC46
:103CB000BDE8008124425CBF01F5801E9EEAC47FFE
:103CC00002D4F0BCBDE80081244238D4F0BCA1F19C
:103CD000C041BDE8004100F0ADB94FEAD22242EA4E
:103CE00043524FEAD323A7FB02864FEAD02040EA93
:103CF000415007FB03661EEA0E0F4FEAD12105FB78
:103D0000026658BFA6EB0056B6EB00564FEA520EBD
:103D10004EEAC37E18EB0E0E56EB530EBDD518EBD4
:103D200002085E417F1C55F10005B6E74FF480158F
:103D30004FF000074FF000064FF00008ADE7F0BC71
:103D40004FF0000001F1C04101F00041BDE80081E9
:103D500011EA0C1F0CEA131500D00CE013EA0C1F3B
:103D600000F025804FF00000F0BC81EA030101F073
:103D70000041BDE80081F0BCBDE8004181EA0301DB
:103D800000F058B9F0BCBDE8004170B500F004F98E
:103D9000097EFC3E00F007B881EA03014FF0000005
:103DA00001F00041704781EA030100F043B9F0BC23
:103DB000BDE800414FF0000021497047FFFDFBF9CD
:103DC000F7F5F4F2F0EEEDEBE9E8E6E4E3E1E0DE4E
:103DD000DDDBDAD8D7D5D4D3D1D0CFCDCCCBCAC8C0
:103DE000C7C6C5C4C2C1C0BFBEBDBCBBBAB9B8B7E7
:103DF000B6B5B4B3B2B1B0AFAEADACABAAA9A8A8DA
:103E0000A7A6A5A4A3A3A2A1A09F9F9E9D9C9C9BA7
:103E10009A99999897979695959493939291919052
:103E20008F8F8E8E8D8C8C8B8B8A898988888787E3
:103E30008685858484838382828181800000FF0758
:103E40000000F87FDFF848C170B51CEA111E1EBFE4
:103E50001CEA13159EEA0C0F95EA0C0F00F06F8018
:103E600081EA030423EA4C134EEAD47E21EA4C1182
:103E700041F4801143F48013AE44A1FB024CA0FB3B
:103E80000365AEF17F7E361955EB0C05A1FB034CA3
:103E90004CF10003A0FB021C16EB0C06654153F12C
:103EA0000003094218BF46F0010613F4007F0BD14E
:103EB0004FEA03314FEA0530340341EA155140EA35
:103EC00016506FF003020AE04FEAC3214FEAC52003
:103ED000F40241EA555140EA56506FF0020202EBFB
:103EE0002E4201EB025585EACE710AD05FEA440CFE
:103EF00018BF24F0004450F1000041F1000120EA15
:103F0000D47040F2FE7C624500D270BDA84214BF5E
:103F10004FF080444FF04044002E08BF0024BEF113
:103F2000806FA8BFA1F1C041BDE8704080F28280DF
:103F30004FF0000001F1C04101F0004170479EEADE
:103F40000C0F0CEA131518BF95EA0C0F06D04FF0B2
:103F5000000081EA030E0EF0004170BD00F01CF875
:103F60008900013E00F007B800F009B84FEA430CA1
:103F70005FEA5C5C08D081EA030100F05BB84FEABD
:103F8000410C5FEA5C5CF6D14FF0000001497047DC
:103F90000000FF070000F87F0EF1020E2EF0030E66
:103FA0005EF8046B364205D4012A43EB030515F590
:103FB000001F12D8012841EB010C1CF5001F0CD882
:103FC0000ED14FEAD17C15F5001F0CEB4C0C0CF117
:103FD000020C08BF4CEBD37C04E04FF0080C01E06E
:103FE0004FEAD37C0CEB4C0526FA05F606F00706E3
:103FF000B6F1040C06D20EEB860CBDE870404CF016
:10400000010C6047DFE80CF0090B02024FF00041A1
:104010004FF00000A1F5002170BD1946104601289F
:1040200051EB010418BFD4F5001484BF002001F047
:10403000004170BD0808A0F500114FEA310170473A
:1040400091EA030F10B581F000413FF5FBAC83F01E
:10405000004300F0EFB800002DE9F04101F5801CAD
:10406000BCF5001FC0F2C3804FEA115C21EA0C517D
:104070000CF1FD0C41F480115FEA5C0C0CF5C07C86
:1040800001D3400049413DA4890241EA9051870291
:104090008E0E0A0CA45D04FB04F602FB06F6C6F1C4
:1040A0004046A4FB0662F60D46EA422606FB06F4ED
:1040B000A4FB01235242C3F1404338BF5B1EA6FB61
:1040C00002420024E6FB0324D20B42EA4446A6FB4C
:1040D0000623A1FB02E2A3FB07E4A4184FF00002B1
:1040E00052F10002E3FB01426442C2F1404E38BF8C
:1040F000AEF1010EA6FB04234FF00002E6FB0E32E8
:10410000A2FB03464FF00004B61954F10004E2FB91
:104110000264A1FB06E6A4FB07E816EB08064FF0D5
:10412000000858F10008E4FB01687642C8F14058E5
:1041300038BFA8F10108A2FB06E4A3FB08E52D198E
:104140004FF0000454F10004E2FB0854A1FB05E623
:10415000A7FB04E818EB06084FF0000656F100062E
:10416000E1FB048618F1200556F10006A809A8F124
:104170001B08B10908F03F08B8F10A0F40EA866051
:104180001CD901EB0C51BDE8F08100BFFCF5EEE855
:10419000E2DDD8D3CFCBC7C3C0BDB9B6B4B1AEACE6
:1041A000A9A7A5A3A19F9D9B9A9896959392908F5E
:1041B0008D8C8B898887868584838281A0FB0068AB
:1041C00000FB01F208EB4208B8EB872807D534184A
:1041D00058EB0104D5D5401C51F10001D1E7341A48
:1041E00078EB0104CDD4401E71F10001C9E75FEA0C
:1041F0004C0C5FEA9C5C0DD105D34FF0000001F040
:104200000041BDE8F081BDE8F04170B5FFF7C4FEA4
:104210006DDBFFBEBDE8F0414FF000000049704784
:104220000000F87F10B591EA030F48BF83F0004308
:104230003FF508AC841A71EB030C07D212198CF00D
:10424000004C43EB0C03001B61EB0C01DFF8A4E115
:104250004FEA1154A4EB135C1EEA430F18BF9EEA09
:10426000445F00F0B08023EA6E03524221EA045119
:10427000C3EB6E0338BF5B1EDCF1200E25D322FAA0
:104280000CFE10EB0E0043FA0CFE41EB0E01CCF1DC
:10429000200E03FA0EFE10EB0E0051F10001CCF1DE
:1042A000200E29D412FA0EF201EB0451BDE81040A1
:1042B00058BF7047401C1CBFB2F1004F7047002828
:1042C0000CBF491C20F00100704712EB020E43EBBB
:1042D000030218BF4FF0010E4EEA4202ACF1200C6F
:1042E000DCF11E0E54D943FA0CFE10EB0E0051F116
:1042F000FF31CCF11E0ED5D50EF1010E12FA0EFED5
:10430000404141EB010101EB445C5FEA5C5C10D988
:1043100010EBDE7001EB045138BFBEF1004FBDE879
:10432000104018BF704700280CBF491C20F0010046
:10433000704730D24FEAD42C11F5001124F40064F8
:104340001BD0B1FA81F20B3AA41AA41ED2F12003B9
:10435000914030FA03F31943904001EBCC71002CEB
:1043600001EB0451BDE81040A8BF704701F1C04106
:104370004FF0000001F000417047B0FA80F310FAEE
:1043800003F100D110BDE41A173C4805C90AE4E75F
:1043900001EB045110BD491001EB0451BDE8104080
:1043A0004FEA300002E04FF0000170474A0008BFBA
:1043B0000042F8D0B2F5001F28BF704701F000415D
:1043C0004FF0000070479EEA445F07D011EA5E0F8D
:1043D000BDE8104004BF002100207047BDE8104038
:1043E00070B5FFF7D9FD00BF40DFF63E83F0004116
:1043F000104670470000E0FF43004FEAD30C4FEA3D
:104400003C0C43401FBF40070CF1605113F0FE4FBE
:1044100070471CF0006F03D100200CF00041704782
:104420000CF0004343EA507010B540EACC0000F0B5
:1044300000FA00BF000000924FEA0001FFF7FABD4A
:104440004FF000414FF00000A1F50021704700003F
:1044500090EA010F48BF81F0004100F13C82421A0E
:104460003CBF801A89184FEAD0524FF07F4C1CEAAB
:10447000410FA2EBD15318BF9CEA026F00F03B80C2
:104480004FF0004C4CEA00204CEA012121FA03FCD9
:1044900010EB0C0C1ED202F1FF325FEA1C2040EB45
:1044A000C25038BF70471CF07F0F4FEA400C18BF56
:1044B000BCF17F4F38BF7047C3F12003994008BF5C
:1044C00020F00100BCF17F4F38BF7047A0F1C04021
:1044D00000F0F5B94FEA3C00000A40EBC25028BF9B
:1044E0001CF0FF0F4FEA400CE6D018BFBCF17F4F25
:1044F00038BF7047EAE79CEA026F05D010EA5C0F0C
:1045000008BF00F00040704710B500F092F900BFFE
:1045100064FBBE3E4FF47F0C1CEAD0121EBF1CEAA7
:10452000D11392EA0C0F93EA0C0F00F0858090EA09
:10453000010F48BF42F4807240F4000C41F40000C7
:104540002CF07F4120F07F4000B58142A2EB0302B6
:104550000FF2081CACEB504EC0F100009EF800E0DA
:104560004FEA4E0E00FB0EFC38BF49004FEA2C1CF0
:1045700002F5FA020CFB0EF34FEACE1E4FEA112CA5
:104580004FEAC1210EEB635E42EB22420EFB0CFCB4
:104590004FEA1C5300FB03114FEA112C4FEA013183
:1045A0000EFB0CFC4FEADC4C00FB0C11C14228BF97
:1045B00009184CEB03335DF804EB10EB410143EBBE
:1045C000C250B2F57C0F38BF704729D512F0F00FFA
:1045D0001CBF00F1C04000F00040704700818283A2
:1045E0008485868788898B8C8D8E8F919293959602
:1045F00097999A9C9D9FA0A2A3A5A7A8AAACAEB08C
:10460000B2B3B5B7B9BCBEC0C2C5C7C9CCCED1D490
:10461000D7D9DCDFE2E6E9ECF0F3F7FAFE000000C0
:104620004FEA400C0CF1807CBCF17E4F28BF7047F4
:10463000B0F1C04000F043B990EA010F0CEAD11389
:1046400048BF42F48072624538BF634507D213F415
:104650007F0F16D080EA010000F00040704710B5CF
:1046600000F0E7F8097EFC3E00F005B880EA0100A2
:1046700000F00040704780EA010000F0004000F0C8
:104680001EB912F47F0F04BF0248704780EA010090
:1046900000F015B90000C07FC10DD1F19E0206DB0C
:1046A0004FEA002343F0004323FA02F07047004230
:1046B00007D54FEA4001B1F1FE4F02D24FF00000A2
:1046C000704710B500F0B5F849922480002070477B
:1046D0006FEA20007047000010F0004148BF4042E0
:1046E000B0FA80F310FA03F2C3F19D030BD051EA44
:1046F000C35101EB1220530638BF704700F101008F
:1047000008BF20F001007047B0FA80F310FA03F2FE
:10471000C3F19D030AD0D90501EB1220530638BF1F
:10472000704700F1010008BF20F001007047000051
:104730004FF47F0C1CEAD0121EBF1CEAD11392EA80
:104740000C0F93EA0C0F00F0478090EA010F48BF6E
:1047500042F480724FF0004C4CEA00204CEA0121F8
:1047600002EB0302A0FB0113A2F50002002918BF0F
:1047700043F001035B0028BF4FEA330342EB2242C0
:104780005FEA132C4CEBC2502EBFBCEB436FB2F56B
:104790007C0F70474FEA036CBCF1004F08BF20F05C
:1047A0000100B2F57C0F38BF70470BD582F0FF02D5
:1047B00012F5803FC8BF704700F1C040D8BF00F07D
:1047C0000040704700F5000C5FEA4C0C48BF704792
:1047D000B0F1C04000F073B890EA010F0CEAD113B9
:1047E00048BF42F48072624538BF634504D280EA14
:1047F000010000F00040704710B500F01AF800BF4B
:104800008900013E00F007B800F009B85FEA410CEA
:104810005FEA1C6C08D080EA010000F050B85FEA43
:10482000400C5FEA1C6CF6D14FF00040A0F5800010
:1048300070470EF1020E2EF0030E5EF8044B244278
:1048400004D44FEA4102B2F17F4F11D84FEA40033E
:10485000B3F17F4F0CD80ED14FEAD07CB2F17F4F2D
:104860000CEB4C0C0CF1020C08BF4CEBD17C04E0BF
:104870004FF0080C01E04FEAD17C0CEB4C0324FA1A
:1048800003F404F00704B4F1040C06D20EEB840C1C
:10489000BDE810404CF0010C6047DFE80CF0070861
:1048A00002024FF00040A0F5800010BD0846420013
:1048B00018BFD2F1807288BF00F0004010BDFF2108
:1048C00041EAD050C005704790EA010F48BF81F01F
:1048D00000413FF5C4AD421A04D882F00042A0EB7B
:1048E000020011444FEAD0524FF07F4C1CEA410FB6
:1048F000A2EBD15318BF9CEA026F4AD04FF0004C94
:104900004CEA00204CEA012121FA03FCB0EB0C0C2C
:104910000FD412F0FE0F36D05FEA4C001DD5001206
:1049200040EBC25038BF70471CF03F0F18BF7047B4
:104930000BE0A2F101025FEA1C2040EBC25038BF3D
:1049400070471CF07F0F18BF7047C3F120039940D8
:1049500014BF401E20F00100704780084FEA122368
:1049600008BF7047B0FA80FCA2EB0C02CCF1280C17
:1049700060FA0CF093EA122F04BF00EBC2507047AC
:104980004FEAC3707047130A5FEADC1008BF704734
:10499000F6E79CEA026F04D010EA5C0F08BF002023
:1049A000704710B5FFF745FF40DFF63E81F000404D
:1049B00070470CF00F03092B08BF082000F0598046
:1049C0000A2B0BD0082B18BF704708BF1CF0400FF4
:1049D0000AD04FF000004FF0000170471CF0400F6C
:1049E00018BF4FF0004070471CF0100F08D020F0A7
:1049F000704300F07F4242EAD3014FEA43707047B0
:104A000000F0604021F07F4242EA000201F07F4066
:104A100040EA727070474FF0FF0C4CF4E06C1CEAF7
:104A200011531CBF9CEA030C9445C2BFDA4201EB50
:104A300002517047002B0DD0BCF1000F0FD0002A9F
:104A400001F00041A4BF41F0E04141F07F614FF02F
:104A50000000704701F000414FF00000704750EA3D
:104A600001334FF09B0C18BF4CF0806C7FF48AA888
:104A700070471CF4801F11D01CF4E02F03D06FEAA4
:104A8000CC31490070474FF04050EFF3008222F0E4
:104A9000704242EA000282F3008870474FF0000043
:104AA0007047000075191A0C6A231B1C1F207274B2
:104AB000433B4138393A6B6C376F06246D6E70009A
:104AC0006800000476005401F7FD00018300000037
:104AD000000800000001001832000500000020411D
:104AE0000000D242295C0F3E9A99993E3333733FBE
:104AF000295C0F3E0000700000000024000000024E
:104B00000003000000650054FFEF0000FA80000B76
:104B100012820001030C30C30E8C8CE914D54002C4
:104B200013710F8E3883F8833000F883258EF88355
:104B30003000F883FFFFFFFF0FFEA9D6240004001A
:104B40001A8279A10000003CFFFF00000010000065
:104B500038836FA2003E03304000000002CAE30920
:104B60003E80000020000000000000004000000027
:104B700060000000000C0000000C186E000006929F
:104B80000A16C0DFFFFF0256FD8CD377FFE1C49603
:104B9000E0C5BEAA00000000FFFF0B2B0000165767
:104BA000000003594000000000001DFA00026C1DC7
:104BB000000000003FFFDFEB003EB3B6000D22789F
:104BC00000002F3C00000000001942B5000039A28F
:104BD0000000B365D90E9FC91DCF4C3430000000D2
:104BE000500000003BB67AE80064000000C80000F6
:104BF00000000000100000001000FA921000225E79
:104C0000000D229F0001000000320000FF4600005E
:104C100063D400001000000004D6000004CC0000A3
:104C200004CC0000000010720000004000000000F2
:104C30000000000000060002000500070000000060
:104C40000064000000000000000000050005006492
:104C500000200000000000000000000000004000F4
:104C60000000030000000032F8980000FF6500001B
:104C7000830F0000FF9BFC0000000000000000000C
:104C80000000000000000000000000000000000024
:104C90000000000000000000000000000000000014
:104CA0000000100040000000000000060000B26A92
:104CB000000200000001FB830068000000D9FC0036
:104CC0007CF1FF830000000000650000006403E841
:104CD00000640028000000250000000016A000006D
:104CE0000000100000001000002F0000000001F480
:104CF0000000100000280000FFFF4581FFFFFA724E
:104D00000000000000000000004400050005BAC6D5
:104D1000004778A20000000100000000000006002B
:104D2000000000140000254D002F706D000005AE3E
:104D3000000C02D000000000000000000000000095
:104D400000000000001B0000000000000000000048
:104D500000000000006400000008000000000000E7
:104D60000000000000000000000000000000000043
:104D70000000000000000000000000000000000033
:104D80000000000000000000000000000000000023
:104D90000000000000000000000000000000000013
:104DA0000000000000000000000000000000000003
:104DB00000000000001B00000000000000000000D8
:104DC000000E000E00000AC70004000000000032C0
:104DD000FFFFFF9C00000B2B000000020000000101
:104DE00000000064FFE5000000000000000000007B
:104DF00000000000000000010000000000010000B1
:104E0000000000000001800000018000000180001F
:104E1000002426D30000000000000000000600105F
:104E20000096003C000000000000000000000000B0
:104E3000000000000C0A4E68CDCF77095016675964
:104E4000C619CE8200000000000000000000000033
:104E500000000000000000000000000017D78400E0
:104E6000030000000000000000000000C7938F9DB9
:104E70001E1B1C19000000000000000000000000C4
:104E80000000000000000000000000000203188580
:104E900000004000000000030000000300000000CC
:104EA00000000000400000000000000000000000C2
:104EB00000000000000000000000000000000000F2
:104EC00000000000000000000000000000000000E2
:104ED0000000000000000000677DDF7E72902E550C
:104EE0004CF6E68800000000000000000000000012
:104EF00000000000D8DCB4B8B0D8B9ABF3F8FAB30E
:104F0000B7BB8E9EAEF132F51BF1B4B8B08097F10D
:104F1000A9DFDFDFAADFDFDFF2AAC5CDC7A90CC991
:104F20002C97F1A989264666B28999A92D557DB09D
:104F3000B08AA896365676F1BAA3B4B280C0B8A8A3
:104F40009711B28398BAA3F0240844106418B2B938
:104F5000B49883F1A329557DBAB5B1A38393F0002A
:104F60002850F5B2B6AA839328547CF1B9A3829352
:104F700061BAA2DADEDFDB819AB9AEF5606870F162
:104F8000DABAA2DFD9BAA2FAB9A38292DB31BAA205
:104F9000D9BAA2F8DF85A4D0C1BBAD83C2C5C7B85A
:104FA000A2DFDFDFBAA0DFDFDFD8D8F1B8AAB38D88
:104FB000B4980D355DB2B6BAAF8C96198F9FA70E17
:104FC000161EB49AB8AA872C547CBAA4B08AB6919B
:104FD000325676B28494A4C808CDD8B8B4B0F1994A
:104FE00082A82D557D98A80E161EA22C547C92A442
:104FF000F02C5078F184A898C4CDFCD80DDBA8FC27
:105000002DF3D9BAA6F8DABAA6DED8BAB2B6869621
:10501000A6D0F3C841DAA6C8F8D8B0B4B882A8922E
:10502000F52C548898F135D9F418D8F1A2D0F8F9B4
:10503000A884D9C7DFF8F883C5DADF69DF83C1D870
:10504000F40114F1A8824EA884F311D182F5D9920B
:10505000289788F109F41C1CD884A8F3C0F9D1D989
:105060009782F129F40DD8F3F9F9D1D982F4C2036A
:10507000D8DEDF1AD8F1A2FAF9A88498D9C7DFF8E8
:10508000F8F883C7DADF69DFF883C3D8F40114F1D5
:1050900098A8822EA884F311D182F5D992509788CE
:1050A000F109F41CD884A8F3C0F8F9D1D99782F19A
:1050B00049F40DD8F3F9F9D1D982F4C403D8DEDF6D
:1050C000D8F1AD8898CCA809F9D98292A8F57CF1DD
:1050D000883ACF944A6E98DB6931DAADF2DEF9D8BE
:1050E0008795A8F221D1DAA5F9F417D9F1AE8ED0BF
:1050F000C0C3AE82C684C3A88595C8A588F2C0F196
:10510000F4010EF18E9EA8C63E56F554F18872F455
:105110000115F19845856EF58E9E0488F142985AE6
:105120008E9E068869F4011CF1981E1108D0F504C2
:10513000F11E970202983625DBF9D985A5F3C1DA6D
:1051400085A5F3DFD88595A8F309DAA5FAD8829268
:10515000A8F578F1881A849F26889821DAF41DF33F
:10516000D8879F39D1AFD9DFDFFBF9F40CF3D8FA38
:10517000D0F8DAF9F9D0DFD9F9D8F40BD8F3879F52
:1051800039D1AFD9DFDFF41DF3D8FAFCA869F9F9FA
:10519000AFD0DADEFAD9F88F9FA8F1CCF398DB45CF
:1051A000D9AFDFD0F8D8F18F9FA8CAF38809DAAF5A
:1051B0008FCBF8D8F2AD978D0CD9A5DFF9BAA6F34D
:1051C000FAF412F2D8950DD1D9BAA6F3FADAA5F20B
:1051D000C1BAA6F3DFD8F1BAB2B68696A6D0CAF3A2
:1051E00049DAA6CBF8D8B0B4B8D8AD84F2C0DFF1B4
:1051F0008FCBC3A8B2B68696C8C1CBC3F3B0B48870
:1052000098A821DB718D9D71859521D9ADF2FAD8D1
:105210008597A828D9F408D8F28D29DAF405D9F2AF
:1052200085A4C2F2D8A88D9401D1D9F411F2D887FF
:1052300021D8F40AD8F28498A8C801D1D9F411D899
:10524000F3A4C8BBAFD0F2DEF8F8F8F8F8F8F8F835
:10525000D8F1B8F6B5B9B08A95A3DE3CA3D9F8D891
:105260005CA3D9F8D87CA3D9F8D8F8F9D1A5D9DFAF
:10527000DAFAD8B18530F7D9DED8F830ADDADED831
:10528000F2B48C99A32D557DA083DFDFDFB591A00B
:10529000F629D9FBD8A0FC29D9FAD8A0D051D9F841
:1052A000D8FC51D9F9D879D9FBD8A0D0FC79D9FA52
:1052B000D8A1F9F9F9F9F9A0DADFDFDFD8A1F8F818
:1052C000F8F8F8ACDEF8ADDE8393AC2C547CF1A892
:1052D000DFDFDFF69D2CDAA0DFD9FADB2DF8D8A8C6
:1052E00050DAA0D0DED9D0F8F8F8DB55F8D8A87895
:1052F000DAA0D0DFD9D0FAF8F8F8F8DB7DF8D89C3E
:10530000A88CF530DB38D9D0DEDFA0D0DEDFD8A81E
:1053100048DB58D9DFD0DEA0DFD0DED8A868DB704C
:10532000D9DFDFA0DFDFD8F1A888902C547C98A8C3
:10533000D05C38D1DAF2AE8CDFF9D8B087A8C1C121
:10534000B188A8C6F9F9DA36D8A8F9DA36D8A8F9B2
:10535000DA36D8A8F9DA36D8A8F9DA36D8F78D9D32
:10536000ADF818DAF2AEDFD8F7ADFA30D9A4DEF92D
:10537000D8F2AEDEFAF983A7D9C3C5C7F1889BA7D7
:105380007AADF7DEDFA4F8849408A797F300AEF2B5
:105390009819A488C6A39488F632DFF28393DB09B8
:1053A000D9F2AADFD8D8AEF8F9D1DAF3A4DEA7F1A2
:1053B000889B7AD8F38494AE19F9DAAAF1DFD8A8D9
:1053C00081C0C3C5C7A39283F628ADDED9F8D8A3A0
:1053D00050ADD9F8D8A378ADD9F8D8F8F9D1A1DA79
:1053E000DEC3C5C7D8A18194F818F2B089ACC3C593
:1053F000C7F1D8B8B4B09786A8319B069907AB9788
:1054000028889BF00C201440B0B4B8F0A88A9A28E1
:105410005078B79BA8295179247059446938644859
:1054200031F1BBAB88002C547CF0B38BB8A80428B6
:105430005078F1B088B49726A85998BBABB38B02CB
:10544000264666B0B8F08A9CA82951798B295179F3
:105450008A2470598B2058718A4469388B39406886
:105460008A6448318B30496088F1AC002C547CF060
:105470008CA804285078F1889726A85998AC8C02FB
:10548000264666F0899CA8295179247059446938C8
:10549000644831A98809205970AB11384069A819AE
:1054A0003148608CA83C415C207C00F187981986CB
:1054B000A86E767EA999882D557DD8B1B5B9A3DFA0
:1054C000DFDFAED0DFAAD0DEF2ABF8F9D9B087C407
:1054D000AAF1DFDFBBAFDFDFB9D8B1F1A3978E60F0
:1054E000DFB084F2C8F8F9D9DED89385F14AB183E8
:1054F000A308B5839A0810B79F10D8F1B0BAAEB020
:105500008AC2B2B68E9EF1FBD9F41DD8F9D90CF13E
:10551000D8F8F8AD61D9AEFBD8F40CF1D8F8F8ADF5
:1055200019D9AEFBDFD8F416F1D8F8AD8D61D9F4F6
:10553000F4ACF59C9C8DDF2BBAB6AEFAF8F40BD820
:10554000F1AED0F8AD51DAAEFAF8F1D8B9B1B6A3F0
:10555000839C08B9B1839AB5AAC0FD3083B79F1068
:10556000B58B93F20202D1ABDADED8F1B080BAABE0
:10557000C0C3B284C1C3D8B1B9F38BA391B609B487
:10558000D9ABDEB0879CB9A3DDF1B38B8B8B8B8B52
:10559000B087A3A3A3A3B28BB69BF2A3A3A3A3A399
:1055A000A3A3A3A3A3F1B087B59AA3F39BA3A3DC02
:1055B000BAACDFB9A3A3A3A3A3A3A3A3A3A3A3A349
:1055C000A3A3A3A3D8D8D8BBB3B7F1AAF9DAFFD95C
:1055D000809AAA28B48098A720B79787A86688F0F1
:1055E0007951F1902C870CA781976293F0717160CB
:1055F00085940129517990A5F1284C6C870C951858
:105600008578A38390284C6C886CD8F3A28200F232
:1056100010A8921980A2F2D926D8F188A84DD948AD
:10562000D896A83980D93CD89580A839A68698D92B
:105630002CDA87A72CD8A8899519A980D938D8A899
:105640008939A980DA3CD8A82EA83990D90CD8A8D5
:10565000953198D90CD8A809D9FFD801DAFFD89587
:1056600039A9DA26FFD890A80D8999A81080982129
:10567000DA2ED88999A83180DA2ED8A8869631807A
:10568000DA2ED8A8873180DA2ED8A88292F341800A
:10569000F1D92ED8A882F31980F1D92ED882ACF393
:1056A000C0A28022F1A62EA72EA92298A829DAACA2
:1056B000DEFFD8A2F22AF1A92E8292A8F23180A6AA
:1056C00096F1D900AC8C9C0C30ACDED0DEFFD88CCF
:1056D0009CACD010ACDE8092A2F24C82A8F1CAF24F
:1056E00035F19688A6D900D8F1FF02030405060714
:1056F00008090A0B0C0D0E0F10100102000000002B
:105700000000000001020304060708090000000071
:105710000102030400000000555555555555C53F7D
:105720007D6FEB0312D6D4BF5544880E55C1C93FD7
:105730003B8F68B52882A4BF88B20175E0EF493F6E
:1057400009F7FD0DE13D023F4B2D8A1C273A03C0AE
:10575000C88A599CE52A004059018D1B6C06E6BF9A
:1057600082922EB1C5B8B33F4FBB610567ACDD3F38
:10577000182D4454FB21E93F9BF681D20B73EF3F78
:10578000182D4454FB21F93FE2652F227F2B7A3CF0
:10579000075C143326A6813CBDCBF07A8807703CA9
:1057A000075C143326A6913CC4EB98999999C9BF1C
:1057B000711623FEC671BCBF6D9A74AFF2B0B3BF51
:1057C0009AFDDE522DDEADBF2F6C6A2C44B4A2BF11
:1057D0000D5555555555D53FFF8300922449C23F7D
:1057E0006E204CC5CD45B73F513DD0A0660DB13FB1
:1057F000EB0D76244B7BA93F11DA22E33AAD903FC3
:1058000000000000000000002858000800000020F0
:10581000600000002801000888580008600000208F
:10582000B80600004401000800000000000000006D
:105830000000000000000000000000000000000068
:10584000A44A0008C04A0008000000000000000050
:105850000000000000000000000000000000000048
:105860000000000000000000CC4A00080100000019
:105870000100000001000000000000001000000016
:085880000100000000127A0093
:04000005080000ED02
:00000001FF
