:020000040800F2
:10000000C004002001010008AD1D0008C71700084A
:10001000A91D0008130A0008452000080000000080
:10002000000000000000000000000000DD1D0008CE
:10003000170A000800000000B11D0008DF1D0008BD
:100040001B0100081B0100081B0100081B01000820
:100050001B0100081B0100081B0100081B01000810
:100060001B0100081B0100081B0100081B01000800
:100070001B0100081B0100081B0100081B010008F0
:100080001B0100081B0100081B0100081B010008E0
:100090001B0100081B0100081B0100081B010008D0
:1000A0001B0100081B0100081B0100081B010008C0
:1000B0001B0100081B0100081B0100081B010008B0
:1000C0001B0100081B0100081B0100081B010008A0
:1000D0001B0100081B0100081B0100081B01000890
:1000E0001B0100081B0100081B010008DFF80CD0F1
:1000F00000F02CFC00480047D53A0008C00400205E
:100100000648804706480047FEE7FEE7FEE7FEE7B1
:10011000FEE7FEE7FEE7FEE7FEE7FEE74D1E00080E
:10012000ED000008202A04DB203A21FA02F0002129
:10013000704721FA02F3D040C2F1200291400843F7
:1001400019467047D2B201E000F8012B491EFBD2DC
:1001500070470022F6E710B513460A4604461946D2
:10016000FFF7F0FF204610BD30B5044600200346DF
:1001700000E05B1C934203D2E05CCD5C401BF8D0F6
:1001800030BDF0B480EA0102D40F4200B2EB410F5F
:1001900002D20246084611464A0042D0C30DDDB2E3
:1001A000C1F3C752AD1A202D35DAC1F3160141F45F
:1001B000000204B15242C5F1200602FA06F12A41BA
:1001C0001044B3EBD05F23D0C4B1012DA0EBC350DA
:1001D00009DCF0BC4FF0004202EAC352DBB200F58A
:1001E000000000F0E0BA400000F1807000EBC35066
:1001F000A0F1807040EAD170490009E0490841EA65
:10020000C071A0EBC35000F50000400800EBC350E4
:10021000F0BC00F0BFBA6142012202EB4101001BB9
:10022000F6E7F0BC704781F00041AAE780F000409B
:10023000A7E780EA010210B502F00043400022D097
:100240004A001FD0010E01EB1261C0F35600C2F349
:10025000560240F4000042F40002A0FB0220000419
:100260007F39140400D0401C50EA124001D44000F1
:10027000491EC2B20C0604EBD010401C4008802A74
:1002800002D003E0002010BD20F00100002900DAB8
:100290000020184310BD30B480EA010202F000458E
:1002A00030F0004221F0004013D090B1C30DD40DC6
:1002B000C2F31601C0F31600E41A41F4000140F441
:1002C00000027D34914201D3641C00E04900002CFF
:1002D00002DA30BC002070474FF400000023914246
:1002E00001D3891A034340084FEA4101F7D151B1C4
:1002F000914202D14FF0004105E002D24FF00101DE
:1003000001E06FF0010103EBC450284430BC00F061
:1003100041BA2DE9FE4F804681EA0300C00F0C462A
:10032000009021F0004123F00045B8EB0200A94104
:1003300005D24046214690461C460B46024623F015
:100340000040104347D0270DC7F30A00C3F30A51FA
:100350000290401A019040286BDAC3F3130040F476
:10036000801B0098924620B10023D2EB030A63EB76
:100370000B0B01985946C0F14002504600F0E9F9D4
:1003800006460D4650465946019A00F0F1F910EB29
:1003900008006141002487EA115284EAE7731A4396
:1003A00040D0009A62B3019A012A4FEA075215DC45
:1003B000001B61EB02014FF0004202EA0752CDE957
:1003C0000042001C41F5801132462B4600F028FA0D
:1003D00003B0BDE8F08F40462146F9E7001B61EB12
:1003E0000201001C41F5801300185B412018A2F5A2
:1003F000001747EB030140EAD570B6196D4111E0D3
:100400006D084FEA360645EAC0754FEA0752001BF1
:1004100061EB0201001C41F5801149084FEA3000F0
:100420000019514132462B4603B0BDE8F04F00F0B1
:10043000E8B90098012240000023D0EB020263EBF0
:10044000E073009821464FEAE074B8EB000061EBDE
:100450000401E9E783F000435BE781F0004158E7DE
:100460002DE9FE4F81EA030404F0004421F000412D
:1004700000944FF0000B23F0004350EA01045ED0DB
:1004800052EA03045BD0C3F30A54C1F30A552C4467
:10049000A4F2F3340194A0FB0254C1F3130141F41C
:1004A0008011C3F3130343F4801301FB024400FBE8
:1004B000034E840A970A44EA815447EA8357A4FB0F
:1004C000076802958D0A05FB07854FEA932C04FB0C
:1004D0000C542705029D4FEA065847EA1637B5EB3C
:1004E00008056EEB070C870E920E47EA811742EA69
:1004F0008312A7FB0201B6EB0B0164EB00042B0D8A
:1005000043EA0C335E1844EB1C50DA465146E7FBD5
:100510000201C5F313044FEA0B3343EA14534FEAC5
:100520000432019C43EA0603A4F10C040294009CEB
:10053000CDE900B400F074F903B0BDE8F08F0020FD
:100540000146F9E72DE9F04D81EA030404F0004B80
:1005500021F0004514464FF0000A23F0004150EA14
:10056000050220D054EA01021DD0C5F30A57024605
:10057000C5F31303C1F31300C1F30A5640F4801509
:1005800043F48013A7EB0608101BD64608F2FD388B
:1005900073EB050002D308F1010801E092185B41FA
:1005A000B8F1000F03DA00200146BDE8F08D00200D
:1005B0004FF48011064684460EE0171B73EB0507C7
:1005C00005D3121B63EB050306434CEA010C4908F3
:1005D0004FEA300092185B4150EA0107EDD152EA30
:1005E000030012D082EA040083EA0501084305D023
:1005F000101BAB4106D20122002306E000224FF07F
:10060000004302E06FF0010253101AEB06004CEBBE
:10061000085110EB0A0041EB0B01BDE8F04D00F072
:10062000F0B8C10F80EAE0700844CA0796230021A1
:1006300000F0B9B896230022114600F0B4B820F0BB
:100640000040C10DC0F3160040F400007F2901DA1C
:1006500000207047962903DCC1F19601C84070471D
:1006600096398840704700F0004230F000400AD0D0
:10067000C10D01F56071C0F3160042EA0151C208D4
:1006800040071143704700200146704701F00043C6
:1006900030B421F0004150EA010206D00A0DA2F563
:1006A0006072C1F31301002A02DC30BC00207047E5
:1006B000440F44EAC104C100E01830BC00EBC25052
:1006C00000F068B830B50B46014600202022012416
:1006D00009E021FA02F59D4205D303FA02F5491B10
:1006E00004FA02F52844151EA2F10102F1DC30BD26
:1006F0002DE9F05F0546002092469B468846064657
:10070000814640241BE02846414647462246FFF7E3
:1007100009FD53465A46C01A914110D31146184656
:10072000224600F016F82D1A67EB01084F462246C4
:100730000120002100F00DF817EB00094E41201EAA
:10074000A4F10104DFDC484631462A464346BDE8B1
:10075000F09F202A04DB203A00FA02F100207047C3
:100760009140C2F1200320FA03F3194390407047EF
:10077000202A06DBCB17203A41FA02F043EAE07365
:1007800006E041FA02F3D040C2F120029140084352
:10079000194670470029A8BF7047401C490008BF90
:1007A00020F00100704710B4B0FA80FC00FA0CF0A1
:1007B00050EA010404BF10BC704749B1CCF12004D9
:1007C00021FA04F411FA0CF118BF01212143084366
:1007D000A3EB0C01CB1D4FEA00614FEA102042BF92
:1007E000002010BC704700EBC35010440029A4BF88
:1007F00010BC7047401C490008BF20F0010010BC2D
:10080000704710B5141E73F1000408DA401C41F162
:10081000000192185B411A4301D120F0010010BD84
:100820002DE9F04D92469B4611B1B1FA81F202E0FA
:10083000B0FA80F220329046FFF78BFF04460F4655
:1008400040EA0A0041EA0B0153465A46084313D0D6
:10085000114653EA010019D0C8F140025046FFF793
:1008600061FC05460E46504659464246FFF771FF69
:10087000084305D0012004E020463946BDE8F08D4C
:100880000020054346EAE0762C4337430A98630587
:10089000E40AA0EB08000022FD0A44EA47540A30AB
:1008A00002D500200146E9E7010510196941DDE99B
:1008B000084500196941BDE8F04DA2E770B521F087
:1008C000004303430CD0C1F30A550024D5EB0405C3
:1008D00064EB0403D617AD1AB34102DB00200146D6
:1008E00070BD201841EB025170BDC1F30A52C1F333
:1008F000130140F2FF3341F480119A4202DA0020E2
:100900000146704740F233439A42A2F2334202DC7E
:100910005242FFF707BCFFF71CBF000030B5041EB2
:1009200071F1000404DB4FF00044404264EB01012C
:10093000141E73F1000405DB1C464FF000435242C5
:1009400063EB0403994208BF904230BD064C074D4B
:1009500006E0E06840F0010394E80700984710348F
:10096000AC42F6D3FFF7C6FB085900082859000827
:100970002DE9F04D00231A461B1A8A4103DB0020A3
:100980000146BDE8F08DC1F30A52C1F3130141F4F1
:1009900080154FF0000BD10702D100186D41521E97
:1009A0000027044640F2FF11384601EB620A3E463A
:1009B0008046024600204FF48011FFF7B3FBC219B6
:1009C0007141BB1846EB0100B4EB030C75EB000C56
:1009D00004D3E41A65EB000517460E46241908F106
:1009E00001006D4180463428E3DDF91946EB06002D
:1009F000091BA84103D24FF0FF32134601E0002249
:100A000013461BEB070046EB0A51BDE8F04DFFF71C
:100A1000F8BE00BFFEE7704772B600BFFEE70000F9
:100A200070B5044600F0B8F906462546681C10B1BA
:100A300004480078054400BF00F0AEF9801BA842CE
:100A4000FAD370BD580000202DE9F8470346002274
:100A500094466EE14FF0010808FA02F4D1F80080E4
:100A600008EA0400A0427DD1DFF8DCA2D1F80480BE
:100A7000A8EB0A09D0453AD014DCB8F1030F50D0E6
:100A800009DCB8F1000F31D0B8F1010F1CD0B8F17A
:100A9000020F49D120E0B8F1110F18D0B8F1120FB0
:100AA00042D11EE0B9F5881F25D006DCB9F5803F9C
:100AB00020D0B9F5801F37D11AE0B9F5001F18D042
:100AC000B9F5041F30D117E0D1F80CC02DE0D1F8F2
:100AD0000C8008F1040C28E0D1F80C8008F1080C17
:100AE00023E0D1F80C8008F10C0C1EE000BF00BF21
:100AF00000BF00BF00BF00BFD1F80880B8F1000FF1
:100B000002D14FF0040C0BE0D1F80880B8F1010FCE
:100B100003D14FF0080C1C6102E04FF0080C5C613F
:100B200003E04FF0000C00E000BF00BFFF2801D839
:100B3000984601E003F104084646FF2802D84FEA30
:100B4000820803E0A2F108084FEA88084746D6F871
:100B500000804FF00F0909FA07F928EA09080CFA92
:100B600007F900E088E048EA0908C6F80080D1F8F3
:100B7000048008F08058B8F1805F7DD100BFDFF8B5
:100B8000CC81D8F8188048F00108DFF8C091C9F886
:100B90001880C846D8F8188008F00108CDF8008001
:100BA00000BF00BF4FEAB9384FEA920958F8295000
:100BB0004FEA82784FEA18794FF00F0808FA09F8DF
:100BC00025EA0805DFF88881434502D14FF0000887
:100BD00016E0DFF88081434502D14FF001080FE0B5
:100BE000DFF87481434502D14FF0020808E0DFF8D6
:100BF0006C81434502D14FF0030801E04FF0040837
:100C00004FEA82794FEA197908FA09F848EA0505A6
:100C1000DFF84C814FEA920948F82950D1F8048056
:100C200008F48018B8F5801F0AD1DFF83881D8F8A9
:100C3000008048EA0008DFF82C91C9F8008009E03C
:100C4000DFF82081D8F8008028EA0008DFF8149146
:100C5000C9F80080D1F8048008F40018B8F5001F26
:100C600010D1DFF8008108F10408D8F8008048EAC4
:100C70000008DFF8F09000E05AE009F10409C9F833
:100C800000800DE0DFF8DC8008F10408D8F800806F
:100C900028EA0008DFF8CC9009F10409C9F80080BF
:100CA000D1F8048008F40038B8F5003F0ED1DFF821
:100CB000B480A8F10408D8F8008048EA0008DFF8FA
:100CC000A490A9F10409C9F800800DE0DFF8948030
:100CD000A8F10408D8F8008028EA0008DFF884901A
:100CE000A9F10409C9F80080D1F8048008F480381B
:100CF000B8F5803F0ED1DFF86C80A8F10808D8F86D
:100D0000008048EA0008DFF85C90A9F10809C9F8FA
:100D100000800DE0DFF84C80A8F10808D8F80080CA
:100D200028EA0008DFF83C90A9F10809C9F800801A
:100D3000521CD1F8008028FA02F8B8F1000F7FF4B5
:100D400089AEBDE8F88700000000111000100240D5
:100D500000080140000C0140001001400014014057
:100D60000800014008040140024693680B400BB1A3
:100D7000012000E00020704710B5C26821EA02039C
:100D800002EA010443EA0443036110BD0AB10161B0
:100D900001E00B04036170470148006870470000E0
:100DA00050000020034800680349097808440149BD
:100DB00008607047500000205800002010B5084817
:100DC000006840F0100006490860032000F098F821
:100DD0000F2000F007F800F02BF8002010BD0000F5
:100DE0000020024070B504460E4800784FF47A7136
:100DF000B1FBF0F00C490968B1FBF0F5284600F0B2
:100E0000E9FB08B1012070BD102C07D20022214659
:100E1000501E00F037F80548046001E00120F2E7B9
:100E20000020F0E7580000205C0000205400002063
:100E300008B500BF1148806940F001000F49886182
:100E40000846806900F00100009000BF00BF00BFAD
:100E50000846C06940F08050C8610846C06900F08B
:100E60008050009000BF00BF00BF0549486820F0D7
:100E7000E06040F00070486000BF08BD0010024014
:100E8000000001402DE9F05F80460D461646002720
:100E900001F0FEF8074639462A46334601F00700BE
:100EA000C0F1070ABAF1040F02D94FF0040A01E0B9
:100EB000C0F1070AD14600F1040ABAF1070F02D2C5
:100EC0004FF0000A01E0A0F1030AD4464FF0010AF6
:100ED0000AFA09FAAAF1010A0AEA020A0AFA0CFA5B
:100EE0004FF0010B0BFA0CFBABF1010B0BEA030B00
:100EF0004AEA0B042146404601F0D2F8BDE8F09FD3
:100F000000BF00F00702064B19684FF6FF031940B7
:100F1000044B0B4343EA0221014B196000BF7047A9
:100F20000CED00E00000FA0570B504460D460CB962
:100F3000012070BD5A48006800F00700A8420ED298
:100F40005748006820F007002843554908600846C4
:100F5000006800F00700A84201D00120E9E72078EE
:100F600000F0020002281DD1207800F004000428BF
:100F700005D14C48406840F4E0604A494860207818
:100F800000F00800082805D14648406840F4605049
:100F9000444948604348406820F0F000A168084395
:100FA00040494860207800F0010078B3606801286B
:100FB00006D13C48006800F4003090B90120B8E741
:100FC0006068022806D13748006800F0007040B918
:100FD0000120AEE73348006800F0020008B90120A4
:100FE000A7E73048406820F00300616808432D49B6
:100FF0004860FFF7D1FE064609E0FFF7CDFE801BF3
:1010000041F28831884202D9032092E707E025485F
:10101000406800F00C006168B0EB810FEDD1204812
:10102000006800F00700A8420ED91D48006820F0B3
:10103000070028431A4908600846006800F00700C6
:10104000A84201D0012074E7207800F004000428B1
:1010500007D11448406820F4E060E1680843114972
:101060004860207800F00800082808D10D48406842
:1010700020F46050216940EAC1000A49486000F04C
:101080003FF808494968C1F30311074A515CC84059
:101090000649086006480068FFF7A4FE002048E7FC
:1010A0000020024000100240005800085C000020B0
:1010B0005400002001480068704700005C000020D8
:1010C00000B5FFF7F7FF04494968C1F30221034A5D
:1010D000515CC84000BD00000010024010580008DC
:1010E00000B5FFF7E7FF04494968C1F3C221034A8D
:1010F000515CC84000BD00000010024010580008BC
:1011000070B500210022002400230020134D6968DF
:1011100001F00C05F5B1042D02D0082D19D101E024
:101120000F4819E00F4DC1F38346AB5D01F48035E4
:1011300055B10A4D6D68C5F340450B4E725D084DC3
:101140005D43B5FBF2F402E0084D03FB05F42046D5
:1011500002E000BF024800BF00BF70BD00100240A7
:1011600000127A00EE570008FE57000800093D0003
:10117000F8B504460CB90120F8BD207800F0010054
:10118000002878D0F848406800F00C0004280CD003
:10119000F548406800F00C00082811D1F24840687A
:1011A00000F48030B0F5803F0AD1EF48006800F4C9
:1011B000003000285FD0606800285CD10120DBE7A8
:1011C00000BF6068B0F5803F06D1E748006840F492
:1011D0008030E549086028E0606858B9E248006856
:1011E00020F48030E04908600846006820F4802040
:1011F00008601AE06068B0F5A02F0BD1DA480068EB
:1012000040F48020D84908600846006840F48030E7
:1012100008600AE0D448006820F48030D2490860B1
:101220000846006820F48020086000BF606888B12C
:10123000FFF7B2FD054606E0FFF7AEFD401B642850
:1012400001D9032098E7C848006800F4003000285E
:10125000F2D010E0FFF7A0FD054606E0FFF79CFD89
:10126000401B642801D9032086E7BF48006800F4CA
:1012700000300028F2D1207800F00200022857D177
:10128000B948406800F00C0050B1B748406800F021
:101290000C00082818D1B448406800F4803098B990
:1012A000B148006800F0020020B12069012801D097
:1012B000012061E7AC48006820F0F800616940EA6D
:1012C000C100A949086033E02069E8B10120A749BD
:1012D0000860FFF761FD054606E0FFF75DFD401B76
:1012E000022801D9032047E79F48006800F0020068
:1012F0000028F2D09C48006820F0F800616940EABC
:10130000C1009949086013E0002098490860FFF780
:1013100043FD054606E0FFF73FFD401B022801D9CB
:10132000032029E79048006800F002000028F2D16D
:10133000207800F0080008282DD1A069B8B101205C
:101340008B490860FFF728FD054606E0FFF724FDFE
:10135000401B022801D903200EE78348406A00F0B1
:1013600002000028F2D0012000F024FD13E000204C
:101370007F490860FFF710FD054606E0FFF70CFD0A
:10138000401B022801D90320F6E67748406A00F0A6
:1013900002000028F2D1207800F00400042873D164
:1013A00000277148C06900F0805070B900BF6E48D6
:1013B000C06940F080506C49C8610846C06900F0BF
:1013C0008050009000BF00BF01276A48006800F409
:1013D0008070B0B96748006840F480706549086063
:1013E000FFF7DAFC054606E0FFF7D6FC401B642851
:1013F00001D90320C0E65F48006800F4807000282F
:10140000F2D000BFE068012806D15748006A40F0DA
:1014100001005549086227E0E06858B95248006A5F
:1014200020F00100504908620846006A20F00400DC
:10143000086219E0E06805280BD14B48006A40F0CB
:101440000400494908620846006A40F00100086249
:101450000AE04548006A20F0010043490862084656
:10146000006A20F00400086200BFE068A0B1FFF746
:1014700093FC054609E0FFF78FFC401B41F28831E1
:10148000884202D9032077E622E03748006A00F05C
:1014900002000028EFD012E0FFF77EFC054608E0CE
:1014A000FFF77AFC401B41F28831884201D90320C2
:1014B00062E62D48006A00F002000028F0D1012FFA
:1014C00005D12948C06920F080502749C86100BF74
:1014D000E069C8B32448406800F00C00082860D0D8
:1014E000E069022848D1002020490866FFF754FC33
:1014F000054606E0FFF750FC401B022801D90320F7
:101500003AE61948006800F000700028F2D1206A1D
:10151000B0F5803F07D11448406820F40030A1683E
:10152000084311494860D4E9080108430E49496855
:1015300021F4741108430C49486001200B490866E6
:10154000FFF72AFC054607E03DE0FFF725FC401BBE
:10155000022801D903200FE60348006800F000705C
:101560000028F2D02FE000000010024000004242AC
:101570008004424200700040002014490866FFF7D2
:101580000BFC054606E0FFF707FC401B022801D9CB
:101590000320F1E50E48006800F000700028F2D149
:1015A00011E0E069012800D1E6E50948466806F443
:1015B0008031206A814204D106F47011606A814250
:1015C00001D00120D8E50020D6E50000000042420D
:1015D0000010024070B504462546681EB0F1807FB9
:1015E00001D301200FE0681E4FF0E02148610F2178
:1015F0004FF0FF3000F054FD00204FF0E0218861F3
:1016000007200861002070BD10B504460CB9012008
:1016100010BDA06900B100E000BF94F8410028B9F6
:10162000002084F84000204600F02AF8242084F8A6
:1016300041002068C06820F400502168C86020463E
:1016400000F03CFC2068006920F4904021680861AB
:101650002068406920F02A00216848612068C0683D
:1016600040F400502168C86000206064202084F8A5
:10167000410084F842000020606300BFC8E700001A
:1016800010B586B0044600200290039004900590A7
:101690001A49206888422ED100BF1948806940F459
:1016A0008040174988610846806900F480400190B5
:1016B00000BF00BF00BF0846806940F00400886199
:1016C0000846806900F00400019000BF00BF481583
:1016D0000290022003900320059002A90948FFF719
:1016E000B3F94FF48060029000200390049002A9A7
:1016F0000448FFF7A9F906B010BD0000003801400A
:1017000000100240000801402DE9F84F04460E4643
:10171000174699464FF0000A94F84100202850D10E
:1017200006B117B90120BDE8F88F002060642120C0
:1017300084F84100FFF730FB8246A784E784A06865
:10174000B0F5805F04D1206910B90025B04602E0F1
:1017500035464FF000081EE0534600228021204607
:10176000CDF8009000F028FC20B1202084F8410042
:101770000320D8E745B9B8F80000C0F30800216895
:10178000486008F1020803E02878216848606D1C71
:10179000E08C401EE084E08C0028DDD1534600221E
:1017A00040212046CDF8009000F006FC20B120201A
:1017B00084F841000320B6E7202084F8410000208F
:1017C000B1E70220AFE700BFFEE7000010B500223E
:1017D0004FF400710C48FFF7D9FA00F017F8012216
:1017E00011020948FFF7D2FA00F010F800224FF476
:1017F00080710548FFF7CAFA00F008F8012251028B
:101800000148FFF7C3FA10BD000C0140002001E0C1
:10181000411CC8B20A28FBDB7047000000B585B048
:1018200000BF0E48806940F008000C4988610846F6
:10183000806900F00800009000BF00BF4FF44070C6
:101840000190032004901120029001A90448FFF7A1
:10185000FBF800F0A1F805B000BD00000010024048
:10186000000C014010B5012251020A48FFF78EFA20
:10187000FFF7CCFF012211020648FFF787FAFFF7B6
:10188000C5FF00224FF480710248FFF77FFAFFF78F
:10189000BDFF10BD000C014070B5054600240026B8
:1018A0001AE06006040E012211021048FFF76EFADA
:1018B000FFF7ACFF4FF400710C48FFF755FA08B181
:1018C000601CC4B200224FF480710848FFF75EFA32
:1018D000FFF79CFF701CC6B2082EE2DB15B9FFF7BC
:1018E000C1FF01E0FFF772FF204670BD000C014010
:1018F00070B5044600252AE004F0800028B10122DA
:1019000051021448FFF742FA05E000224FF400713B
:101910001048FFF73BFAFFF779FF012211020D484B
:10192000FFF734FAFFF772FF00224FF48071094885
:10193000FFF72CFA072D04D1012251020548FFF7C9
:1019400025FA6006040EFFF761FF681CC5B2082D7A
:10195000D2DB70BD000C014010B5012251020D48D0
:10196000FFF714FA012211020A48FFF70FFAFFF7F6
:101970004DFF00224FF400710648FFF707FAFFF70A
:1019800045FF00224FF480710248FFF7FFF9FFF78F
:101990003DFF10BD000C014010B500224FF4007156
:1019A0000748FFF7F3F9012211020548FFF7EEF9A6
:1019B000FFF72CFF012251020148FFF7E7F910BDA4
:1019C000000C014010B5012251020F48FFF7DEF96B
:1019D000FFF71CFF012211020B48FFF7D7F9FFF7B1
:1019E00015FF4FF400710848FFF7BEF908B1012454
:1019F00000E0002400224FF480710348FFF7C6F98D
:101A0000FFF704FF204610BD000C014010B5FFF7A2
:101A100005FF80216B2000F0D7F86420FFF700F865
:101A200000216B2000F0D0F8032000F08BF800209C
:101A300000F080F8322000F0AAF80021382000F0F1
:101A4000C3F800216A2000F0BFF80021232000F035
:101A5000BBF88021372000F0B7F8752000F013F8AC
:101A60000446682C0BD101216B2000F0ADF8002159
:101A70006C2000F0A9F8322000F089F801E0012084
:101A800010BD0020FCE770B50446FFF765FFD020CD
:101A9000FFF72EFFFFF796FF2046FFF729FFFFF71E
:101AA00091FFFFF759FFD120FFF722FFFFF78AFFD1
:101AB0000020FFF7F1FE0546FFF76EFF284670BDD8
:101AC0002DE9F04106460F4614461D46FFF744FF38
:101AD000002141EA4601C8B2FFF70AFFFFF772FF93
:101AE00020B1FFF759FF0120BDE8F0813846FFF72C
:101AF000FFFEFFF767FFFFF72FFF012101EB460114
:101B0000C8B2FFF7F5FEFFF75DFF0DE0012C04D131
:101B10000020FFF7C1FE287003E00120FFF7BCFEA4
:101B20002870601EC4B26D1C002CEFD1FFF734FF8B
:101B30000020D9E710B50446E006010E1C2000F095
:101B400043F810BD10B50446E006010E1B2000F05E
:101B50003BF810BD70B504460025BC2C01DB012507
:101B600010E0622C01DB02250CE02A2C01DB0325AE
:101B700008E0142C01DB042504E00A2C01DB052518
:101B800000E0062529461A2000F01EF870BD70B549
:101B90000446B4F57A7F01DD4FF47A74042C00DA40
:101BA00004244FF47A7090FBF4F0401EC5B229462D
:101BB000192000F009F80546264604EBD671C1F35A
:101BC0004F00FFF7C7FF70BD70B505460C46FFF725
:101BD000C3FED020FFF78CFEFFF7F4FE18B1FFF72D
:101BE000DBFE012070BD2846FFF782FEFFF7EAFE0C
:101BF0002046FFF77DFEFFF7E5FE18B1FFF7CCFEAC
:101C00000120EFE7FFF7C8FE0020EBE72DE9F041E8
:101C100005460E4617469846FFF79EFE002141EA0C
:101C20004501C8B2FFF764FEFFF7CCFE20B1FFF715
:101C3000B3FE0120BDE8F0813046FFF759FEFFF703
:101C4000C1FE00240CE018F80400FFF751FEFFF776
:101C5000B9FE18B1FFF7A0FE0120EBE7601CC4B28B
:101C6000BC42F0DBFFF798FE0020E3E700B585B04B
:101C70000020019002900390049000BF38488069D2
:101C800040F01000364988610846806900F0100075
:101C9000009000BF00BF00BF0846806940F02000F0
:101CA00088610846806900F02000009000BF00BFF6
:101CB00000BF0846806940F00400886108468069DA
:101CC00000F00400009000BF00BF00BF084680691C
:101CD00040F0080088610846806900F00800009024
:101CE00000BF00BF00224FF400511E48FFF74EF81E
:101CF00000224FF45C711C48FFF748F84FF4005085
:101D0000019001200290002003900220049001A97C
:101D10001448FEF799FE70200190012002900020E7
:101D200003900320049001A90F48FEF78DFE802048
:101D300001900E4802900020039001A90A48FEF786
:101D400083FE4FF440700190112002900020039018
:101D50000320049001A90448FEF776FE05B000BDFB
:101D60000010024000100140000C01400000111062
:101D700010B50B480B4908604FF4E1304860002172
:101D800008488160C16001610C21416100218161CD
:101D9000C161FFF739FC08B1FEF73EFE10BD00003F
:101DA000003801406800002000BFFEE700BFFEE7EA
:101DB0007047000008B508490968C9084FF47A72ED
:101DC000B1FBF2F14143009100BF00BF00994A1EF0
:101DD00000920029F9D108BD5C000020704710B5C1
:101DE000FEF7E0FF10BD00B58FB0282105A8FEF773
:101DF000B0F914216846FEF7ACF901200590000403
:101E00000690002007900120099002200C90C10349
:101E10000D914FF4E0110E9105A8FFF7A9F908B153
:101E2000FEF7FAFD0F2000900220019000200290A2
:101E30004FF4806003900020049002216846FFF771
:101E400073F808B1FEF7E8FD0FB000BD704700BFA2
:101E500000BF02680C3252E8002F22F49071026831
:101E60000C3242E80013002BF3D100BF00BF00BFCB
:101E70000268143252E8002F22F001010268143285
:101E800042E80013002BF3D100BF016B01290ED1F2
:101E900000BF00BF02680C3252E8002F22F0100190
:101EA00002680C3242E80013002BF3D100BF20215E
:101EB00080F84210002101637047000070B50446AD
:101EC0002168096921F44051E268114322681161D7
:101ED0002269A1681143626941EA02052168C96863
:101EE00041F20C62914329432268D160216849691B
:101EF00021F44071A2691143226851612D4A216881
:101F0000914202D1FFF7ECF801E0FFF7D9F800EBBE
:101F1000C00101EB001162689200B1FBF2F100EB2D
:101F2000C00202EB001263689B00B2FBF3F2642371
:101F3000B2FBF3F202EBC20303EB0212A1EB82014C
:101F4000322202EB01116422B1FBF2F101F0F00147
:101F500000EBC00202EB001263689B00B2FBF3F2DD
:101F60006423B2FBF3F201EB021200EBC00101EBC0
:101F7000001163689B00B1FBF3F100EBC00303EBBE
:101F800000136668B600B3FBF6F36426B3FBF6F302
:101F900003EBC30606EB0313A1EB8301322303EB30
:101FA00001116423B1FBF3F101F00F011144226828
:101FB000916070BD003801402DE9F84304460D469C
:101FC00017469846089E31E0701C70B3FEF7E4FE99
:101FD000A0EB0800B04200D816B90320BDE8F88392
:101FE0002068C06800F00400F8B1802D1ED0402D9C
:101FF0001CD020680068C0F3C000B0B100BF002052
:10200000009020680068009020684068009000BF41
:1020100000BF2046FFF71BFF0820606400BF0020C0
:1020200084F8400000BF0120D8E7FFE7206800687F
:102030002840A84201D1012000E00020B842C3D0CE
:102040000020CBE700BFFEE70FB4054B10B503A996
:10205000044A029800F078F910BC5DF814FB000007
:10206000413A000860000020490050EAC12018BF32
:1020700004204A0D18BF40F0010040F2FF72B2EB9D
:10208000515F08BF40F00200012808BF05207047DB
:1020900002480068C0F30220704700000CED00E029
:1020A00010B5002804DB0A07130E054A135406E096
:1020B0000A07140E034A00F00F031B1FD45410BD6F
:1020C00000E400E018ED00E02DE9F0414F1E00EBC8
:1020D000C7010446D1E9000115461E4637F0060245
:1020E0000DD02A463346FEF7BBF97F1E04EBC7032B
:1020F000D3E90023FEF70DF937F00602F1D1022FE4
:1021000025D0042F13D0062F18BFBDE8F0812A4632
:102110003346FEF7A5F9D4E90A23FEF7FAF82A4672
:102120003346FEF79DF9D4E90823FEF7F2F82A4674
:102130003346FEF795F9D4E90623FEF7EAF82A4676
:102140003346FEF78DF9D4E90423FEF7E2F82A4678
:102150003346FEF785F9D4E90223FEF7DAF82A467A
:102160003346FEF77DF9D4E90023BDE8F041FEF7E0
:10217000D0B80122FEF7A2BBFEF7CBB8002213466F
:1021800010461146FEF7DEB9024A00201107FEF79D
:1021900095BB000001FDFFFF02E008C8121F08C147
:1021A000002AFAD170477047002001E001C1121FD8
:1021B000002AFBD170470000014908607047000009
:1021C000640000202DE9FF5F82B00021DDE90430CA
:1021D000020DDDF840B0034318D044F61050A2F2CF
:1021E000FF3242431514119801281FD0A5EB0B00B4
:1021F000401C5FEA000A4FF000064E4FDFF83891AE
:10220000B046504615D5CAF1000413E011980124D8
:102210004AA3012801D16FEA0B010298119AC0E983
:102220000031C0E9024206B0BDE8F09FCBF10000EA
:10223000DFE704460021404A491842EB0450CDE94B
:10224000001012E0E00707D032463B4640464946C0
:10225000FEF706F98046894632463B461046194647
:10226000FEF7FEF806460F466410002CEAD1DDE9C1
:102270000401DDE90023BAF1000F06DAFEF7F0F8F9
:1022800042464B46FEF7ECF805E0FEF75BF94246A6
:102290004B46FEF757F904460E460022284BFEF740
:1022A0003DFB03D84FF0FF30014607E00022254BED
:1022B00020463146FEF72DF8FEF717FB102409E003
:1022C000002C0ADB0A220023FEF712FA039B3032AD
:1022D0001A55641E50EA0102F2D1641C039AC4F13B
:1022E00011031444119A012A03D0012208430DD18D
:1022F0000AE0084304D000204FF0110B119072E760
:10230000A3EB0B056D1E0DE05B4504DD4FF00002F5
:1023100005F1010504E003DA4FF00002A5F1010523
:10232000002AECD002981199C0E90231C0E90045B9
:1023300079E70000000014400000F03F300000008A
:102340000000F0430000E03F2DE9FF4F95B09B46B1
:102350008946064600250FE2252877D10024274626
:10236000F84A0121059400E0044316F8013F203BA0
:1023700001FA03F01042F7D130782A2811D06FF01B
:102380002F033078A0F13002092A16D8059A44F0BC
:10239000020402EB820203EB42021044761C059019
:1023A000EFE759F8042B0592002A03DA504244F46F
:1023B0000054059044F00204761C30782E2816D183
:1023C00016F8010F44F004042A280DD06FF02F02F4
:1023D0003078A0F13003092B09D807EB870302EB13
:1023E0004303C718761CF3E759F8047B761C307852
:1023F0006C280FD006DC4C2817D068280DD06A282E
:1024000014D104E0742810D07A280FD10DE044F4E0
:1024100000140AE044F4801401E044F4401472789B
:10242000824202D104F58014761C761C307866282E
:102430000BD013DC582877D009DC002875D045284C
:10244000F6D04628F4D047281AD19DE118E0632839
:1024500035D0642879D0652812D195E1702873D0E1
:1024600008DC6728F1D069286FD06E280DD06F285E
:1024700006D1B5E073282CD0752875D0782874D093
:102480005A46179990476D1C75E1C4F30250022813
:1024900009D003280DD0D9F8001004280DD00D6004
:1024A00009F1040967E1D9F80010EA17C1E90052FF
:1024B000F6E7D9F800100D80F2E70D70F0E719F893
:1024C000041B8DF8001000208DF80100EA46012061
:1024D00003E059F804AB4FF0FF3061074FF0000103
:1024E00002D40DE008F101018846B9420FDA8045B7
:1024F000F8DB1AF808100029F4D108E008F101010E
:1025000088468142FADB1AF808100029F6D10598AE
:102510005B46A0EB080721463846179A00F094FA6C
:10252000284400EB080507E04DE029E10DE01AF82A
:10253000010B5A4617999047B8F10108F7D25B464C
:1025400021463846179A13E142E00A220092C4F36A
:1025500002524FF0000A022A08D059F804CB032A8D
:102560004FEAEC710AD00DE029E02AE009F10701F9
:1025700021F00702F2E802C1914609E00FFA8CFC53
:102580004FEAEC71042A03D14FFA8CFC4FEAEC714C
:10259000002907DA0A460021DCF1000C61EB020198
:1025A0002D2202E0220504D52B228DF804200122E1
:1025B00003E0E20701D02022F7E7904659E00A2124
:1025C00002E010220DE010214FF0000A00910BE014
:1025D00010224FF0000A44F004040827009203E0A0
:1025E00008224FF0000A0092C4F30252022A05D0DA
:1025F00059F804CB0021032A08D009E009F10701AA
:1026000021F00702F2E802C1914605E01FFA8CFCB6
:10261000042A01D10CF0FF0C4FF00008220728D546
:10262000702806D0009B83F0100353EA0A0305D0FC
:102630000EE040228DF80420012208E05CEA01024D
:1026400006D030228DF804208DF805000222904635
:10265000009B83F0080353EA0A030AD15CEA0102F3
:1026600001D1620705D530228DF804204FF0010812
:102670007F1E582804D034A003900EA802900DE0CD
:1026800036A0F9E753466046009AFEF731F88446D3
:102690000398825C0298401E029002705CEA01007E
:1026A000F0D1029806A9081A00F1200A600702D5A5
:1026B00024F4803400E00127574502DDA7EB0A002F
:1026C00000E0002000EB0A01009005984144401A08
:1026D0000590E00306D45B462146179A059800F062
:1026E000B3F90544002706E001A85A46C05D1799D2
:1026F00090476D1C7F1C4745F6DBE0030CD55B461D
:102700002146179A059800F09FF9054404E030200F
:102710005A46179990476D1C0099481E0090002951
:10272000F5DC08E0029802995A460078491C0291AB
:10273000179990476D1CBAF10001AAF1010AF1DC6A
:1027400065E1000009280100303132333435363775
:1027500038396162636465660000000030313233ED
:10276000343536373839414243444546000000008D
:1027700000F058F90544761C307800287FF4ECAD61
:1027800019B02846BDE8F08F620700D4062709F18A
:10279000070222F0070CFCE80223E14603F00048A0
:1027A0005FEA080C02D00FF2702C0DE05FEA045CC7
:1027B00002D50FF2682C07E05FEAC47C02D00FF26A
:1027C000602C01E0AFF2700C4FF0FF3823F00043B3
:1027D000CDF850C065280CD006DC452809D0462825
:1027E0001DD047283DD13DE0662818D067287ED10E
:1027F00038E00021112F01DB112000E0781CCDE929
:10280000000106A90EA8FFF7DDFCDDE90F010E9A15
:1028100003910021009207F1010A04914DE04FF06D
:1028200000400097CDE9011006A90EA8FFF7CAFCE9
:10283000DDE90F0203920E9B11990022DDF80CA036
:102840000093049211B9791C00EB010AB7EB0A005E
:1028500004D4C0F1FF3007F1010A0490AAEB07008D
:10286000019044E0012F00DA01270021112F01DD42
:10287000112000E03846CDE9000106A90EA8FFF7B7
:10288000A1FCDDE90F010E9A039100210491009251
:10289000BA4621070CD40399514500DA8A46BAF1A9
:1028A000010F05DD009AAAF10101515C302908D021
:1028B000B84202DA10F1040F06DA0121CDE9011065
:1028C00015E0AAF10101E9E7002805DC04990144BB
:1028D0000491AAEB000102E0411C514500DD8A464B
:1028E0000499401A401C01904FF0004002902007CC
:1028F00004D40198504501DBCDF8048000208DF808
:102900004F0002980DF14F07B0F1004F25D02B205A
:102910000E9002984FF0020800280CDA4042029014
:102920002D200E9007E00A210298FDF7CBFE3031F2
:10293000029007F8011DB8F10001A8F10108F2DCCE
:1029400002980028EFD1791E0E980870307800F0B8
:10295000200040F0450007F8020D12A8C01B00F14E
:1029600007081498007800B1012000EB0A010198D3
:1029700001EBE07105984144401A401E0590E003C8
:1029800006D45B462146179A059800F05DF8054489
:102990001498007818B15A46179990476D1CE003B7
:1029A00024D55B462146179A059800F04DF805445A
:1029B0001CE00498002807DBDDE90301884203DD01
:1029C0000098405C179901E0179930205A469047CB
:1029D000049805F10105401C04900198401E0190E7
:1029E00004D12E205A46179990476D1CBAF1000168
:1029F000AAF1010ADDDC05E017F8010B5A46179928
:102A000090476D1CB8F10001A8F10108F4DC5B46A9
:102A10002146179A0598ABE62D0000002B00000018
:102A2000200000002DE9F041044600251E4617460F
:102A3000880404D405E039462020B0476D1C641E8C
:102A4000F9D52846BDE8F0812DE9F041044600257E
:102A50001E469046C80301D5302700E02027880491
:102A600004D505E041463846B0476D1C641EF9D5D3
:102A70002846BDE8F08100002DE9F04D8D4F21F092
:102A8000004A86B005460C46BA452ADBAAEB070089
:102A900028430AD08848824501DC1AD1CDB106B05E
:102AA0002846BDE8F04DFFF764BB844A844B2846B6
:102AB000FDF7D6FC07460E46824A834B2846214640
:102AC000FDF7CEFC06B03A463346BDE8F04DFDF7C3
:102AD00020BC0120FFF770FB06B0BDE8F04DFFF70A
:102AE0004DBB7A48824542DABAF1795F0BDA284663
:102AF000FFF7BAFA042808BFFFF746FB284606B0DE
:102B00002146BDE8F08D2A460B461046FDF7A8FC8D
:102B1000834602466E480E460B4606217844FFF770
:102B2000D3FA5A463346FDF79BFC804669488A46ED
:102B30005A46334604217844FFF7C6FA5A463346CC
:102B4000FDF78EFC00223B46FDF7E3FB02460B46F9
:102B500040465146FDF7F6FC2A462346FDF780FC29
:102B600006B02A462346BDE8F04DFDF7D2BB284605
:102B700024F0004100223D463B46FDF76EFC4FF03D
:102B8000FF32FDF79BFE0646024653480F460B46B2
:102B900006217844FFF798FA32463B46FDF760FC81
:102BA000CDE900014D4832463B4604217844FFF709
:102BB0008BFA32463B46FDF753FC00222B46FDF7CD
:102BC000A8FB834602913046394601F0C7FF804694
:102BD00043480D46504517DCDDE900015A46029B8B
:102BE000FDF7B0FC42462B46FDF73AFC42462B4629
:102BF000FDF78FFB0122FDF761FE304A304BFDF7F8
:102C000029FC304A304B4CE04FF0000A52460B464C
:102C10004046FDF77EFBCDE9031052462B46104699
:102C20001946FDF71DFC32463B46FDF716FCDDE973
:102C30000332FDF787FC06460F46DDE900015A46E0
:102C4000029BFDF77FFC8346009101223046394606
:102C5000FDF734FE194A1A4BFDF7FFFB06460F46F7
:102C6000012240462946FDF729FE5A46009BFDF702
:102C7000F7FB32463B46FDF7EDFB06460F460122C9
:102C800050462946FDF71AFE0E4DDFF858802A46B9
:102C90004346FDF7E2FB32463B46FDF7DEFB2A46A4
:102CA0004346FDF7DAFB002CD8BF81F0004106B0A7
:102CB000BDE8F08D0000F03F0000F07F075C1433AA
:102CC00026A6913C182D4454FB21F93F0000E03F1B
:102CD000F82C00000E2D0000822C0000982C000023
:102CE0003333EF3FFB21E93F2DE9F84F04460D4612
:102CF00021F0004000917349814211DC7249884201
:102D000001DC06D12CB120462946BDE8F84FFFF77B
:102D100030BA6E48002DCCBF6D496E49BDE8F88FC2
:102D20006D49814211DD6D498142D8BF4FF0FF36B8
:102D30006DDD20462946FFF797F9042808BFFFF705
:102D400023FA20462946BDE8F88F6549654F25F0EE
:102D50000045814233DD6449814219DD0026324657
:102D60004FF0804320462946FDF7D3FA80468A4635
:102D7000012220462946FDF7A1FD00223B46FDF732
:102D800069FB42465346FDF7DDFB04460D463EE037
:102D900001260022BA463B4620462946FDF7B9FAED
:102DA00080460F460022534620462946FDF752FB37
:102DB00042463B46FDF7C6FB04460D4627E04B491D
:102DC00081421BDDDFF828A102260022534620465F
:102DD0002946FDF745FB00223B46FDF79AFA80465F
:102DE0000F460022534620462946FDF733FB424654
:102DF0003B46FDF7A7FB04460D4608E003262246A6
:102E00002B4600203B49FDF79DFB04460D4622461C
:102E10002B4610461946FDF723FB8B468246024699
:102E20000B46FDF71DFB07460246334888460B4616
:102E300006217844FFF748F952465B46FDF710FB40
:102E400082462E488B463A46434605217844FFF792
:102E50003BF93A464346FDF703FB02460B46002E7C
:102E6000504659460CDAFDF754FA22462B46FDF738
:102E7000F7FA01B022462B46BDE8F04FFDF7EDBA58
:102E8000FDF747FA22462B46FDF7EAFA1C4A7A4438
:102E900002EBC603D3E90023FDF7DCFA22462B46FA
:102EA000FDF7D8FA174A7A4402EBC603D3E90023A8
:102EB000FDF7D3FA009A002AB8BF81F00041BDE8BF
:102EC000F88F0000000010440000F07F182D4454DB
:102ED000FB21F93FFB21F9BF0000DC3F0000203E51
:102EE0000000F33F0000F03F0000E63F0080034099
:102EF0000000F83F0000F0BF9A2A0000582A0000A6
:102F0000F6290000BE2900002DE9F04D9446CCF1D1
:102F1000000423F000464CEA0404524F46EAD474FD
:102F20009A46884621F00042BC4206D8454240EA13
:102F3000050442EAD474BC4204D9BDE8F04D6246AF
:102F4000FFF71AB9AAF14055A5F17F6555EA0C04BF
:102F50000BD0022404EAAA74434DDFF810E144EADE
:102F6000D87452EA000B04D00CE0BDE8F04DFFF736
:102F7000BBBE002C14BF012CBDE8F08D022C30D05C
:102F8000032C32D056EA0C0B0AD0BE4220D1BA42F2
:102F900009D126F0804622F080423346114617E0E0
:102FA00000291ADB25E0DFF8C8B0FB44002C04BF81
:102FB000DBE90001BDE8F08D012C02BFDBE9000177
:102FC00081F00041BDE8F08D022C0AD0032C0CD01A
:102FD000BA4212D1B8F1000F0BDA23482549BDE8F7
:102FE000F08D28462449BDE8F08D28467146BDE89D
:102FF000F08D1D482149BDE8F08D921B12153C2A29
:10300000C4BF19481D490EDCBAF1000FBEBF12F152
:103010003C0F0020014606DB6246FDF793FA21F0E3
:103020000041FFF761FE002C08BFBDE8F08D012CC8
:1030300004BF81F00041BDE8F08D114A114B022C14
:1030400007D0FDF707FA2A46BDE8F04D0A4BFDF719
:1030500001BAFDF7FFF92A46BDE8F04D064BFDF732
:10306000FCB900000000F07F182D4454FB2109C07A
:1030700052290000FB21F9BFFB210940FB21F93F48
:10308000075C143326A6A13C2DE9F0410446E07804
:1030900000F0C006E07800F03F05607800F0010025
:1030A00098B1EF102846E91705EB5171C910A5EB4F
:1030B000C101491C01F0FF080B48006820B10A4813
:1030C000414602683846904700BF607800F008002B
:1030D00030B10548406818B1B011034A51688847BB
:1030E0000020BDE8F0810000B000002038B50446A3
:1030F00064B120208DF8000028208DF801003020D8
:103100008DF8020038208DF8030004E0A32204218A
:103110006846FDF717F86A46042140F69E2001F044
:1031200095FC01F00DF938BD3EB5044602208DF83E
:103130000000CA208DF80100E3208DF8020009206C
:103140008DF803006A460421682001F07FFCA3206B
:103150008DF8000004F0400048B1C0208DF8010057
:10316000C8208DF80200C2208DF8030006E0A320DD
:103170008DF801008DF802008DF8030004F4C07092
:1031800048B1C4208DF80400CC208DF80500C6207D
:103190008DF8060006E0A3208DF804008DF80500E8
:1031A0008DF80600A3208DF807008DF808008DF833
:1031B00009006A460A2140F6A72001F047FC04F006
:1031C000030018B120208DF8000002E0D8208DF80F
:1031D00000006A46012140F6B62001F037FC04F0F9
:1031E000200018B1012000F0ADF802E0002000F04E
:1031F000A9F804F4C07008B304F4807060B1B22080
:103200008DF800008B208DF80100B6208DF80200AB
:103210009B208DF803000BE0B0208DF8000080208B
:103220008DF80100B4208DF8020090208DF8030085
:103230006A46042140F6A22001F008FC04F00100D7
:1032400020B3F8208DF800006A4601214FF40B608E
:1032500001F0FCFBFA21072000F0FCFA072000F047
:10326000C3FA012000F0E3FA642000F0C3FB4FF43E
:10327000FA7000F0D2FBC821304800F073FA282021
:1032800000F08CFA0A2000F09CFA08E0D8208DF8B3
:1032900000006A4601214FF40B6001F0D7FB04F0F7
:1032A000020018B1D9208DF8000002E0D8208DF876
:1032B00000006A46012140F23D7001F0C7FB04F0B6
:1032C000040018B1012000F069F802E0002000F0CD
:1032D00065F804F0100018B10120FFF707FF02E0C5
:1032E0000020FFF703FF44F008001549488101F072
:1032F00027F800201249887304F0400018B10846EE
:10330000807B801D887304F4C07020B10C48807BE2
:10331000801D0B49887304F0140020B10848807B9D
:1033200010300749887304F0030020B10448807B03
:10333000001D0349887300203EBD000009E3CA0256
:10334000B00000203EB504466CB10EA1D1E90020CA
:103350008968CDE9002002916A4609214FF49760FF
:1033600001F074FB3EBD0AA2D2E900109268CDE9DB
:10337000010200916A4609214FF4976001F066FB53
:10338000F0E70000B8AAB38DB4980D355D000000D9
:10339000B8AAAAAAB088C3C5C700000038B50446B9
:1033A00064B1C0208DF80000C2208DF80100C42057
:1033B0008DF80200C6208DF8030004E08B22042162
:1033C0006846FCF7BFFE6A46042140F6982001F0EB
:1033D0003DFB00F0B5FF38BD10B5C8234FF4806247
:1033E000024940F6F63000F03FFE10BDF84B0008F1
:1033F0002DE9F04F8DB00746884615469946DDE920
:10340000166B0024002030806B49887B5A4605A942
:1034100000F0F6FE18B1601E0DB0BDE8F08F6648F2
:10342000807A00F01400002867D09DF81400000690
:103430009DF8151040EA01409DF8161040EA012061
:103440009DF81710084328609DF8180000069DF8A5
:10345000191040EA01409DF81A1040EA01209DF839
:103460001B10084368609DF81C0000069DF81D10A5
:1034700040EA01409DF81E1040EA01209DF81F100F
:103480000843A8609DF8200000069DF8211040EA3E
:1034900001409DF8221040EA01209DF823100843C6
:1034A000E86004F11000C4B2286800140190686854
:1034B00000140290A86800140390E86800140490B7
:1034C00001984043029901FB0100039901FB0100AF
:1034D000049901FB010ABAF1706F02DBBAF1885F4F
:1034E00005DD00F02DFF00203080401E94E7B6F986
:1034F000000040F48070308000BF2F48807A00F0D8
:10350000400020B305A9601C085C095D40EA012069
:1035100000B2A8F8000005A9E01C095C05AAA01CDF
:10352000105C41EA002000B2A8F8020005A9601D65
:10353000095C201D105C41EA002000B2A8F80400DC
:10354000A01DC4B2B6F9000040F0080030801A484F
:10355000408900F4C07008B305A9601C085C095DCF
:1035600040EA012000B2388005A9E01C095C05AAE8
:10357000A01C105C41EA002000B2788005A9601D03
:10358000095C201D105C41EA002000B2B880A01D3B
:10359000C4B2B6F9000040F0700030800648807A6E
:1035A00000F0030018B105A90819FFF76DFD4846A2
:1035B00000F0D6FA00202FE7B000002030B585B02B
:1035C000044616A207CA02AB07C3C82C03DD4FF09E
:1035D000FF3005B030BDC82090FBF4F0401E85B22E
:1035E000280A8DF80000E8B28DF801006A46022131
:1035F00040F2162001F02AFA10B14FF0FF30E8E750
:1036000002AA0C2140F6C12001F020FA10B14FF0BF
:10361000FF30DEE7044884810020DAE7FEF2ABC425
:10362000AAF1DFDFBBAFDFDFB000002010B586B04E
:10363000044647A00068039046A00068029046A098
:103640000068019045A00068009004F0030003A901
:10365000085C8DF8140003A8C4F3C101405C8DF828
:10366000150003A8C4F38111405C8DF8160004F026
:10367000030002A9085C8DF8100002A8C4F3C10180
:10368000405C8DF8110002A8C4F38111405C8DF8F4
:10369000120005AA032140F2264001F0D7F918B123
:1036A0004FF0FF3006B010BD04AA032140F22A40BB
:1036B00001F0CCF910B14FF0FF30F3E7019805901D
:1036C0000098049004F0040058B19DF8140040F0F4
:1036D00001008DF814009DF8100040F001008DF8F5
:1036E000100004F0200058B19DF8150040F00100D2
:1036F0008DF815009DF8110040F001008DF81100C3
:1037000004F4807058B19DF8160040F001008DF867
:1037100016009DF8120040F001008DF8120005AA75
:1037200003214FF4886001F091F910B14FF0FF30A0
:10373000B8E704AA032140F2314001F087F910B143
:103740004FF0FF30AEE7064804810020AAE70000F2
:103750004CCD6C000CC92C0036567600264666000F
:10376000B0000020F8B505460E464FF47A7095FB80
:10377000F0F000FB06F4200E8DF80000200C8DF810
:103780000100200A8DF80200E0B28DF803006A46BD
:1037900004214FF4AE7001F059F9F8BD38B5044674
:1037A000052094FBF0F084B220128DF80000E0B206
:1037B0008DF801006A4602214FF4AD7001F046F920
:1037C00038BD38B50446052094FBF0F084B22012D1
:1037D0008DF80000E0B28DF801006A4602214FF436
:1037E000AC7001F033F938BD38B5044600200090C4
:1037F00004F0010020B19DF8000040F0300000907E
:1038000004F0020020B19DF8000040F00C00009090
:1038100004F0040020B19DF8000040F00300009087
:103820006A4601214FF4A47001F010F938BD38B593
:103830000446012C01DA012402E0042C00DD0424FA
:10384000601EC0B200906A46012140F24F1001F0A4
:10385000FDF838BD2DE9FC4706460F4606F0070087
:1038600010B1B7F5C86F03DD4FF0FF30BDE8FC873E
:103870003846FCF7DFFE81465949FCF70CFD8046CF
:10388000684600F003FB9DF80000022806D00428DB
:1038900016D0082826D0102848D135E04FF08D41A9
:1038A0004046FCF7C6FC8146FCF7C9FE84B24D4990
:1038B0004046FCF7BEFC8146FCF7C1FE85B238E00D
:1038C0004FF08C414046FCF7B4FC8146FCF7B7FE54
:1038D00084B245494046FCF7ACFC8146FCF7AFFE9C
:1038E00085B226E04FF08B414046FCF7A2FC8146B2
:1038F000FCF7A5FE84B23D494046FCF79AFC8146A0
:10390000FCF79DFE85B214E04FF08A414046FCF77B
:1039100090FC8146FCF793FE84B235494046FCF7A3
:1039200088FC8146FCF78BFE85B202E04FF0FF3049
:103930009CE700BF20128DF80400E0B28DF805006E
:1039400028128DF80600E8B28DF8070006F0010095
:10395000A0B101AA02214FF4EA7001F077F810B18A
:103960004FF0FF3082E70DF1060202214FF4927012
:1039700001F06CF810B14FF0FF3077E706F002006D
:10398000A0B101AA02214FF4EC7001F05FF810B170
:103990004FF0FF306AE70DF1060202214FF49470F8
:1039A00001F054F810B14FF0FF305FE706F004006B
:1039B000A0B101AA02214FF4EE7001F047F810B156
:1039C0004FF0FF3052E70DF1060202214FF49670DE
:1039D00001F03CF810B14FF0FF3047E7002045E719
:1039E00000004843000040460000C045000040453C
:1039F0000000C04438B50446052094FBF0F085B2C1
:103A000028128DF80000E8B28DF801006A46022104
:103A10004FF4EF7001F01AF838BD38B504460520B0
:103A200094FBF0F085B228128DF80000E8B28DF812
:103A300001006A4602214FF4ED7001F007F838BD2D
:103A400013B50C464FF47A73012269460248FDF71C
:103A50005BFE00981CBD00006800002010B5044605
:103A6000204600F00FF80346E01C00F00BF843EA94
:103A7000C00083B2A01D00F005F843EA801083B2B5
:103A8000184610BD014691F90020002A01DD0020F2
:103A90001EE091F90020002A01DA042018E091F9D3
:103AA0000120002A01DD012012E091F90120002A05
:103AB00001DA05200CE091F90220002A01DD022044
:103AC00006E091F90220002A01DA062000E0072032
:103AD000704700001FB5FDF771F9FEF784F9FEF796
:103AE000C5F8FEF745F9FDF791FF00F085F926E0EE
:103AF000134A1449144800F06DF84FF4005113486C
:103B0000FDF73AF96420FCF78BFF0D480068FCF7DD
:103B1000AAFD04460D460B480068FCF7A4FD0646C6
:103B20000F4609480068FCF79EFD804642460B465A
:103B300007A0CDE90067CDE90245FEF785FAD7E792
:103B400008000020040000200000002000100140B8
:103B5000252E32662C252E32662C252E32660A0042
:103B60007047000070B50446002624F00104184890
:103B700090F8240008B1002070BD1548807A10B973
:103B80004FF0FF30F8E71248057C807A204010495A
:103B900008740846007CA04202D04FF0FF3600E0D7
:103BA000002614B90A48007D18B1012000F08EFFEC
:103BB00002E0002000F08AFF3CB100F0C1FB20B120
:103BC000034805744FF0FF30D6E73046D4E70000D5
:103BD000180000202DE9F04F99B004460D46164616
:103BE0004FF07E574FF000084FF000094FF0000AE9
:103BF00012A813A918AB0EAACDE9001014A916A893
:103C0000FFF7F6FB18B1012019B0BDE8F08FBDF841
:103C10004C0000F4807000287ED00E98FCF701FD67
:103C200083464FF09D41FCF736FB07460F98FCF7A3
:103C3000F8FC83464FF09D41FCF72DFB8046109821
:103C4000FCF7EFFC83464FF09D41FCF724FB8146D7
:103C50001198FCF7E6FC83464FF09D41FCF71BFBF7
:103C6000824639464FF08040FCF7E3FA494605901A
:103C7000FCF7DFFA414607904FF04040FCF7D9FAD5
:103C800051460590FCF7D5FA06900799FCF779FAAA
:103C90008346FCF7E8FCCDE90801FEF7EDFE4FF0A6
:103CA0006632544BCDE90A01FCF7DAFBCDE90C0191
:103CB000FCF7ECFC206049464FF08040FCF7B9FA75
:103CC00049460290FCF7B5FA414604904FF0404057
:103CD000FCF7AFFA41460290FCF7ABFA0390049967
:103CE000FCF7A1FA83464FF07E51FCF74AFA0590A3
:103CF000FCF7B9FCCDE9080139464FF08040FCF7EC
:103D000098FA41460390FCF794FA494604904FF024
:103D10008040FCF78EFA00E068E051460390FCF723
:103D200088FA83460499FCF72CFA0590FCF79BFC73
:103D3000CDE90601DDE90823FFF7E6F84FF066322A
:103D40002C4BCDE90A01FCF78BFBCDE90C01FCF70C
:103D50009DFC286051465046FCF76BFA494604909A
:103D60004846FCF766FA414603904046FCF761FA84
:103D7000394601903846FCF75CFA00900199FCF74F
:103D800000FA02900399FCF74EFA83460499FCF777
:103D90004AFA0590FCF767FCCDE908015146384620
:103DA000FCF747FA494604904046FCF742FA039074
:103DB0000499FCF7E6F94FF080410590FCF739FAD9
:103DC0008346FCF750FCCDE90601DDE90823FFF747
:103DD0009BF84FF06632074BCDE90A01FCF740FB38
:103DE000CDE90C01FCF752FC306001E002200BE74A
:103DF000002009E766A64C4070B50024FDF70EFDD3
:103E000000F06AF800283AD1782000F0B7FDC4B27B
:103E10000CB1012070BD7820FFF7A4FEC4B20CB134
:103E20000220F7E7642000F05BFDC4B20CB1032070
:103E3000F0E7FFF7D1FAC4B20CB10420EAE7124868
:103E4000FFF70CFE0546FFF7F1FBC4B20CB10520ED
:103E5000E0E740F27310FFF767F9C4B20CB1062037
:103E6000D8E76420FFF7AAFBC4B20CB10720D1E762
:103E7000012000F031FCC4B21CB10920CAE70A20BD
:103E8000C8E70020C6E700004400002001461148B2
:103E9000407A30B1012807D0022808D003280CD17D
:103EA00008E0022008700BE00420087008E00820F9
:103EB000087005E01020087002E04FF0FF307047F6
:103EC00000BF0448C07C18B108784006000E087096
:103ED0000020F4E7180000201CB580208DF80000B9
:103EE000604A1268917C5F4A526810786B460122E2
:103EF000FDF78CFE10B14FF0FF301CBD6420FCF7C5
:103F00008FFD00208DF80000564A1268917C554ABA
:103F1000526810786B460122FDF778FE10B14FF021
:103F2000FF30EAE74F4A1268917D4E4A5268107896
:103F30006B460622FDF7C4FD10B14FF0FF30DCE701
:103F40009DF80500C007400F9DF8031001F0010126
:103F500040EA41009DF8011001F0010140EA01042E
:103F600074B1012C03D101213E48C17427E0022C19
:103F700003D100213B48C17421E04FF0FF30BCE782
:103F8000384A1268D178374A526810786B46012255
:103F9000FDF796FD10B14FF0FF30AEE79DF8000041
:103FA00000F00F0414B94FF0FF30A6E7042C03D142
:103FB00001212C48C17402E000212A48C174FF216C
:103FC00028488172FF2027490872FF212548417245
:103FD000C1724FF6FF71C181FF210174817401210B
:103FE000017380F82210002180F8231041750175BB
:103FF0001630016041608160163880F8241080F826
:104000002510C1844FF4FA6000F0AEFB10B14FF000
:10401000FF3072E7022000F077FA10B14FF0FF3066
:104020006BE72A2000F01AFC10B14FF0FF3064E774
:10403000322000F055FC10B14FF0FF305DE700205A
:10404000FFF790FD10B14FF0FF3056E7002000F071
:104050009DFA10B14FF0FF304FE7002000F08EFCCA
:1040600000204AE7180000202DE9F04385B00546FE
:104070000E4690469946294890F8250020B14FF009
:10408000FF3005B0BDE8F08316B94FF0FF30F8E718
:10409000002423E0281B102801DD102000E0281B4D
:1040A00087B232193946204600F0D0FC10B14FF0EB
:1040B000FF30E6E701AA3946204600F001F910B1C9
:1040C0004FF0FF30DDE730193A4601A9FCF74CF814
:1040D00010B16FF00100D4E7E01984B2AC42D9DB33
:1040E0004FEA28208DF8000008F0FF008DF801004D
:1040F0000A4A1268917E094A526810786B46022279
:10410000FDF784FD10B14FF0FF30BAE701210348FD
:1041100080F82510A0F826900020B2E718000020B3
:1041200038B50446282C02DD4FF0FF3038BDDCB92D
:10413000002000F05DFB00208DF8000007208DF8C6
:1041400001002E4A1268917C2C4A526810786B4606
:104150000222FDF75BFD10B14FF0FF30E6E70021D2
:10416000264801750020E1E7012000F041FB2020F6
:104170008DF80000012C06D100208DF801000520EB
:1041800000F06CFB17E0052C06DC01208DF8010027
:10419000052000F063FB0EE0142C06DC02208DF8F5
:1041A00001000A2000F05AFB05E003208DF8010011
:1041B000142000F053FB9DF80100072101EB801053
:1041C000C0B28DF801000D4A1268917C0B4A52680A
:1041D00010786B460222FDF719FD10B14FF0FF3049
:1041E000A4E70821054881720021017301210175AE
:1041F0000020FFF7B7FC002098E70000180000201F
:10420000F8B504460F4616462C4890F8240010B91D
:104210004FF0FF30F8BD2948807A10B94FF0FF30D9
:10422000F8E7264A1268917A244A526810786B4659
:104230000222FDF745FC10B14FF0FF30EAE79DF890
:1042400001009DF8001040EA0125A54203DA002094
:104250003070401EDEE7194840684088B5EB600FBB
:1042600017DD164A1268517C144A526810786B4662
:104270000122FDF725FC10B14FF0FF30CAE79DF891
:10428000000000F0100020B100F05AF86FF00100BB
:10429000C0E7E2B2094B1B68D97A084B5B68187813
:1042A0003B46FDF70DFC10B14FF0FF30B2E795FB38
:1042B000F4F0401E30700020ACE700001800002031
:1042C000F8B504460D46164616B94FF0FF30F8BD56
:1042D0001A48807A10B94FF0FF30F8E720128DF8B5
:1042E0000000E0B28DF801009DF801002844134958
:1042F00049684989884202DD4FF0FF30E7E70F4AFD
:104300001268117E0D4A526810786B460222FDF742
:104310007DFC10B14FF0FF30D9E7EAB2074B1B68C4
:10432000597D064B5B6818783346FDF7C9FB10B121
:104330004FF0FF30CBE70020C9E700001800002055
:1043400008B57048807A10B94FF0FF3008BD0020E2
:1043500000906C4A1268D17B6A4A526810786B46AA
:104360000122FDF753FC10B14FF0FF30EEE7654A34
:1043700012685179634A526810786B460122FDF742
:1043800045FC10B14FF0FF30E0E75E4A126811794A
:104390005C4A526810786B460122FDF737FC10B179
:1043A0004FF0FF30D2E7574890F82400002853D050
:1043B0000C200090534A12681179524A52681078C2
:1043C0006B460122FDF722FC10B14FF0FF30BDE734
:1043D0003220FCF725FBC02000904A48807A00F08C
:1043E000010020B19DF8000040F020000090454AF7
:1043F00012681179434A526810786B460122FDF722
:1044000005FC10B14FF0FF30A0E73E48407C10B1F2
:104410000220009001E0002000903A4A1268D17B0F
:10442000384A526810786B460122FDF7EFFB10B155
:104430004FF0FF308AE700200090324A126851792D
:10444000304A526810786B460122FDF7DFFB0028E6
:1044500055D04FF0FF3079E704200090294A1268C8
:104460001179284A526810786B460122FDF7CEFB7D
:1044700010B14FF0FF3069E72248807C20B9214815
:10448000807A00F0010010B94020009001E0602027
:1044900000901C4A126811791A4A526810786B46CB
:1044A0000122FDF7B3FB10B14FF0FF304EE7322091
:1044B000FCF7B6FA1348407C10B10120009001E0EF
:1044C000002000900F4A1268D17B0E4A5268107883
:1044D0006B460122FDF79AFB10B14FF0FF3035E734
:1044E000084A12685179074A52681078054B103310
:1044F0000122FDF78BFB10B14FF0FF3026E70020C3
:1045000024E700001800002038B504461E48807AD1
:1045100010B94FF0FF3038BD022C06D0042C07D064
:10452000082C08D0102C0CD108E0002000900BE0E3
:104530000820009008E01020009005E0182000906E
:1045400002E04FF0FF30E6E700BF0F48407A9DF8E9
:104550000010B0EBE10F01D10020DCE70A4A12683D
:10456000D179094A526810786B460122FDF74EFB5B
:1045700010B14FF0FF30CEE79DF80000C1100248A7
:1045800041720020C7E700001800002038B504463B
:104590005048807CA04201D1002038BD002C46D07C
:1045A0004C4A126811794B4A526810786B460122C6
:1045B000FDF786FA10B14FF0FF30EEE79DF80000EE
:1045C00020F020000090434A12681179414A526855
:1045D00010786B460122FDF719FB10B14FF0FF3048
:1045E000DBE70320FCF71CFA02200090394890F822
:1045F000220020B19DF8000040F080000090354876
:1046000090F8230020B19DF8000040F030000090A9
:10461000304A1268117D2F4A526810786B46012289
:10462000FDF7F4FA002851D04FF0FF30B5E7294AE2
:1046300012681179274A526810786B460122FDF7FB
:104640003FFA10B14FF0FF30A7E72248807A00F020
:10465000010028B19DF8000040F02000009004E027
:104660009DF8000020F0200000901A4A126811798D
:10467000184A526810786B460122FDF7C7FA10B14C
:104680004FF0FF3089E70320FCF7CAF9114890F892
:10469000220010B18020009001E0002000900D4821
:1046A00090F8230020B19DF8000040F03000009009
:1046B000084A1268117D074A526810786B46012239
:1046C000FDF7A4FA10B14FF0FF3066E7014884749B
:1046D000002062E71800002038B50446214890F811
:1046E0002400A04201D1002038BD24B31D4890F819
:1046F000250010B94FF0FF30F6E7002000F0E6F992
:104700000020FFF743FF1749C88C00F0E9F80020AC
:1047100000901449496808786B4601222321FDF76F
:1047200075FA01210F4880F82410012000F0CEF91D
:10473000FFF706FE13E0002000F0C8F90948007CEE
:1047400000900849496808786B4601222321FDF74B
:104750005DFA0021034880F82410FFF7F1FD0020E6
:10476000C2E700001800002038B504461F48807AD0
:1047700010B94FF0FF3038BDFA2C09D0B4F5FA7FEC
:1047800009D0B4F57A7F09D0B4F5FA6F0CD108E0FE
:10479000002000900BE00820009008E0102000901E
:1047A00005E01820009002E04FF0FF30E3E700BF83
:1047B0000E48007A9DF80010B0EBE10F01D1002007
:1047C000D9E70A4A12689179084A526810786B460C
:1047D0000122FDF71BFA10B14FF0FF30CBE79DF837
:1047E0000000C010014908720020C4E71800002032
:1047F00038B50446184890F82300A04201D10020A3
:1048000038BD14B13020009001E000200090124823
:10481000807C20B19DF8000040F0020000900E481E
:1048200090F8220020B19DF8000040F08000009038
:10483000094A1268117D084A526810786B460122B5
:10484000FDF7E4F910B14FF0FF30D9E7024880F8E6
:1048500023400020D4E700001800002038B50446AB
:104860001E48807A10B94FF0FF3038BDBC2C02DBF7
:104870000120009015E0622C02DB0220009010E085
:104880002A2C02DB032000900BE0142C02DB042016
:10489000009006E00A2C02DB0520009001E00620D3
:1048A00000900E48C07A9DF80010884201D1002087
:1048B000DBE70A4A12689178084A526810786B461A
:1048C0000122FDF7A3F910B14FF0FF30CDE79DF8BD
:1048D00000100248C1720020C7E700001800002045
:1048E00038B504462448807A10B94FF0FF3038BDFF
:1048F000214890F8240010B14FF0FF30F7E71E4830
:10490000007D50B134B1282C04DCE0B2FFF708FC84
:104910000020ECE70020FFF703FC042C01DA04245C
:1049200004E0B4F57A7F01DD4FF47A744FF47A70C5
:1049300090FBF4F0401EC0B200900F4A126851780C
:104940000D4A526810786B460122FDF75FF910B1ED
:104950004FF0FF30CBE79DF80000401C4FF47A7118
:1049600091FBF0F081B20448C1810146C989481029
:10497000FFF774FF0020BAE71800002038B504469E
:1049800004F0700010B10120009005E014B1002087
:10499000009001E0402000902B4A1268917C2A4A46
:1049A000526810786B460122FDF730F920B10021E2
:1049B00025488172481E38BD9DF8000020F0400156
:1049C000214801730020009004F0400020B99DF8B8
:1049D000000040F00400009004F0200020B99DF891
:1049E000000040F00200009004F0100020B99DF893
:1049F000000040F00100009004F0080020B99DF88C
:104A0000000040F0380000900F4A1268D17C0E4A36
:104A1000526810786B460122FDF7F8F820B10021AA
:104A200009488172481EC6E724B1082C02D0002034
:104A3000FFF7DEFE04488472002101753220FBF787
:104A4000EFFF0020B7E7000018000020F8B504468B
:104A50000D46164616B94FF0FF30F8BD1A48807A59
:104A600010B94FF0FF30F8E720128DF80000E0B2E7
:104A70008DF801009DF801002844134949684989CF
:104A8000884202DD4FF0FF30E7E70F4A1268117EDF
:104A90000D4A526810786B460222FDF7B7F810B144
:104AA0004FF0FF30D9E7EAB2074B1B68597D064B40
:104AB0005B6818783346FDF7A9F810B14FF0FF3066
:104AC000CBE70020C9E700001800002038B50446F5
:104AD000214890F82400C0B114B10220009001E0F8
:104AE000002000901C4A1268D17B1B4A5268107843
:104AF0006B460122FDF78AF810B14FF0FF3038BD48
:104B00009DF800101448417423E01348807A10B9CE
:104B10004FF0FF30F3E724B10F48407C08B100208C
:104B2000EDE714B10120009001E0002000900A4A56
:104B30001268D17B084A526810786B460122FDF753
:104B400065F810B14FF0FF30D9E79DF8001002482A
:104B500041740020D3E70000180000202DE9F04147
:104B600006460F46FBF704FF041E0D4618BF012042
:104B7000284320F00040C0F17F6000F1E040C00F0A
:104B80000ED0301C18BF0120384320F00040C0F187
:104B90007F6000F1E040C00F04BF0120FDF70CFB77
:104BA00020462946BDE8F08175191A0C6A231B1CA2
:104BB0001F207274433B4138393A6B6C376F0624BF
:104BC0006D6E70006800000476005401F7FD00016E
:104BD00083000000000800000001001832000500FA
:104BE000000020410000D242295C0F3E9A99993E74
:104BF0003333733F295C0F3E000070000000002437
:104C0000000000020003000000650054FFEF0000F8
:104C1000FA80000B12820001030C30C30E8C8CE969
:104C200014D5400213710F8E3883F8833000F88357
:104C3000258EF8833000F883FFFFFFFF0FFEA9D613
:104C4000240004001A8279A10000003CFFFF00004C
:104C50000010000038836FA2003E033040000000C7
:104C600002CAE3093E8000002000000000000000AE
:104C70004000000060000000000C0000000C186EF6
:104C8000000006920A16C0DFFFFF0256FD8CD377A4
:104C9000FFE1C496E0C5BEAA00000000FFFF0B2B99
:104CA00000001657000003594000000000001DFAE4
:104CB00000026C1D000000003FFFDFEB003EB3B6BA
:104CC000000D227800002F3C00000000001942B5C2
:104CD000000039A20000B365D90E9FC91DCF4C3426
:104CE00030000000500000003BB67AE8006400008D
:104CF00000C8000000000000100000001000FA9240
:104D00001000225E000D229F000100000032000012
:104D1000FF46000063D400001000000004D600002D
:104D200004CC000004CC0000000010720000004021
:104D3000000000000000000000060002000500075F
:104D400000000000006400000000000000000005FA
:104D500000050064002000000000000000000000CA
:104D6000000040000000030000000032F89800003E
:104D7000FF650000830F0000FF9BFC0000000000A7
:104D80000000000000000000000000000000000023
:104D90000000000000000000000000000000000013
:104DA00000000000000010004000000000000006AD
:104DB0000000B26A000200000001FB8300680000EE
:104DC00000D9FC007CF1FF830000000000650000BA
:104DD000006403E8006400280000002500000000D3
:104DE00016A000000000100000001000002F0000BE
:104DF000000001F40000100000280000FFFF4581C2
:104E0000FFFFFA72000000000000000000440005EF
:104E10000005BAC6004778A20000000100000000AB
:104E200000000600000000140000254D002F706DEA
:104E3000000005AE000C02D00000000000000000E1
:104E40000000000000000000001B00000000000047
:104E500000000000000000000064000000080000E6
:104E60000000000000000000000000000000000042
:104E70000000000000000000000000000000000032
:104E80000000000000000000000000000000000022
:104E90000000000000000000000000000000000012
:104EA0000000000000000000000000000000000002
:104EB0000000000000000000001B000000000000D7
:104EC00000000000000E000E00000AC700040000F1
:104ED00000000032FFFFFF9C00000B2B00000002CF
:104EE0000000000100000064FFE500000000000079
:104EF00000000000000000000000000100000000B1
:104F0000000100000000000000018000000180009E
:104F100000018000002426D30000000000000000F3
:104F2000000600100096003C000000000000000099
:104F300000000000000000000C0A4E68CDCF770989
:104F400050166759C619CE8200000000000000000C
:104F50000000000000000000000000000000000051
:104F600017D78400030000000000000000000000CC
:104F7000C7938F9D1E1B1C1900000000000000003D
:104F80000000000000000000000000000000000021
:104F90000203188500004000000000030000000329
:104FA00000000000000000004000000000000000C1
:104FB00000000000000000000000000000000000F1
:104FC00000000000000000000000000000000000E1
:104FD000000000000000000000000000677DDF7E90
:104FE00072902E554CF6E68800000000000000008C
:104FF0000000000000000000D8DCB4B8B0D8B9ABA5
:10500000F3F8FAB3B7BB8E9EAEF132F51BF1B4B82C
:10501000B08097F1A9DFDFDFAADFDFDFF2AAC5CD1D
:10502000C7A90CC92C97F1A989264666B28999A906
:105030002D557DB0B08AA896365676F1BAA3B4B293
:1050400080C0B8A89711B28398BAA3F0240844107E
:105050006418B2B9B49883F1A329557DBAB5B1A348
:105060008393F0002850F5B2B6AA839328547CF1BC
:10507000B9A3829361BAA2DADEDFDB819AB9AEF519
:10508000606870F1DABAA2DFD9BAA2FAB9A3829243
:10509000DB31BAA2D9BAA2F8DF85A4D0C1BBAD83F7
:1050A000C2C5C7B8A2DFDFDFBAA0DFDFDFD8D8F123
:1050B000B8AAB38DB4980D355DB2B6BAAF8C961957
:1050C0008F9FA70E161EB49AB8AA872C547CBAA438
:1050D000B08AB691325676B28494A4C808CDD8B8B6
:1050E000B4B0F19982A82D557D98A80E161EA22C59
:1050F000547C92A4F02C5078F184A898C4CDFCD8AC
:105100000DDBA8FC2DF3D9BAA6F8DABAA6DED8BA18
:10511000B2B68696A6D0F3C841DAA6C8F8D8B0B41D
:10512000B882A892F52C548898F135D9F418D8F1A2
:10513000A2D0F8F9A884D9C7DFF8F883C5DADF6907
:10514000DF83C1D8F40114F1A8824EA884F311D1F1
:1051500082F5D992289788F109F41C1CD884A8F309
:10516000C0F9D1D99782F129F40DD8F3F9F9D1D941
:1051700082F4C203D8DEDF1AD8F1A2FAF9A8849823
:10518000D9C7DFF8F8F883C7DADF69DFF883C3D857
:10519000F40114F198A8822EA884F311D182F5D9D4
:1051A00092509788F109F41CD884A8F3C0F8F9D17B
:1051B000D99782F149F40DD8F3F9F9D1D982F4C421
:1051C00003D8DEDFD8F1AD8898CCA809F9D982924E
:1051D000A8F57CF1883ACF944A6E98DB6931DAAD54
:1051E000F2DEF9D88795A8F221D1DAA5F9F417D91A
:1051F000F1AE8ED0C0C3AE82C684C3A88595C8A5C3
:1052000088F2C0F1F4010EF18E9EA8C63E56F55408
:10521000F18872F40115F19845856EF58E9E04882B
:10522000F142985A8E9E068869F4011CF1981E116D
:1052300008D0F504F11E970202983625DBF9D985CE
:10524000A5F3C1DA85A5F3DFD88595A8F309DAA51A
:10525000FAD88292A8F578F1881A849F2688982136
:10526000DAF41DF3D8879F39D1AFD9DFDFFBF9F42A
:105270000CF3D8FAD0F8DAF9F9D0DFD9F9D8F40B71
:10528000D8F3879F39D1AFD9DFDFF41DF3D8FAFC0B
:10529000A869F9F9AFD0DADEFAD9F88F9FA8F1CC76
:1052A000F398DB45D9AFDFD0F8D8F18F9FA8CAF3C8
:1052B0008809DAAF8FCBF8D8F2AD978D0CD9A5DF7E
:1052C000F9BAA6F3FAF412F2D8950DD1D9BAA6F329
:1052D000FADAA5F2C1BAA6F3DFD8F1BAB2B6869669
:1052E000A6D0CAF349DAA6CBF8D8B0B4B8D8AD8402
:1052F000F2C0DFF18FCBC3A8B2B68696C8C1CBC3CC
:10530000F3B0B48898A821DB718D9D71859521D962
:10531000ADF2FAD88597A828D9F408D8F28D29DA01
:10532000F405D9F285A4C2F2D8A88D9401D1D9F49C
:1053300011F2D88721D8F40AD8F28498A8C801D1EC
:10534000D9F411D8F3A4C8BBAFD0F2DEF8F8F8F85E
:10535000F8F8F8F8D8F1B8F6B5B9B08A95A3DE3CFC
:10536000A3D9F8D85CA3D9F8D87CA3D9F8D8F8F990
:10537000D1A5D9DFDAFAD8B18530F7D9DED8F8303F
:10538000ADDADED8F2B48C99A32D557DA083DFDF92
:10539000DFB591A0F629D9FBD8A0FC29D9FAD8A06D
:1053A000D051D9F8D8FC51D9F9D879D9FBD8A0D0A7
:1053B000FC79D9FAD8A1F9F9F9F9F9A0DADFDFDF38
:1053C000D8A1F8F8F8F8F8ACDEF8ADDE8393AC2C91
:1053D000547CF1A8DFDFDFF69D2CDAA0DFD9FADB01
:1053E0002DF8D8A850DAA0D0DED9D0F8F8F8DB55DF
:1053F000F8D8A878DAA0D0DFD9D0FAF8F8F8F8DB36
:105400007DF8D89CA88CF530DB38D9D0DEDFA0D071
:10541000DEDFD8A848DB58D9DFD0DEA0DFD0DED869
:10542000A868DB70D9DFDFA0DFDFD8F1A888902C77
:10543000547C98A8D05C38D1DAF2AE8CDFF9D8B0C1
:1054400087A8C1C1B188A8C6F9F9DA36D8A8F9DAAF
:1054500036D8A8F9DA36D8A8F9DA36D8A8F9DA367B
:10546000D8F78D9DADF818DAF2AEDFD8F7ADFA3087
:10547000D9A4DEF9D8F2AEDEFAF983A7D9C3C5C73D
:10548000F1889BA77AADF7DEDFA4F8849408A7978C
:10549000F300AEF29819A488C6A39488F632DFF21E
:1054A0008393DB09D9F2AADFD8D8AEF8F9D1DAF3C1
:1054B000A4DEA7F1889B7AD8F38494AE19F9DAAA0E
:1054C000F1DFD8A881C0C3C5C7A39283F628ADDE9B
:1054D000D9F8D8A350ADD9F8D8A378ADD9F8D8F871
:1054E000F9D1A1DADEC3C5C7D8A18194F818F2B00A
:1054F00089ACC3C5C7F1D8B8B4B09786A8319B06AC
:105500009907AB9728889BF00C201440B0B4B8F0F2
:10551000A88A9A285078B79BA829517924705944B1
:105520006938644831F1BBAB88002C547CF0B38BF4
:10553000B8A804285078F1B088B49726A85998BB29
:10554000ABB38B02264666B0B8F08A9CA829517985
:105550008B2951798A2470598B2058718A44693873
:105560008B3940688A6448318B30496088F1AC00DF
:105570002C547CF08CA804285078F1889726A859E0
:1055800098AC8C02264666F0899CA8295179247033
:1055900059446938644831A98809205970AB1138D9
:1055A0004069A8193148608CA83C415C207C00F11E
:1055B00087981986A86E767EA999882D557DD8B1D1
:1055C000B5B9A3DFDFDFAED0DFAAD0DEF2ABF8F9EA
:1055D000D9B087C4AAF1DFDFBBAFDFDFB9D8B1F143
:1055E000A3978E60DFB084F2C8F8F9D9DED893852E
:1055F000F14AB183A308B5839A0810B79F10D8F178
:10560000B0BAAEB08AC2B2B68E9EF1FBD9F41DD844
:10561000F9D90CF1D8F8F8AD61D9AEFBD8F40CF19A
:10562000D8F8F8AD19D9AEFBDFD8F416F1D8F8AD3B
:105630008D61D9F4F4ACF59C9C8DDF2BBAB6AEFA33
:10564000F8F40BD8F1AED0F8AD51DAAEFAF8F1D8E3
:10565000B9B1B6A3839C08B9B1839AB5AAC0FD308D
:1056600083B79F10B58B93F20202D1ABDADED8F18B
:10567000B080BAABC0C3B284C1C3D8B1B9F38BA3F5
:1056800091B609B4D9ABDEB0879CB9A3DDF1B38B79
:105690008B8B8B8BB087A3A3A3A3B28BB69BF2A3F8
:1056A000A3A3A3A3A3A3A3A3A3F1B087B59AA3F332
:1056B0009BA3A3DCBAACDFB9A3A3A3A3A3A3A3A317
:1056C000A3A3A3A3A3A3A3A3D8D8D8BBB3B7F1AA7A
:1056D000F9DAFFD9809AAA28B48098A720B79787CB
:1056E000A86688F07951F1902C870CA78197629376
:1056F000F071716085940129517990A5F1284C6C65
:10570000870C95188578A38390284C6C886CD8F307
:10571000A28200F210A8921980A2F2D926D8F188AC
:10572000A84DD948D896A83980D93CD89580A839B1
:10573000A68698D92CDA87A72CD8A8899519A9808C
:10574000D938D8A88939A980DA3CD8A82EA83990A8
:10575000D90CD8A8953198D90CD8A809D9FFD80167
:10576000DAFFD89539A9DA26FFD890A80D8999A82B
:1057700010809821DA2ED88999A83180DA2ED8A8FD
:1057800086963180DA2ED8A8873180DA2ED8A88282
:1057900092F34180F1D92ED8A882F31980F1D92E45
:1057A000D882ACF3C0A28022F1A62EA72EA92298FF
:1057B000A829DAACDEFFD8A2F22AF1A92E8292A89B
:1057C000F23180A696F1D900AC8C9C0C30ACDED0C6
:1057D000DEFFD88C9CACD010ACDE8092A2F24C8262
:1057E000A8F1CAF235F19688A6D900D8F1FF0203D4
:1057F0000405060708090A0B0C0D0E0F1010010214
:105800000000000000000000010203040607080970
:105810000000000001020304555555555555C53F7C
:105820007D6FEB0312D6D4BF5544880E55C1C93FD6
:105830003B8F68B52882A4BF88B20175E0EF493F6D
:1058400009F7FD0DE13D023F4B2D8A1C273A03C0AD
:10585000C88A599CE52A004059018D1B6C06E6BF99
:1058600082922EB1C5B8B33F4FBB610567ACDD3F37
:10587000182D4454FB21E93F9BF681D20B73EF3F77
:10588000182D4454FB21F93FE2652F227F2B7A3CEF
:10589000075C143326A6813CBDCBF07A8807703CA8
:1058A000075C143326A6913CC4EB98999999C9BF1B
:1058B000711623FEC671BCBF6D9A74AFF2B0B3BF50
:1058C0009AFDDE522DDEADBF2F6C6A2C44B4A2BF10
:1058D0000D5555555555D53FFF8300922449C23F7C
:1058E0006E204CC5CD45B73F513DD0A0660DB13FB0
:1058F000EB0D76244B7BA93F11DA22E33AAD903FC2
:1059000000000000000000002859000800000020EE
:1059100068000000982100089059000868000020E5
:1059200058040000A821000800000000000000004A
:105930000000000000000000000000000000000067
:10594000A84B0008C44B0008000000000000000045
:105950000000000000000000000000000000000047
:105960000000000000000000D04B00080100000013
:105970000100000001000000000000001000000015
:105980000100000000127A0000000000000000008A
:04000005080000ED02
:00000001FF
